{
  "_format": "hh-sol-artifact-1",
  "contractName": "HostStake",
  "sourceName": "contracts/HostStake.sol",
  "abi": [
    {
      "inputs": [],
      "stateMutability": "nonpayable",
      "type": "constructor"
    },
    {
      "inputs": [],
      "name": "ReentrancyGuardReentrantCall",
      "type": "error"
    },
    {
      "anonymous": false,
      "inputs": [
        {
          "indexed": true,
          "internalType": "address",
          "name": "host",
          "type": "address"
        },
        {
          "indexed": false,
          "internalType": "uint256",
          "name": "newStakeAmount",
          "type": "uint256"
        }
      ],
      "name": "HostStakeUpdated",
      "type": "event"
    },
    {
      "anonymous": false,
      "inputs": [
        {
          "indexed": true,
          "internalType": "address",
          "name": "account",
          "type": "address"
        },
        {
          "indexed": false,
          "internalType": "string",
          "name": "role",
          "type": "string"
        }
      ],
      "name": "RoleGranted",
      "type": "event"
    },
    {
      "anonymous": false,
      "inputs": [
        {
          "indexed": true,
          "internalType": "address",
          "name": "account",
          "type": "address"
        },
        {
          "indexed": false,
          "internalType": "string",
          "name": "role",
          "type": "string"
        }
      ],
      "name": "RoleRevoked",
      "type": "event"
    },
    {
      "inputs": [],
      "name": "admin",
      "outputs": [
        {
          "internalType": "address",
          "name": "",
          "type": "address"
        }
      ],
      "stateMutability": "view",
      "type": "function"
    },
    {
      "inputs": [
        {
          "internalType": "address",
          "name": "host",
          "type": "address"
        }
      ],
      "name": "checkHostStake",
      "outputs": [
        {
          "internalType": "uint256",
          "name": "",
          "type": "uint256"
        }
      ],
      "stateMutability": "view",
      "type": "function"
    },
    {
      "inputs": [
        {
          "internalType": "address",
          "name": "host",
          "type": "address"
        },
        {
          "internalType": "uint256",
          "name": "amount",
          "type": "uint256"
        }
      ],
      "name": "deductHostStake",
      "outputs": [],
      "stateMutability": "nonpayable",
      "type": "function"
    },
    {
      "inputs": [],
      "name": "depositHostStake",
      "outputs": [],
      "stateMutability": "payable",
      "type": "function"
    },
    {
      "inputs": [],
      "name": "getContractBalance",
      "outputs": [
        {
          "internalType": "uint256",
          "name": "",
          "type": "uint256"
        }
      ],
      "stateMutability": "view",
      "type": "function"
    },
    {
      "inputs": [
        {
          "internalType": "address",
          "name": "account",
          "type": "address"
        }
      ],
      "name": "grantManagerRole",
      "outputs": [],
      "stateMutability": "nonpayable",
      "type": "function"
    },
    {
      "inputs": [
        {
          "internalType": "address",
          "name": "",
          "type": "address"
        }
      ],
      "name": "hostStakes",
      "outputs": [
        {
          "internalType": "uint256",
          "name": "",
          "type": "uint256"
        }
      ],
      "stateMutability": "view",
      "type": "function"
    },
    {
      "inputs": [
        {
          "internalType": "address",
          "name": "account",
          "type": "address"
        }
      ],
      "name": "isAdmin",
      "outputs": [
        {
          "internalType": "bool",
          "name": "",
          "type": "bool"
        }
      ],
      "stateMutability": "view",
      "type": "function"
    },
    {
      "inputs": [
        {
          "internalType": "address",
          "name": "account",
          "type": "address"
        }
      ],
      "name": "isManager",
      "outputs": [
        {
          "internalType": "bool",
          "name": "",
          "type": "bool"
        }
      ],
      "stateMutability": "view",
      "type": "function"
    },
    {
      "inputs": [
        {
          "internalType": "address",
          "name": "",
          "type": "address"
        }
      ],
      "name": "managers",
      "outputs": [
        {
          "internalType": "bool",
          "name": "",
          "type": "bool"
        }
      ],
      "stateMutability": "view",
      "type": "function"
    },
    {
      "inputs": [
        {
          "internalType": "address",
          "name": "account",
          "type": "address"
        }
      ],
      "name": "revokeManagerRole",
      "outputs": [],
      "stateMutability": "nonpayable",
      "type": "function"
    },
    {
      "inputs": [
        {
          "internalType": "uint256",
          "name": "amount",
          "type": "uint256"
        }
      ],
      "name": "withdrawHostStake",
      "outputs": [],
      "stateMutability": "nonpayable",
      "type": "function"
    }
  ],
  "bytecode": "0x608060405234801561001057600080fd5b50600160008190555033600160006101000a81548173ffffffffffffffffffffffffffffffffffffffff021916908373ffffffffffffffffffffffffffffffffffffffff16021790555061138d806100696000396000f3fe6080604052600436106100a75760003560e01c8063a8562a9811610064578063a8562a98146101e0578063be4dc94f14610209578063cdff978b14610232578063f3ae24151461023c578063f851a44014610279578063fdff9b4d146102a4576100a7565b806324d7806c146100ac57806326e885e3146100e95780635fbe1919146101125780636d3049cc1461014f5780636f9fb98a1461018c57806385283dcf146101b7575b600080fd5b3480156100b857600080fd5b506100d360048036038101906100ce9190610ea7565b6102e1565b6040516100e09190610eef565b60405180910390f35b3480156100f557600080fd5b50610110600480360381019061010b9190610ea7565b61033b565b005b34801561011e57600080fd5b5061013960048036038101906101349190610ea7565b6104e1565b6040516101469190610f23565b60405180910390f35b34801561015b57600080fd5b5061017660048036038101906101719190610ea7565b6104f9565b6040516101839190610f23565b60405180910390f35b34801561019857600080fd5b506101a16105b0565b6040516101ae9190610f23565b60405180910390f35b3480156101c357600080fd5b506101de60048036038101906101d99190610f6a565b6105b8565b005b3480156101ec57600080fd5b5061020760048036038101906102029190610f97565b610777565b005b34801561021557600080fd5b50610230600480360381019061022b9190610ea7565b610a8a565b005b61023a610c30565b005b34801561024857600080fd5b50610263600480360381019061025e9190610ea7565b610d58565b6040516102709190610eef565b60405180910390f35b34801561028557600080fd5b5061028e610dae565b60405161029b9190610fe6565b60405180910390f35b3480156102b057600080fd5b506102cb60048036038101906102c69190610ea7565b610dd4565b6040516102d89190610eef565b60405180910390f35b6000600160009054906101000a900473ffffffffffffffffffffffffffffffffffffffff1673ffffffffffffffffffffffffffffffffffffffff168273ffffffffffffffffffffffffffffffffffffffff16149050919050565b600160009054906101000a900473ffffffffffffffffffffffffffffffffffffffff1673ffffffffffffffffffffffffffffffffffffffff163373ffffffffffffffffffffffffffffffffffffffff16146103cb576040517f08c379a00000000000000000000000000000000000000000000000000000000081526004016103c29061105e565b60405180910390fd5b600073ffffffffffffffffffffffffffffffffffffffff168173ffffffffffffffffffffffffffffffffffffffff160361043a576040517f08c379a0000000000000000000000000000000000000000000000000000000008152600401610431906110ca565b60405180910390fd5b6001600260008373ffffffffffffffffffffffffffffffffffffffff1673ffffffffffffffffffffffffffffffffffffffff16815260200190815260200160002060006101000a81548160ff0219169083151502179055508073ffffffffffffffffffffffffffffffffffffffff167fb710f7d3e79cb091613cfea70444ea824ad23f2b1297bdea427bc6f097e346a86040516104d690611136565b60405180910390a250565b60036020528060005260406000206000915090505481565b60008073ffffffffffffffffffffffffffffffffffffffff168273ffffffffffffffffffffffffffffffffffffffff1603610569576040517f08c379a0000000000000000000000000000000000000000000000000000000008152600401610560906110ca565b60405180910390fd5b600360008373ffffffffffffffffffffffffffffffffffffffff1673ffffffffffffffffffffffffffffffffffffffff168152602001908152602001600020549050919050565b600047905090565b6105c0610df4565b80600360003373ffffffffffffffffffffffffffffffffffffffff1673ffffffffffffffffffffffffffffffffffffffff168152602001908152602001600020541015610642576040517f08c379a0000000000000000000000000000000000000000000000000000000008152600401610639906111a2565b60405180910390fd5b80600360003373ffffffffffffffffffffffffffffffffffffffff1673ffffffffffffffffffffffffffffffffffffffff168152602001908152602001600020600082825461069191906111f1565b925050819055503373ffffffffffffffffffffffffffffffffffffffff166108fc829081150290604051600060405180830381858888f193505050501580156106de573d6000803e3d6000fd5b503373ffffffffffffffffffffffffffffffffffffffff167f39f149989df7459e67e6b6c4b3555f74903401b120bca9fa08d57650720cfc5c600360003373ffffffffffffffffffffffffffffffffffffffff1673ffffffffffffffffffffffffffffffffffffffff168152602001908152602001600020546040516107649190610f23565b60405180910390a2610774610e3a565b50565b600160009054906101000a900473ffffffffffffffffffffffffffffffffffffffff1673ffffffffffffffffffffffffffffffffffffffff163373ffffffffffffffffffffffffffffffffffffffff16148061081c5750600260003373ffffffffffffffffffffffffffffffffffffffff1673ffffffffffffffffffffffffffffffffffffffff16815260200190815260200160002060009054906101000a900460ff165b61085b576040517f08c379a000000000000000000000000000000000000000000000000000000000815260040161085290611297565b60405180910390fd5b610863610df4565b600073ffffffffffffffffffffffffffffffffffffffff168273ffffffffffffffffffffffffffffffffffffffff16036108d2576040517f08c379a00000000000000000000000000000000000000000000000000000000081526004016108c9906110ca565b60405180910390fd5b80600360008473ffffffffffffffffffffffffffffffffffffffff1673ffffffffffffffffffffffffffffffffffffffff168152602001908152602001600020541015610954576040517f08c379a000000000000000000000000000000000000000000000000000000000815260040161094b906111a2565b60405180910390fd5b80600360008473ffffffffffffffffffffffffffffffffffffffff1673ffffffffffffffffffffffffffffffffffffffff16815260200190815260200160002060008282546109a391906111f1565b925050819055503373ffffffffffffffffffffffffffffffffffffffff166108fc829081150290604051600060405180830381858888f193505050501580156109f0573d6000803e3d6000fd5b508173ffffffffffffffffffffffffffffffffffffffff167f39f149989df7459e67e6b6c4b3555f74903401b120bca9fa08d57650720cfc5c600360008573ffffffffffffffffffffffffffffffffffffffff1673ffffffffffffffffffffffffffffffffffffffff16815260200190815260200160002054604051610a769190610f23565b60405180910390a2610a86610e3a565b5050565b600160009054906101000a900473ffffffffffffffffffffffffffffffffffffffff1673ffffffffffffffffffffffffffffffffffffffff163373ffffffffffffffffffffffffffffffffffffffff1614610b1a576040517f08c379a0000000000000000000000000000000000000000000000000000000008152600401610b119061105e565b60405180910390fd5b600073ffffffffffffffffffffffffffffffffffffffff168173ffffffffffffffffffffffffffffffffffffffff1603610b89576040517f08c379a0000000000000000000000000000000000000000000000000000000008152600401610b80906110ca565b60405180910390fd5b6000600260008373ffffffffffffffffffffffffffffffffffffffff1673ffffffffffffffffffffffffffffffffffffffff16815260200190815260200160002060006101000a81548160ff0219169083151502179055508073ffffffffffffffffffffffffffffffffffffffff167f9f43a01c0d4ff5aff09b3b9b472df707ceefd3f948f8942f10fa1562a8921304604051610c2590611136565b60405180910390a250565b60003411610c73576040517f08c379a0000000000000000000000000000000000000000000000000000000008152600401610c6a90611303565b60405180910390fd5b34600360003373ffffffffffffffffffffffffffffffffffffffff1673ffffffffffffffffffffffffffffffffffffffff1681526020019081526020016000206000828254610cc29190611323565b925050819055503373ffffffffffffffffffffffffffffffffffffffff167f39f149989df7459e67e6b6c4b3555f74903401b120bca9fa08d57650720cfc5c600360003373ffffffffffffffffffffffffffffffffffffffff1673ffffffffffffffffffffffffffffffffffffffff16815260200190815260200160002054604051610d4e9190610f23565b60405180910390a2565b6000600260008373ffffffffffffffffffffffffffffffffffffffff1673ffffffffffffffffffffffffffffffffffffffff16815260200190815260200160002060009054906101000a900460ff169050919050565b600160009054906101000a900473ffffffffffffffffffffffffffffffffffffffff1681565b60026020528060005260406000206000915054906101000a900460ff1681565b600260005403610e30576040517f3ee5aeb500000000000000000000000000000000000000000000000000000000815260040160405180910390fd5b6002600081905550565b6001600081905550565b600080fd5b600073ffffffffffffffffffffffffffffffffffffffff82169050919050565b6000610e7482610e49565b9050919050565b610e8481610e69565b8114610e8f57600080fd5b50565b600081359050610ea181610e7b565b92915050565b600060208284031215610ebd57610ebc610e44565b5b6000610ecb84828501610e92565b91505092915050565b60008115159050919050565b610ee981610ed4565b82525050565b6000602082019050610f046000830184610ee0565b92915050565b6000819050919050565b610f1d81610f0a565b82525050565b6000602082019050610f386000830184610f14565b92915050565b610f4781610f0a565b8114610f5257600080fd5b50565b600081359050610f6481610f3e565b92915050565b600060208284031215610f8057610f7f610e44565b5b6000610f8e84828501610f55565b91505092915050565b60008060408385031215610fae57610fad610e44565b5b6000610fbc85828601610e92565b9250506020610fcd85828601610f55565b9150509250929050565b610fe081610e69565b82525050565b6000602082019050610ffb6000830184610fd7565b92915050565b600082825260208201905092915050565b7f4e6f7420617574686f72697a65643a2041646d696e206f6e6c79000000000000600082015250565b6000611048601a83611001565b915061105382611012565b602082019050919050565b600060208201905081810360008301526110778161103b565b9050919050565b7f5a65726f2061646472657373206e6f7420616c6c6f7765640000000000000000600082015250565b60006110b4601883611001565b91506110bf8261107e565b602082019050919050565b600060208201905081810360008301526110e3816110a7565b9050919050565b7f4d616e6167657200000000000000000000000000000000000000000000000000600082015250565b6000611120600783611001565b915061112b826110ea565b602082019050919050565b6000602082019050818103600083015261114f81611113565b9050919050565b7f496e73756666696369656e74207374616b650000000000000000000000000000600082015250565b600061118c601283611001565b915061119782611156565b602082019050919050565b600060208201905081810360008301526111bb8161117f565b9050919050565b7f4e487b7100000000000000000000000000000000000000000000000000000000600052601160045260246000fd5b60006111fc82610f0a565b915061120783610f0a565b925082820390508181111561121f5761121e6111c2565b5b92915050565b7f4e6f7420617574686f72697a65643a2041646d696e206f72204d616e6167657260008201527f206f6e6c79000000000000000000000000000000000000000000000000000000602082015250565b6000611281602583611001565b915061128c82611225565b604082019050919050565b600060208201905081810360008301526112b081611274565b9050919050565b7f5374616b65206d7573742062652067726561746572207468616e207a65726f00600082015250565b60006112ed601f83611001565b91506112f8826112b7565b602082019050919050565b6000602082019050818103600083015261131c816112e0565b9050919050565b600061132e82610f0a565b915061133983610f0a565b9250828201905080821115611351576113506111c2565b5b9291505056fea2646970667358221220e6da128cd33400a51d5be4e37f8eca93f86fb01621097631d2676b6afe77576964736f6c63430008180033",
  "linkReferences": {},
  "deployedLinkReferences": {}
}