{
  "_format": "hh-sol-artifact-1",
  "contractName": "RentalPayments",
  "sourceName": "contracts/RentalPayments.sol",
  "abi": [
    {
      "inputs": [],
      "stateMutability": "nonpayable",
      "type": "constructor"
    },
    {
      "inputs": [],
      "name": "ReentrancyGuardReentrantCall",
      "type": "error"
    },
    {
      "anonymous": false,
      "inputs": [
        {
          "indexed": false,
          "internalType": "uint256",
          "name": "newDisputePeriod",
          "type": "uint256"
        }
      ],
      "name": "DisputePeriodUpdated",
      "type": "event"
    },
    {
      "anonymous": false,
      "inputs": [
        {
          "indexed": false,
          "internalType": "uint256",
          "name": "bookingId",
          "type": "uint256"
        }
      ],
      "name": "DisputeRaised",
      "type": "event"
    },
    {
      "anonymous": false,
      "inputs": [
        {
          "indexed": false,
          "internalType": "uint256",
          "name": "bookingId",
          "type": "uint256"
        },
        {
          "indexed": false,
          "internalType": "bool",
          "name": "favorRenter",
          "type": "bool"
        }
      ],
      "name": "DisputeResolved",
      "type": "event"
    },
    {
      "anonymous": false,
      "inputs": [
        {
          "indexed": false,
          "internalType": "uint256",
          "name": "commission",
          "type": "uint256"
        },
        {
          "indexed": false,
          "internalType": "uint256",
          "name": "deposit",
          "type": "uint256"
        },
        {
          "indexed": false,
          "internalType": "uint256",
          "name": "hostPayment",
          "type": "uint256"
        }
      ],
      "name": "FeeStructureUpdated",
      "type": "event"
    },
    {
      "anonymous": false,
      "inputs": [
        {
          "indexed": false,
          "internalType": "uint256",
          "name": "bookingId",
          "type": "uint256"
        },
        {
          "indexed": true,
          "internalType": "address",
          "name": "owner",
          "type": "address"
        },
        {
          "indexed": false,
          "internalType": "uint256",
          "name": "amount",
          "type": "uint256"
        }
      ],
      "name": "GuestDepositClaimed",
      "type": "event"
    },
    {
      "anonymous": false,
      "inputs": [
        {
          "indexed": false,
          "internalType": "uint256",
          "name": "bookingId",
          "type": "uint256"
        },
        {
          "indexed": true,
          "internalType": "address",
          "name": "renter",
          "type": "address"
        },
        {
          "indexed": false,
          "internalType": "uint256",
          "name": "amount",
          "type": "uint256"
        }
      ],
      "name": "GuestDepositRefunded",
      "type": "event"
    },
    {
      "anonymous": false,
      "inputs": [
        {
          "indexed": false,
          "internalType": "uint256",
          "name": "bookingId",
          "type": "uint256"
        },
        {
          "indexed": true,
          "internalType": "address",
          "name": "renter",
          "type": "address"
        },
        {
          "indexed": false,
          "internalType": "uint256",
          "name": "amount",
          "type": "uint256"
        },
        {
          "indexed": false,
          "internalType": "uint256",
          "name": "guestDeposit",
          "type": "uint256"
        }
      ],
      "name": "PaymentInitiated",
      "type": "event"
    },
    {
      "anonymous": false,
      "inputs": [
        {
          "indexed": false,
          "internalType": "uint256",
          "name": "bookingId",
          "type": "uint256"
        },
        {
          "indexed": true,
          "internalType": "address",
          "name": "owner",
          "type": "address"
        },
        {
          "indexed": false,
          "internalType": "uint256",
          "name": "amount",
          "type": "uint256"
        }
      ],
      "name": "PaymentReleased",
      "type": "event"
    },
    {
      "anonymous": false,
      "inputs": [
        {
          "indexed": true,
          "internalType": "address",
          "name": "account",
          "type": "address"
        },
        {
          "indexed": false,
          "internalType": "string",
          "name": "role",
          "type": "string"
        }
      ],
      "name": "RoleGranted",
      "type": "event"
    },
    {
      "anonymous": false,
      "inputs": [
        {
          "indexed": true,
          "internalType": "address",
          "name": "account",
          "type": "address"
        },
        {
          "indexed": false,
          "internalType": "string",
          "name": "role",
          "type": "string"
        }
      ],
      "name": "RoleRevoked",
      "type": "event"
    },
    {
      "inputs": [],
      "name": "admin",
      "outputs": [
        {
          "internalType": "address",
          "name": "",
          "type": "address"
        }
      ],
      "stateMutability": "view",
      "type": "function"
    },
    {
      "inputs": [],
      "name": "bookingCounter",
      "outputs": [
        {
          "internalType": "uint256",
          "name": "",
          "type": "uint256"
        }
      ],
      "stateMutability": "view",
      "type": "function"
    },
    {
      "inputs": [
        {
          "internalType": "uint256",
          "name": "",
          "type": "uint256"
        }
      ],
      "name": "bookings",
      "outputs": [
        {
          "internalType": "address",
          "name": "renter",
          "type": "address"
        },
        {
          "internalType": "address",
          "name": "owner",
          "type": "address"
        },
        {
          "internalType": "uint256",
          "name": "amount",
          "type": "uint256"
        },
        {
          "internalType": "uint256",
          "name": "guestDeposit",
          "type": "uint256"
        },
        {
          "internalType": "uint256",
          "name": "startTime",
          "type": "uint256"
        },
        {
          "internalType": "uint256",
          "name": "endTime",
          "type": "uint256"
        },
        {
          "internalType": "bool",
          "name": "isDisputeRaised",
          "type": "bool"
        },
        {
          "internalType": "bool",
          "name": "isResolved",
          "type": "bool"
        }
      ],
      "stateMutability": "view",
      "type": "function"
    },
    {
      "inputs": [
        {
          "internalType": "uint256",
          "name": "bookingId",
          "type": "uint256"
        },
        {
          "internalType": "uint256",
          "name": "amount",
          "type": "uint256"
        }
      ],
      "name": "claimGuestDeposit",
      "outputs": [],
      "stateMutability": "nonpayable",
      "type": "function"
    },
    {
      "inputs": [],
      "name": "commissionPercentage",
      "outputs": [
        {
          "internalType": "uint256",
          "name": "",
          "type": "uint256"
        }
      ],
      "stateMutability": "view",
      "type": "function"
    },
    {
      "inputs": [],
      "name": "depositPercentage",
      "outputs": [
        {
          "internalType": "uint256",
          "name": "",
          "type": "uint256"
        }
      ],
      "stateMutability": "view",
      "type": "function"
    },
    {
      "inputs": [],
      "name": "disputePeriod",
      "outputs": [
        {
          "internalType": "uint256",
          "name": "",
          "type": "uint256"
        }
      ],
      "stateMutability": "view",
      "type": "function"
    },
    {
      "inputs": [],
      "name": "getAllRentalPayments",
      "outputs": [
        {
          "components": [
            {
              "internalType": "address",
              "name": "renter",
              "type": "address"
            },
            {
              "internalType": "address",
              "name": "owner",
              "type": "address"
            },
            {
              "internalType": "uint256",
              "name": "amount",
              "type": "uint256"
            },
            {
              "internalType": "uint256",
              "name": "guestDeposit",
              "type": "uint256"
            },
            {
              "internalType": "uint256",
              "name": "startTime",
              "type": "uint256"
            },
            {
              "internalType": "uint256",
              "name": "endTime",
              "type": "uint256"
            },
            {
              "internalType": "bool",
              "name": "isDisputeRaised",
              "type": "bool"
            },
            {
              "internalType": "bool",
              "name": "isResolved",
              "type": "bool"
            }
          ],
          "internalType": "struct RentalPayments.Booking[]",
          "name": "",
          "type": "tuple[]"
        }
      ],
      "stateMutability": "view",
      "type": "function"
    },
    {
      "inputs": [
        {
          "internalType": "address",
          "name": "account",
          "type": "address"
        }
      ],
      "name": "grantManagerRole",
      "outputs": [],
      "stateMutability": "nonpayable",
      "type": "function"
    },
    {
      "inputs": [],
      "name": "hostPaymentPercentage",
      "outputs": [
        {
          "internalType": "uint256",
          "name": "",
          "type": "uint256"
        }
      ],
      "stateMutability": "view",
      "type": "function"
    },
    {
      "inputs": [
        {
          "internalType": "address",
          "name": "owner",
          "type": "address"
        },
        {
          "internalType": "uint256",
          "name": "startTime",
          "type": "uint256"
        },
        {
          "internalType": "uint256",
          "name": "endTime",
          "type": "uint256"
        }
      ],
      "name": "initiatePayment",
      "outputs": [],
      "stateMutability": "payable",
      "type": "function"
    },
    {
      "inputs": [
        {
          "internalType": "address",
          "name": "",
          "type": "address"
        }
      ],
      "name": "managers",
      "outputs": [
        {
          "internalType": "bool",
          "name": "",
          "type": "bool"
        }
      ],
      "stateMutability": "view",
      "type": "function"
    },
    {
      "inputs": [
        {
          "internalType": "uint256",
          "name": "bookingId",
          "type": "uint256"
        }
      ],
      "name": "raiseDispute",
      "outputs": [],
      "stateMutability": "nonpayable",
      "type": "function"
    },
    {
      "inputs": [
        {
          "internalType": "uint256",
          "name": "bookingId",
          "type": "uint256"
        }
      ],
      "name": "refundGuestDeposit",
      "outputs": [],
      "stateMutability": "nonpayable",
      "type": "function"
    },
    {
      "inputs": [
        {
          "internalType": "uint256",
          "name": "bookingId",
          "type": "uint256"
        },
        {
          "internalType": "bool",
          "name": "refundDeposit",
          "type": "bool"
        }
      ],
      "name": "releasePayment",
      "outputs": [],
      "stateMutability": "nonpayable",
      "type": "function"
    },
    {
      "inputs": [
        {
          "internalType": "uint256",
          "name": "bookingId",
          "type": "uint256"
        },
        {
          "internalType": "bool",
          "name": "favorRenter",
          "type": "bool"
        },
        {
          "internalType": "bool",
          "name": "refundDeposit",
          "type": "bool"
        }
      ],
      "name": "resolveDispute",
      "outputs": [],
      "stateMutability": "nonpayable",
      "type": "function"
    },
    {
      "inputs": [
        {
          "internalType": "address",
          "name": "account",
          "type": "address"
        }
      ],
      "name": "revokeManagerRole",
      "outputs": [],
      "stateMutability": "nonpayable",
      "type": "function"
    },
    {
      "inputs": [
        {
          "internalType": "uint256",
          "name": "_disputePeriod",
          "type": "uint256"
        }
      ],
      "name": "updateDisputePeriod",
      "outputs": [],
      "stateMutability": "nonpayable",
      "type": "function"
    },
    {
      "inputs": [
        {
          "internalType": "uint256",
          "name": "_commissionPercentage",
          "type": "uint256"
        },
        {
          "internalType": "uint256",
          "name": "_depositPercentage",
          "type": "uint256"
        },
        {
          "internalType": "uint256",
          "name": "_hostPaymentPercentage",
          "type": "uint256"
        }
      ],
      "name": "updateFeeStructure",
      "outputs": [],
      "stateMutability": "nonpayable",
      "type": "function"
    }
  ],
  "bytecode": "0x608060405260056003556005600455605a60055562093a8060065534801561002657600080fd5b50600160008190555033600160006101000a81548173ffffffffffffffffffffffffffffffffffffffff021916908373ffffffffffffffffffffffffffffffffffffffff16021790555061306b8061007f6000396000f3fe6080604052600436106101145760003560e01c8063b2a592e8116100a0578063d575fe6411610064578063d575fe641461036d578063db65ae8814610398578063e4ae4d2e146103c1578063f851a440146103ec578063fdff9b4d1461041757610114565b8063b2a592e8146102a9578063bb2272a9146102d2578063be4dc94f146102fd578063cd856c7414610326578063d287ac421461034257610114565b80632e33b625116100e75780632e33b625146101da57806351b4d5e8146102035780635bf31d4d1461022c578063827db85f14610257578063a5c1674e1461028057610114565b806306e652dd146101195780630c3562ba146101425780631dab301e1461016d57806326e885e3146101b1575b600080fd5b34801561012557600080fd5b50610140600480360381019061013b91906120ac565b610454565b005b34801561014e57600080fd5b50610157610568565b60405161016491906120e8565b60405180910390f35b34801561017957600080fd5b50610194600480360381019061018f91906120ac565b61056e565b6040516101a898979695949392919061215f565b60405180910390f35b3480156101bd57600080fd5b506101d860048036038101906101d39190612209565b610610565b005b3480156101e657600080fd5b5061020160048036038101906101fc91906120ac565b6107b6565b005b34801561020f57600080fd5b5061022a60048036038101906102259190612262565b6109b8565b005b34801561023857600080fd5b50610241610eaf565b60405161024e91906120e8565b60405180910390f35b34801561026357600080fd5b5061027e600480360381019061027991906122a2565b610eb5565b005b34801561028c57600080fd5b506102a760048036038101906102a291906120ac565b6112a3565b005b3480156102b557600080fd5b506102d060048036038101906102cb91906122f5565b611490565b005b3480156102de57600080fd5b506102e76115ce565b6040516102f491906124c7565b60405180910390f35b34801561030957600080fd5b50610324600480360381019061031f9190612209565b6117a8565b005b610340600480360381019061033b91906124e9565b61194e565b005b34801561034e57600080fd5b50610357611d03565b60405161036491906120e8565b60405180910390f35b34801561037957600080fd5b50610382611d09565b60405161038f91906120e8565b60405180910390f35b3480156103a457600080fd5b506103bf60048036038101906103ba919061253c565b611d0f565b005b3480156103cd57600080fd5b506103d6611f60565b6040516103e391906120e8565b60405180910390f35b3480156103f857600080fd5b50610401611f66565b60405161040e919061257c565b60405180910390f35b34801561042357600080fd5b5061043e60048036038101906104399190612209565b611f8c565b60405161044b9190612597565b60405180910390f35b600160009054906101000a900473ffffffffffffffffffffffffffffffffffffffff1673ffffffffffffffffffffffffffffffffffffffff163373ffffffffffffffffffffffffffffffffffffffff16146104e4576040517f08c379a00000000000000000000000000000000000000000000000000000000081526004016104db9061260f565b60405180910390fd5b60008111610527576040517f08c379a000000000000000000000000000000000000000000000000000000000815260040161051e906126a1565b60405180910390fd5b806006819055507fa07016194ad6cf69ce63d15e6172d7d8bff3221f58442571a1f4b14b202ee6f98160405161055d91906120e8565b60405180910390a150565b60045481565b60076020528060005260406000206000915090508060000160009054906101000a900473ffffffffffffffffffffffffffffffffffffffff16908060010160009054906101000a900473ffffffffffffffffffffffffffffffffffffffff16908060020154908060030154908060040154908060050154908060060160009054906101000a900460ff16908060060160019054906101000a900460ff16905088565b600160009054906101000a900473ffffffffffffffffffffffffffffffffffffffff1673ffffffffffffffffffffffffffffffffffffffff163373ffffffffffffffffffffffffffffffffffffffff16146106a0576040517f08c379a00000000000000000000000000000000000000000000000000000000081526004016106979061260f565b60405180910390fd5b600073ffffffffffffffffffffffffffffffffffffffff168173ffffffffffffffffffffffffffffffffffffffff160361070f576040517f08c379a00000000000000000000000000000000000000000000000000000000081526004016107069061270d565b60405180910390fd5b6001600260008373ffffffffffffffffffffffffffffffffffffffff1673ffffffffffffffffffffffffffffffffffffffff16815260200190815260200160002060006101000a81548160ff0219169083151502179055508073ffffffffffffffffffffffffffffffffffffffff167fb710f7d3e79cb091613cfea70444ea824ad23f2b1297bdea427bc6f097e346a86040516107ab90612779565b60405180910390a250565b600160009054906101000a900473ffffffffffffffffffffffffffffffffffffffff1673ffffffffffffffffffffffffffffffffffffffff163373ffffffffffffffffffffffffffffffffffffffff16148061085b5750600260003373ffffffffffffffffffffffffffffffffffffffff1673ffffffffffffffffffffffffffffffffffffffff16815260200190815260200160002060009054906101000a900460ff165b61089a576040517f08c379a00000000000000000000000000000000000000000000000000000000081526004016108919061280b565b60405180910390fd5b6108a2611fac565b6000600760008381526020019081526020016000209050600081600301549050600082600301819055508160000160009054906101000a900473ffffffffffffffffffffffffffffffffffffffff1673ffffffffffffffffffffffffffffffffffffffff166108fc829081150290604051600060405180830381858888f19350505050158015610936573d6000803e3d6000fd5b508160000160009054906101000a900473ffffffffffffffffffffffffffffffffffffffff1673ffffffffffffffffffffffffffffffffffffffff167f984943a1674ba9f99b1bf6f36a72bf142dcb0c5beb910338a16430ed3989c85084836040516109a392919061282b565b60405180910390a250506109b5611ff2565b50565b600160009054906101000a900473ffffffffffffffffffffffffffffffffffffffff1673ffffffffffffffffffffffffffffffffffffffff163373ffffffffffffffffffffffffffffffffffffffff161480610a5d5750600260003373ffffffffffffffffffffffffffffffffffffffff1673ffffffffffffffffffffffffffffffffffffffff16815260200190815260200160002060009054906101000a900460ff165b610a9c576040517f08c379a0000000000000000000000000000000000000000000000000000000008152600401610a939061280b565b60405180910390fd5b610aa4611fac565b60006007600084815260200190815260200160002090506006548160050154610acd9190612883565b4211610b0e576040517f08c379a0000000000000000000000000000000000000000000000000000000008152600401610b0590612903565b60405180910390fd5b8060060160009054906101000a900460ff1615610b60576040517f08c379a0000000000000000000000000000000000000000000000000000000008152600401610b579061296f565b60405180910390fd5b8060060160019054906101000a900460ff1615610bb2576040517f08c379a0000000000000000000000000000000000000000000000000000000008152600401610ba9906129db565b60405180910390fd5b60018160060160016101000a81548160ff0219169083151502179055508060010160009054906101000a900473ffffffffffffffffffffffffffffffffffffffff1673ffffffffffffffffffffffffffffffffffffffff166108fc82600201549081150290604051600060405180830381858888f19350505050158015610c3d573d6000803e3d6000fd5b508060010160009054906101000a900473ffffffffffffffffffffffffffffffffffffffff1673ffffffffffffffffffffffffffffffffffffffff167f21d71db5be59bb9fa133895586b7404307dd33fb93b16db09dc6f1d9d7d231b0848360020154604051610cae92919061282b565b60405180910390a2600081600301541115610ea257600081600301549050600082600301819055508215610dc0578160000160009054906101000a900473ffffffffffffffffffffffffffffffffffffffff1673ffffffffffffffffffffffffffffffffffffffff166108fc829081150290604051600060405180830381858888f19350505050158015610d46573d6000803e3d6000fd5b508160000160009054906101000a900473ffffffffffffffffffffffffffffffffffffffff1673ffffffffffffffffffffffffffffffffffffffff167f984943a1674ba9f99b1bf6f36a72bf142dcb0c5beb910338a16430ed3989c8508583604051610db392919061282b565b60405180910390a2610ea0565b8160010160009054906101000a900473ffffffffffffffffffffffffffffffffffffffff1673ffffffffffffffffffffffffffffffffffffffff166108fc829081150290604051600060405180830381858888f19350505050158015610e2a573d6000803e3d6000fd5b508160010160009054906101000a900473ffffffffffffffffffffffffffffffffffffffff1673ffffffffffffffffffffffffffffffffffffffff167f92239b9290291b938a8cf6d9ddd73fd11f7e869cf1d99dd5c9433be9f0a5549e8583604051610e9792919061282b565b60405180910390a25b505b50610eab611ff2565b5050565b60065481565b600160009054906101000a900473ffffffffffffffffffffffffffffffffffffffff1673ffffffffffffffffffffffffffffffffffffffff163373ffffffffffffffffffffffffffffffffffffffff161480610f5a5750600260003373ffffffffffffffffffffffffffffffffffffffff1673ffffffffffffffffffffffffffffffffffffffff16815260200190815260200160002060009054906101000a900460ff165b610f99576040517f08c379a0000000000000000000000000000000000000000000000000000000008152600401610f909061280b565b60405180910390fd5b610fa1611fac565b60006007600085815260200190815260200160002090508060060160009054906101000a900460ff16611009576040517f08c379a000000000000000000000000000000000000000000000000000000000815260040161100090612a47565b60405180910390fd5b8060060160019054906101000a900460ff161561105b576040517f08c379a000000000000000000000000000000000000000000000000000000000815260040161105290612ab3565b60405180910390fd5b60018160060160016101000a81548160ff02191690831515021790555082156110f2578060000160009054906101000a900473ffffffffffffffffffffffffffffffffffffffff1673ffffffffffffffffffffffffffffffffffffffff166108fc82600201549081150290604051600060405180830381858888f193505050501580156110ec573d6000803e3d6000fd5b50611162565b8060010160009054906101000a900473ffffffffffffffffffffffffffffffffffffffff1673ffffffffffffffffffffffffffffffffffffffff166108fc82600201549081150290604051600060405180830381858888f19350505050158015611160573d6000803e3d6000fd5b505b811561125c57600081600301549050600082600301819055508160000160009054906101000a900473ffffffffffffffffffffffffffffffffffffffff1673ffffffffffffffffffffffffffffffffffffffff166108fc829081150290604051600060405180830381858888f193505050501580156111e5573d6000803e3d6000fd5b508160000160009054906101000a900473ffffffffffffffffffffffffffffffffffffffff1673ffffffffffffffffffffffffffffffffffffffff167f984943a1674ba9f99b1bf6f36a72bf142dcb0c5beb910338a16430ed3989c850868360405161125292919061282b565b60405180910390a2505b7f5a87909bff68caaaaf0b3fd9c74eeccc928832f879315e5c6fb7a73612f26c0c848460405161128d929190612ad3565b60405180910390a15061129e611ff2565b505050565b60006007600083815260200190815260200160002090508060000160009054906101000a900473ffffffffffffffffffffffffffffffffffffffff1673ffffffffffffffffffffffffffffffffffffffff163373ffffffffffffffffffffffffffffffffffffffff161461134c576040517f08c379a000000000000000000000000000000000000000000000000000000000815260040161134390612b48565b60405180910390fd5b80600501544211611392576040517f08c379a000000000000000000000000000000000000000000000000000000000815260040161138990612bb4565b60405180910390fd5b60065481600501546113a49190612883565b4211156113e6576040517f08c379a00000000000000000000000000000000000000000000000000000000081526004016113dd90612c20565b60405180910390fd5b8060060160009054906101000a900460ff1615611438576040517f08c379a000000000000000000000000000000000000000000000000000000000815260040161142f90612c8c565b60405180910390fd5b60018160060160006101000a81548160ff0219169083151502179055507f04901f83201c8724eadf084436db8aa391820bae6d11f9f78a17edb6f2eef3cf8260405161148491906120e8565b60405180910390a15050565b600160009054906101000a900473ffffffffffffffffffffffffffffffffffffffff1673ffffffffffffffffffffffffffffffffffffffff163373ffffffffffffffffffffffffffffffffffffffff1614611520576040517f08c379a00000000000000000000000000000000000000000000000000000000081526004016115179061260f565b60405180910390fd5b606481838561152f9190612883565b6115399190612883565b14611579576040517f08c379a000000000000000000000000000000000000000000000000000000000815260040161157090612cf8565b60405180910390fd5b8260038190555081600481905550806005819055507f4ea41a1a0288eec0ee06e5b2516ff8c82c05e21a866ba0ee13c7669a555297188383836040516115c193929190612d18565b60405180910390a1505050565b6060600060085467ffffffffffffffff8111156115ee576115ed612d4f565b5b60405190808252806020026020018201604052801561162757816020015b611614611ffc565b81526020019060019003908161160c5790505b5090506000600190505b60085481116117a05760076000828152602001908152602001600020604051806101000160405290816000820160009054906101000a900473ffffffffffffffffffffffffffffffffffffffff1673ffffffffffffffffffffffffffffffffffffffff1673ffffffffffffffffffffffffffffffffffffffff1681526020016001820160009054906101000a900473ffffffffffffffffffffffffffffffffffffffff1673ffffffffffffffffffffffffffffffffffffffff1673ffffffffffffffffffffffffffffffffffffffff168152602001600282015481526020016003820154815260200160048201548152602001600582015481526020016006820160009054906101000a900460ff161515151581526020016006820160019054906101000a900460ff161515151581525050826001836117719190612d7e565b8151811061178257611781612db2565b5b6020026020010181905250808061179890612de1565b915050611631565b508091505090565b600160009054906101000a900473ffffffffffffffffffffffffffffffffffffffff1673ffffffffffffffffffffffffffffffffffffffff163373ffffffffffffffffffffffffffffffffffffffff1614611838576040517f08c379a000000000000000000000000000000000000000000000000000000000815260040161182f9061260f565b60405180910390fd5b600073ffffffffffffffffffffffffffffffffffffffff168173ffffffffffffffffffffffffffffffffffffffff16036118a7576040517f08c379a000000000000000000000000000000000000000000000000000000000815260040161189e9061270d565b60405180910390fd5b6000600260008373ffffffffffffffffffffffffffffffffffffffff1673ffffffffffffffffffffffffffffffffffffffff16815260200190815260200160002060006101000a81548160ff0219169083151502179055508073ffffffffffffffffffffffffffffffffffffffff167f9f43a01c0d4ff5aff09b3b9b472df707ceefd3f948f8942f10fa1562a892130460405161194390612779565b60405180910390a250565b611956611fac565b60003411611999576040517f08c379a000000000000000000000000000000000000000000000000000000000815260040161199090612e75565b60405180910390fd5b600073ffffffffffffffffffffffffffffffffffffffff168373ffffffffffffffffffffffffffffffffffffffff1603611a08576040517f08c379a00000000000000000000000000000000000000000000000000000000081526004016119ff9061270d565b60405180910390fd5b818111611a4a576040517f08c379a0000000000000000000000000000000000000000000000000000000008152600401611a4190612f07565b60405180910390fd5b6000606460035434611a5c9190612f27565b611a669190612f98565b90506000606460055434611a7a9190612f27565b611a849190612f98565b90506000606460045434611a989190612f27565b611aa29190612f98565b9050600160009054906101000a900473ffffffffffffffffffffffffffffffffffffffff1673ffffffffffffffffffffffffffffffffffffffff166108fc849081150290604051600060405180830381858888f19350505050158015611b0c573d6000803e3d6000fd5b5060086000815480929190611b2090612de1565b91905055506040518061010001604052803373ffffffffffffffffffffffffffffffffffffffff1681526020018773ffffffffffffffffffffffffffffffffffffffff1681526020018381526020018281526020018681526020018581526020016000151581526020016000151581525060076000600854815260200190815260200160002060008201518160000160006101000a81548173ffffffffffffffffffffffffffffffffffffffff021916908373ffffffffffffffffffffffffffffffffffffffff16021790555060208201518160010160006101000a81548173ffffffffffffffffffffffffffffffffffffffff021916908373ffffffffffffffffffffffffffffffffffffffff16021790555060408201518160020155606082015181600301556080820151816004015560a0820151816005015560c08201518160060160006101000a81548160ff02191690831515021790555060e08201518160060160016101000a81548160ff0219169083151502179055509050503373ffffffffffffffffffffffffffffffffffffffff167f3a9074b40264639fb0c24983df758fcf677f76a06a50e0a1c763326a04e07c236008548484604051611ceb93929190612d18565b60405180910390a2505050611cfe611ff2565b505050565b60085481565b60035481565b600160009054906101000a900473ffffffffffffffffffffffffffffffffffffffff1673ffffffffffffffffffffffffffffffffffffffff163373ffffffffffffffffffffffffffffffffffffffff161480611db45750600260003373ffffffffffffffffffffffffffffffffffffffff1673ffffffffffffffffffffffffffffffffffffffff16815260200190815260200160002060009054906101000a900460ff165b611df3576040517f08c379a0000000000000000000000000000000000000000000000000000000008152600401611dea9061280b565b60405180910390fd5b611dfb611fac565b60006007600084815260200190815260200160002090508060030154821115611e59576040517f08c379a0000000000000000000000000000000000000000000000000000000008152600401611e5090613015565b60405180910390fd5b81816003016000828254611e6d9190612d7e565b925050819055508060010160009054906101000a900473ffffffffffffffffffffffffffffffffffffffff1673ffffffffffffffffffffffffffffffffffffffff166108fc839081150290604051600060405180830381858888f19350505050158015611ede573d6000803e3d6000fd5b508060010160009054906101000a900473ffffffffffffffffffffffffffffffffffffffff1673ffffffffffffffffffffffffffffffffffffffff167f92239b9290291b938a8cf6d9ddd73fd11f7e869cf1d99dd5c9433be9f0a5549e8484604051611f4b92919061282b565b60405180910390a250611f5c611ff2565b5050565b60055481565b600160009054906101000a900473ffffffffffffffffffffffffffffffffffffffff1681565b60026020528060005260406000206000915054906101000a900460ff1681565b600260005403611fe8576040517f3ee5aeb500000000000000000000000000000000000000000000000000000000815260040160405180910390fd5b6002600081905550565b6001600081905550565b604051806101000160405280600073ffffffffffffffffffffffffffffffffffffffff168152602001600073ffffffffffffffffffffffffffffffffffffffff168152602001600081526020016000815260200160008152602001600081526020016000151581526020016000151581525090565b600080fd5b6000819050919050565b61208981612076565b811461209457600080fd5b50565b6000813590506120a681612080565b92915050565b6000602082840312156120c2576120c1612071565b5b60006120d084828501612097565b91505092915050565b6120e281612076565b82525050565b60006020820190506120fd60008301846120d9565b92915050565b600073ffffffffffffffffffffffffffffffffffffffff82169050919050565b600061212e82612103565b9050919050565b61213e81612123565b82525050565b60008115159050919050565b61215981612144565b82525050565b600061010082019050612175600083018b612135565b612182602083018a612135565b61218f60408301896120d9565b61219c60608301886120d9565b6121a960808301876120d9565b6121b660a08301866120d9565b6121c360c0830185612150565b6121d060e0830184612150565b9998505050505050505050565b6121e681612123565b81146121f157600080fd5b50565b600081359050612203816121dd565b92915050565b60006020828403121561221f5761221e612071565b5b600061222d848285016121f4565b91505092915050565b61223f81612144565b811461224a57600080fd5b50565b60008135905061225c81612236565b92915050565b6000806040838503121561227957612278612071565b5b600061228785828601612097565b92505060206122988582860161224d565b9150509250929050565b6000806000606084860312156122bb576122ba612071565b5b60006122c986828701612097565b93505060206122da8682870161224d565b92505060406122eb8682870161224d565b9150509250925092565b60008060006060848603121561230e5761230d612071565b5b600061231c86828701612097565b935050602061232d86828701612097565b925050604061233e86828701612097565b9150509250925092565b600081519050919050565b600082825260208201905092915050565b6000819050602082019050919050565b61237d81612123565b82525050565b61238c81612076565b82525050565b61239b81612144565b82525050565b610100820160008201516123b86000850182612374565b5060208201516123cb6020850182612374565b5060408201516123de6040850182612383565b5060608201516123f16060850182612383565b5060808201516124046080850182612383565b5060a082015161241760a0850182612383565b5060c082015161242a60c0850182612392565b5060e082015161243d60e0850182612392565b50505050565b600061244f83836123a1565b6101008301905092915050565b6000602082019050919050565b600061247482612348565b61247e8185612353565b935061248983612364565b8060005b838110156124ba5781516124a18882612443565b97506124ac8361245c565b92505060018101905061248d565b5085935050505092915050565b600060208201905081810360008301526124e18184612469565b905092915050565b60008060006060848603121561250257612501612071565b5b6000612510868287016121f4565b935050602061252186828701612097565b925050604061253286828701612097565b9150509250925092565b6000806040838503121561255357612552612071565b5b600061256185828601612097565b925050602061257285828601612097565b9150509250929050565b60006020820190506125916000830184612135565b92915050565b60006020820190506125ac6000830184612150565b92915050565b600082825260208201905092915050565b7f4e6f7420617574686f72697a65643a2041646d696e206f6e6c79000000000000600082015250565b60006125f9601a836125b2565b9150612604826125c3565b602082019050919050565b60006020820190508181036000830152612628816125ec565b9050919050565b7f4469737075746520706572696f64206d7573742062652067726561746572207460008201527f68616e2030000000000000000000000000000000000000000000000000000000602082015250565b600061268b6025836125b2565b91506126968261262f565b604082019050919050565b600060208201905081810360008301526126ba8161267e565b9050919050565b7f5a65726f2061646472657373206e6f7420616c6c6f7765640000000000000000600082015250565b60006126f76018836125b2565b9150612702826126c1565b602082019050919050565b60006020820190508181036000830152612726816126ea565b9050919050565b7f4d616e6167657200000000000000000000000000000000000000000000000000600082015250565b60006127636007836125b2565b915061276e8261272d565b602082019050919050565b6000602082019050818103600083015261279281612756565b9050919050565b7f4e6f7420617574686f72697a65643a2041646d696e206f72204d616e6167657260008201527f206f6e6c79000000000000000000000000000000000000000000000000000000602082015250565b60006127f56025836125b2565b915061280082612799565b604082019050919050565b60006020820190508181036000830152612824816127e8565b9050919050565b600060408201905061284060008301856120d9565b61284d60208301846120d9565b9392505050565b7f4e487b7100000000000000000000000000000000000000000000000000000000600052601160045260246000fd5b600061288e82612076565b915061289983612076565b92508282019050808211156128b1576128b0612854565b5b92915050565b7f4469737075746520706572696f64206e6f7420656e6465640000000000000000600082015250565b60006128ed6018836125b2565b91506128f8826128b7565b602082019050919050565b6000602082019050818103600083015261291c816128e0565b9050919050565b7f4469737075746520726169736564000000000000000000000000000000000000600082015250565b6000612959600e836125b2565b915061296482612923565b602082019050919050565b600060208201905081810360008301526129888161294c565b9050919050565b7f416c72656164792072656c656173656400000000000000000000000000000000600082015250565b60006129c56010836125b2565b91506129d08261298f565b602082019050919050565b600060208201905081810360008301526129f4816129b8565b9050919050565b7f4e6f206469737075746520726169736564000000000000000000000000000000600082015250565b6000612a316011836125b2565b9150612a3c826129fb565b602082019050919050565b60006020820190508181036000830152612a6081612a24565b9050919050565b7f416c7265616479207265736f6c76656400000000000000000000000000000000600082015250565b6000612a9d6010836125b2565b9150612aa882612a67565b602082019050919050565b60006020820190508181036000830152612acc81612a90565b9050919050565b6000604082019050612ae860008301856120d9565b612af56020830184612150565b9392505050565b7f4f6e6c792072656e7465722063616e2072616973652061206469737075746500600082015250565b6000612b32601f836125b2565b9150612b3d82612afc565b602082019050919050565b60006020820190508181036000830152612b6181612b25565b9050919050565b7f426f6f6b696e67206e6f7420656e646564000000000000000000000000000000600082015250565b6000612b9e6011836125b2565b9150612ba982612b68565b602082019050919050565b60006020820190508181036000830152612bcd81612b91565b9050919050565b7f4469737075746520706572696f6420656e646564000000000000000000000000600082015250565b6000612c0a6014836125b2565b9150612c1582612bd4565b602082019050919050565b60006020820190508181036000830152612c3981612bfd565b9050919050565b7f416c726561647920646973707574656400000000000000000000000000000000600082015250565b6000612c766010836125b2565b9150612c8182612c40565b602082019050919050565b60006020820190508181036000830152612ca581612c69565b9050919050565b7f50657263656e7461676573206d7573742073756d20746f203130300000000000600082015250565b6000612ce2601b836125b2565b9150612ced82612cac565b602082019050919050565b60006020820190508181036000830152612d1181612cd5565b9050919050565b6000606082019050612d2d60008301866120d9565b612d3a60208301856120d9565b612d4760408301846120d9565b949350505050565b7f4e487b7100000000000000000000000000000000000000000000000000000000600052604160045260246000fd5b6000612d8982612076565b9150612d9483612076565b9250828203905081811115612dac57612dab612854565b5b92915050565b7f4e487b7100000000000000000000000000000000000000000000000000000000600052603260045260246000fd5b6000612dec82612076565b91507fffffffffffffffffffffffffffffffffffffffffffffffffffffffffffffffff8203612e1e57612e1d612854565b5b600182019050919050565b7f5061796d656e74206d7573742062652067726561746572207468616e20300000600082015250565b6000612e5f601e836125b2565b9150612e6a82612e29565b602082019050919050565b60006020820190508181036000830152612e8e81612e52565b9050919050565b7f456e642074696d65206d7573742062652061667465722073746172742074696d60008201527f6500000000000000000000000000000000000000000000000000000000000000602082015250565b6000612ef16021836125b2565b9150612efc82612e95565b604082019050919050565b60006020820190508181036000830152612f2081612ee4565b9050919050565b6000612f3282612076565b9150612f3d83612076565b9250828202612f4b81612076565b91508282048414831517612f6257612f61612854565b5b5092915050565b7f4e487b7100000000000000000000000000000000000000000000000000000000600052601260045260246000fd5b6000612fa382612076565b9150612fae83612076565b925082612fbe57612fbd612f69565b5b828204905092915050565b7f43616e6e6f7420636c61696d206d6f7265207468616e206465706f7369740000600082015250565b6000612fff601e836125b2565b915061300a82612fc9565b602082019050919050565b6000602082019050818103600083015261302e81612ff2565b905091905056fea2646970667358221220af517bc4349f444cb793d8bfd198a27ea0fe05c8404fbdce1a5a89cee515cc8964736f6c63430008180033",
  "linkReferences": {},
  "deployedLinkReferences": {}
}