{
  "_format": "hh-sol-artifact-1",
  "contractName": "RentalPayments",
  "sourceName": "contracts/RentalPayments.sol",
  "abi": [
    {
      "inputs": [],
      "stateMutability": "nonpayable",
      "type": "constructor"
    },
    {
      "inputs": [],
      "name": "ReentrancyGuardReentrantCall",
      "type": "error"
    },
    {
      "anonymous": false,
      "inputs": [
        {
          "indexed": false,
          "internalType": "uint256",
          "name": "bookingId",
          "type": "uint256"
        },
        {
          "indexed": false,
          "internalType": "address",
          "name": "cancelledBy",
          "type": "address"
        },
        {
          "indexed": true,
          "internalType": "address",
          "name": "renter",
          "type": "address"
        },
        {
          "indexed": true,
          "internalType": "address",
          "name": "owner",
          "type": "address"
        },
        {
          "indexed": false,
          "internalType": "uint256",
          "name": "refundAmount",
          "type": "uint256"
        }
      ],
      "name": "BookingCancelled",
      "type": "event"
    },
    {
      "anonymous": false,
      "inputs": [
        {
          "indexed": false,
          "internalType": "uint256",
          "name": "newDisputePeriod",
          "type": "uint256"
        }
      ],
      "name": "DisputePeriodUpdated",
      "type": "event"
    },
    {
      "anonymous": false,
      "inputs": [
        {
          "indexed": false,
          "internalType": "uint256",
          "name": "bookingId",
          "type": "uint256"
        }
      ],
      "name": "DisputeRaised",
      "type": "event"
    },
    {
      "anonymous": false,
      "inputs": [
        {
          "indexed": true,
          "internalType": "uint256",
          "name": "bookingId",
          "type": "uint256"
        },
        {
          "indexed": true,
          "internalType": "address",
          "name": "guest",
          "type": "address"
        }
      ],
      "name": "DisputeRaisedByGuest",
      "type": "event"
    },
    {
      "anonymous": false,
      "inputs": [
        {
          "indexed": true,
          "internalType": "uint256",
          "name": "bookingId",
          "type": "uint256"
        },
        {
          "indexed": true,
          "internalType": "address",
          "name": "host",
          "type": "address"
        }
      ],
      "name": "DisputeRaisedByHost",
      "type": "event"
    },
    {
      "anonymous": false,
      "inputs": [
        {
          "indexed": false,
          "internalType": "uint256",
          "name": "bookingId",
          "type": "uint256"
        },
        {
          "indexed": false,
          "internalType": "bool",
          "name": "favorRenter",
          "type": "bool"
        }
      ],
      "name": "DisputeResolved",
      "type": "event"
    },
    {
      "anonymous": false,
      "inputs": [
        {
          "indexed": false,
          "internalType": "uint256",
          "name": "commission",
          "type": "uint256"
        },
        {
          "indexed": false,
          "internalType": "uint256",
          "name": "deposit",
          "type": "uint256"
        },
        {
          "indexed": false,
          "internalType": "uint256",
          "name": "hostPayment",
          "type": "uint256"
        }
      ],
      "name": "FeeStructureUpdated",
      "type": "event"
    },
    {
      "anonymous": false,
      "inputs": [
        {
          "indexed": false,
          "internalType": "uint256",
          "name": "bookingId",
          "type": "uint256"
        },
        {
          "indexed": true,
          "internalType": "address",
          "name": "owner",
          "type": "address"
        },
        {
          "indexed": false,
          "internalType": "uint256",
          "name": "amount",
          "type": "uint256"
        }
      ],
      "name": "GuestDepositClaimed",
      "type": "event"
    },
    {
      "anonymous": false,
      "inputs": [
        {
          "indexed": false,
          "internalType": "uint256",
          "name": "bookingId",
          "type": "uint256"
        },
        {
          "indexed": true,
          "internalType": "address",
          "name": "renter",
          "type": "address"
        },
        {
          "indexed": false,
          "internalType": "uint256",
          "name": "amount",
          "type": "uint256"
        }
      ],
      "name": "GuestDepositRefunded",
      "type": "event"
    },
    {
      "anonymous": false,
      "inputs": [
        {
          "indexed": true,
          "internalType": "uint256",
          "name": "bookingId",
          "type": "uint256"
        },
        {
          "indexed": true,
          "internalType": "address",
          "name": "guest",
          "type": "address"
        }
      ],
      "name": "GuestDisputeLost",
      "type": "event"
    },
    {
      "anonymous": false,
      "inputs": [
        {
          "indexed": true,
          "internalType": "uint256",
          "name": "bookingId",
          "type": "uint256"
        },
        {
          "indexed": true,
          "internalType": "address",
          "name": "guest",
          "type": "address"
        }
      ],
      "name": "GuestDisputeWon",
      "type": "event"
    },
    {
      "anonymous": false,
      "inputs": [
        {
          "indexed": true,
          "internalType": "uint256",
          "name": "bookingId",
          "type": "uint256"
        },
        {
          "indexed": true,
          "internalType": "address",
          "name": "host",
          "type": "address"
        }
      ],
      "name": "HostDisputeLost",
      "type": "event"
    },
    {
      "anonymous": false,
      "inputs": [
        {
          "indexed": true,
          "internalType": "uint256",
          "name": "bookingId",
          "type": "uint256"
        },
        {
          "indexed": true,
          "internalType": "address",
          "name": "host",
          "type": "address"
        }
      ],
      "name": "HostDisputeWon",
      "type": "event"
    },
    {
      "anonymous": false,
      "inputs": [
        {
          "indexed": false,
          "internalType": "uint256",
          "name": "bookingId",
          "type": "uint256"
        },
        {
          "indexed": true,
          "internalType": "address",
          "name": "renter",
          "type": "address"
        },
        {
          "indexed": true,
          "internalType": "address",
          "name": "owner",
          "type": "address"
        },
        {
          "indexed": false,
          "internalType": "uint256",
          "name": "amount",
          "type": "uint256"
        },
        {
          "indexed": false,
          "internalType": "uint256",
          "name": "guestDeposit",
          "type": "uint256"
        }
      ],
      "name": "PaymentInitiated",
      "type": "event"
    },
    {
      "anonymous": false,
      "inputs": [
        {
          "indexed": false,
          "internalType": "uint256",
          "name": "bookingId",
          "type": "uint256"
        },
        {
          "indexed": true,
          "internalType": "address",
          "name": "owner",
          "type": "address"
        },
        {
          "indexed": false,
          "internalType": "uint256",
          "name": "amount",
          "type": "uint256"
        }
      ],
      "name": "PaymentReleased",
      "type": "event"
    },
    {
      "anonymous": false,
      "inputs": [
        {
          "indexed": true,
          "internalType": "address",
          "name": "account",
          "type": "address"
        },
        {
          "indexed": false,
          "internalType": "string",
          "name": "role",
          "type": "string"
        }
      ],
      "name": "RoleGranted",
      "type": "event"
    },
    {
      "anonymous": false,
      "inputs": [
        {
          "indexed": true,
          "internalType": "address",
          "name": "account",
          "type": "address"
        },
        {
          "indexed": false,
          "internalType": "string",
          "name": "role",
          "type": "string"
        }
      ],
      "name": "RoleRevoked",
      "type": "event"
    },
    {
      "inputs": [],
      "name": "admin",
      "outputs": [
        {
          "internalType": "address",
          "name": "",
          "type": "address"
        }
      ],
      "stateMutability": "view",
      "type": "function"
    },
    {
      "inputs": [],
      "name": "bookingCounter",
      "outputs": [
        {
          "internalType": "uint256",
          "name": "",
          "type": "uint256"
        }
      ],
      "stateMutability": "view",
      "type": "function"
    },
    {
      "inputs": [
        {
          "internalType": "uint256",
          "name": "",
          "type": "uint256"
        }
      ],
      "name": "bookings",
      "outputs": [
        {
          "internalType": "address",
          "name": "renter",
          "type": "address"
        },
        {
          "internalType": "address",
          "name": "owner",
          "type": "address"
        },
        {
          "internalType": "uint256",
          "name": "amount",
          "type": "uint256"
        },
        {
          "internalType": "uint256",
          "name": "guestDeposit",
          "type": "uint256"
        },
        {
          "internalType": "uint256",
          "name": "startTime",
          "type": "uint256"
        },
        {
          "internalType": "uint256",
          "name": "endTime",
          "type": "uint256"
        },
        {
          "internalType": "bool",
          "name": "isCancelled",
          "type": "bool"
        },
        {
          "internalType": "bool",
          "name": "isDisputeRaised",
          "type": "bool"
        },
        {
          "internalType": "bool",
          "name": "isResolved",
          "type": "bool"
        },
        {
          "internalType": "bool",
          "name": "isPaymentReleased",
          "type": "bool"
        }
      ],
      "stateMutability": "view",
      "type": "function"
    },
    {
      "inputs": [
        {
          "internalType": "uint256",
          "name": "bookingId",
          "type": "uint256"
        }
      ],
      "name": "cancelBooking",
      "outputs": [],
      "stateMutability": "nonpayable",
      "type": "function"
    },
    {
      "inputs": [
        {
          "internalType": "uint256",
          "name": "bookingId",
          "type": "uint256"
        },
        {
          "internalType": "uint256",
          "name": "amount",
          "type": "uint256"
        }
      ],
      "name": "claimGuestDeposit",
      "outputs": [],
      "stateMutability": "nonpayable",
      "type": "function"
    },
    {
      "inputs": [],
      "name": "commissionPercentage",
      "outputs": [
        {
          "internalType": "uint256",
          "name": "",
          "type": "uint256"
        }
      ],
      "stateMutability": "view",
      "type": "function"
    },
    {
      "inputs": [],
      "name": "depositPercentage",
      "outputs": [
        {
          "internalType": "uint256",
          "name": "",
          "type": "uint256"
        }
      ],
      "stateMutability": "view",
      "type": "function"
    },
    {
      "inputs": [],
      "name": "disputePeriod",
      "outputs": [
        {
          "internalType": "uint256",
          "name": "",
          "type": "uint256"
        }
      ],
      "stateMutability": "view",
      "type": "function"
    },
    {
      "inputs": [
        {
          "internalType": "address",
          "name": "account",
          "type": "address"
        }
      ],
      "name": "grantManagerRole",
      "outputs": [],
      "stateMutability": "nonpayable",
      "type": "function"
    },
    {
      "inputs": [],
      "name": "hostPaymentPercentage",
      "outputs": [
        {
          "internalType": "uint256",
          "name": "",
          "type": "uint256"
        }
      ],
      "stateMutability": "view",
      "type": "function"
    },
    {
      "inputs": [
        {
          "internalType": "address",
          "name": "owner",
          "type": "address"
        },
        {
          "internalType": "uint256",
          "name": "startTime",
          "type": "uint256"
        },
        {
          "internalType": "uint256",
          "name": "endTime",
          "type": "uint256"
        }
      ],
      "name": "initiatePayment",
      "outputs": [],
      "stateMutability": "payable",
      "type": "function"
    },
    {
      "inputs": [
        {
          "internalType": "address",
          "name": "",
          "type": "address"
        }
      ],
      "name": "managers",
      "outputs": [
        {
          "internalType": "bool",
          "name": "",
          "type": "bool"
        }
      ],
      "stateMutability": "view",
      "type": "function"
    },
    {
      "inputs": [
        {
          "internalType": "uint256",
          "name": "bookingId",
          "type": "uint256"
        }
      ],
      "name": "raiseDispute",
      "outputs": [],
      "stateMutability": "nonpayable",
      "type": "function"
    },
    {
      "inputs": [
        {
          "internalType": "uint256",
          "name": "bookingId",
          "type": "uint256"
        }
      ],
      "name": "refundGuestDeposit",
      "outputs": [],
      "stateMutability": "nonpayable",
      "type": "function"
    },
    {
      "inputs": [
        {
          "internalType": "uint256",
          "name": "bookingId",
          "type": "uint256"
        },
        {
          "internalType": "bool",
          "name": "refundDeposit",
          "type": "bool"
        }
      ],
      "name": "releasePayment",
      "outputs": [],
      "stateMutability": "nonpayable",
      "type": "function"
    },
    {
      "inputs": [
        {
          "internalType": "uint256",
          "name": "bookingId",
          "type": "uint256"
        },
        {
          "internalType": "bool",
          "name": "favorRenter",
          "type": "bool"
        },
        {
          "internalType": "bool",
          "name": "refundDeposit",
          "type": "bool"
        }
      ],
      "name": "resolveDispute",
      "outputs": [],
      "stateMutability": "nonpayable",
      "type": "function"
    },
    {
      "inputs": [
        {
          "internalType": "address",
          "name": "account",
          "type": "address"
        }
      ],
      "name": "revokeManagerRole",
      "outputs": [],
      "stateMutability": "nonpayable",
      "type": "function"
    },
    {
      "inputs": [
        {
          "internalType": "uint256",
          "name": "_disputePeriod",
          "type": "uint256"
        }
      ],
      "name": "updateDisputePeriod",
      "outputs": [],
      "stateMutability": "nonpayable",
      "type": "function"
    },
    {
      "inputs": [
        {
          "internalType": "uint256",
          "name": "_commissionPercentage",
          "type": "uint256"
        },
        {
          "internalType": "uint256",
          "name": "_depositPercentage",
          "type": "uint256"
        },
        {
          "internalType": "uint256",
          "name": "_hostPaymentPercentage",
          "type": "uint256"
        }
      ],
      "name": "updateFeeStructure",
      "outputs": [],
      "stateMutability": "nonpayable",
      "type": "function"
    }
  ],
  "bytecode": "0x608060405260056003556005600455605a60055562093a8060065534801561002657600080fd5b50600160008190555033600160006101000a81548173ffffffffffffffffffffffffffffffffffffffff021916908373ffffffffffffffffffffffffffffffffffffffff1602179055506136e78061007f6000396000f3fe6080604052600436106101145760003560e01c8063a5c1674e116100a0578063d575fe6411610064578063d575fe641461036d578063db65ae8814610398578063e4ae4d2e146103c1578063f851a440146103ec578063fdff9b4d1461041757610114565b8063a5c1674e146102ab578063b2a592e8146102d4578063be4dc94f146102fd578063cd856c7414610326578063d287ac421461034257610114565b806326e885e3116100e757806326e885e3146101dc5780632e33b6251461020557806351b4d5e81461022e5780635bf31d4d14610257578063827db85f1461028257610114565b806306e652dd146101195780630c3562ba146101425780630dca825e1461016d5780631dab301e14610196575b600080fd5b34801561012557600080fd5b50610140600480360381019061013b9190612690565b610454565b005b34801561014e57600080fd5b50610157610568565b60405161016491906126cc565b60405180910390f35b34801561017957600080fd5b50610194600480360381019061018f9190612690565b61056e565b005b3480156101a257600080fd5b506101bd60048036038101906101b89190612690565b6109d3565b6040516101d39a99989796959493929190612743565b60405180910390f35b3480156101e857600080fd5b5061020360048036038101906101fe919061280b565b610a9b565b005b34801561021157600080fd5b5061022c60048036038101906102279190612690565b610c41565b005b34801561023a57600080fd5b5061025560048036038101906102509190612864565b610e43565b005b34801561026357600080fd5b5061026c6113de565b60405161027991906126cc565b60405180910390f35b34801561028e57600080fd5b506102a960048036038101906102a491906128a4565b6113e4565b005b3480156102b757600080fd5b506102d260048036038101906102cd9190612690565b611972565b005b3480156102e057600080fd5b506102fb60048036038101906102f691906128f7565b611c58565b005b34801561030957600080fd5b50610324600480360381019061031f919061280b565b611d96565b005b610340600480360381019061033b919061294a565b611f3c565b005b34801561034e57600080fd5b5061035761235c565b60405161036491906126cc565b60405180910390f35b34801561037957600080fd5b50610382612362565b60405161038f91906126cc565b60405180910390f35b3480156103a457600080fd5b506103bf60048036038101906103ba919061299d565b612368565b005b3480156103cd57600080fd5b506103d66125b9565b6040516103e391906126cc565b60405180910390f35b3480156103f857600080fd5b506104016125bf565b60405161040e91906129dd565b60405180910390f35b34801561042357600080fd5b5061043e6004803603810190610439919061280b565b6125e5565b60405161044b91906129f8565b60405180910390f35b600160009054906101000a900473ffffffffffffffffffffffffffffffffffffffff1673ffffffffffffffffffffffffffffffffffffffff163373ffffffffffffffffffffffffffffffffffffffff16146104e4576040517f08c379a00000000000000000000000000000000000000000000000000000000081526004016104db90612a70565b60405180910390fd5b60008111610527576040517f08c379a000000000000000000000000000000000000000000000000000000000815260040161051e90612b02565b60405180910390fd5b806006819055507fa07016194ad6cf69ce63d15e6172d7d8bff3221f58442571a1f4b14b202ee6f98160405161055d91906126cc565b60405180910390a150565b60045481565b610576612605565b60006007600083815260200190815260200160002090508060060160009054906101000a900460ff16156105df576040517f08c379a00000000000000000000000000000000000000000000000000000000081526004016105d690612b6e565b60405180910390fd5b80600401544210610625576040517f08c379a000000000000000000000000000000000000000000000000000000000815260040161061c90612bda565b60405180910390fd5b8060060160029054906101000a900460ff1615610677576040517f08c379a000000000000000000000000000000000000000000000000000000000815260040161066e90612c46565b60405180910390fd5b8060060160039054906101000a900460ff16156106c9576040517f08c379a00000000000000000000000000000000000000000000000000000000081526004016106c090612cb2565b60405180910390fd5b8060000160009054906101000a900473ffffffffffffffffffffffffffffffffffffffff1673ffffffffffffffffffffffffffffffffffffffff163373ffffffffffffffffffffffffffffffffffffffff16148061077657508060010160009054906101000a900473ffffffffffffffffffffffffffffffffffffffff1673ffffffffffffffffffffffffffffffffffffffff163373ffffffffffffffffffffffffffffffffffffffff16145b806107ce5750600160009054906101000a900473ffffffffffffffffffffffffffffffffffffffff1673ffffffffffffffffffffffffffffffffffffffff163373ffffffffffffffffffffffffffffffffffffffff16145b806108225750600260003373ffffffffffffffffffffffffffffffffffffffff1673ffffffffffffffffffffffffffffffffffffffff16815260200190815260200160002060009054906101000a900460ff165b610861576040517f08c379a000000000000000000000000000000000000000000000000000000000815260040161085890612d1e565b60405180910390fd5b60018160060160006101000a81548160ff0219169083151502179055506000816003015482600201546108949190612d6d565b905060008260020181905550600082600301819055508160000160009054906101000a900473ffffffffffffffffffffffffffffffffffffffff1673ffffffffffffffffffffffffffffffffffffffff166108fc829081150290604051600060405180830381858888f19350505050158015610914573d6000803e3d6000fd5b508160010160009054906101000a900473ffffffffffffffffffffffffffffffffffffffff1673ffffffffffffffffffffffffffffffffffffffff168260000160009054906101000a900473ffffffffffffffffffffffffffffffffffffffff1673ffffffffffffffffffffffffffffffffffffffff167f8fcbaab69946045c2f8dd853a13d208afeb7dd7583966448a28dca73ee1f52fd8533856040516109be93929190612da1565b60405180910390a350506109d061264b565b50565b60076020528060005260406000206000915090508060000160009054906101000a900473ffffffffffffffffffffffffffffffffffffffff16908060010160009054906101000a900473ffffffffffffffffffffffffffffffffffffffff16908060020154908060030154908060040154908060050154908060060160009054906101000a900460ff16908060060160019054906101000a900460ff16908060060160029054906101000a900460ff16908060060160039054906101000a900460ff1690508a565b600160009054906101000a900473ffffffffffffffffffffffffffffffffffffffff1673ffffffffffffffffffffffffffffffffffffffff163373ffffffffffffffffffffffffffffffffffffffff1614610b2b576040517f08c379a0000000000000000000000000000000000000000000000000000000008152600401610b2290612a70565b60405180910390fd5b600073ffffffffffffffffffffffffffffffffffffffff168173ffffffffffffffffffffffffffffffffffffffff1603610b9a576040517f08c379a0000000000000000000000000000000000000000000000000000000008152600401610b9190612e24565b60405180910390fd5b6001600260008373ffffffffffffffffffffffffffffffffffffffff1673ffffffffffffffffffffffffffffffffffffffff16815260200190815260200160002060006101000a81548160ff0219169083151502179055508073ffffffffffffffffffffffffffffffffffffffff167fb710f7d3e79cb091613cfea70444ea824ad23f2b1297bdea427bc6f097e346a8604051610c3690612e90565b60405180910390a250565b600160009054906101000a900473ffffffffffffffffffffffffffffffffffffffff1673ffffffffffffffffffffffffffffffffffffffff163373ffffffffffffffffffffffffffffffffffffffff161480610ce65750600260003373ffffffffffffffffffffffffffffffffffffffff1673ffffffffffffffffffffffffffffffffffffffff16815260200190815260200160002060009054906101000a900460ff165b610d25576040517f08c379a0000000000000000000000000000000000000000000000000000000008152600401610d1c90612f22565b60405180910390fd5b610d2d612605565b6000600760008381526020019081526020016000209050600081600301549050600082600301819055508160000160009054906101000a900473ffffffffffffffffffffffffffffffffffffffff1673ffffffffffffffffffffffffffffffffffffffff166108fc829081150290604051600060405180830381858888f19350505050158015610dc1573d6000803e3d6000fd5b508160000160009054906101000a900473ffffffffffffffffffffffffffffffffffffffff1673ffffffffffffffffffffffffffffffffffffffff167f984943a1674ba9f99b1bf6f36a72bf142dcb0c5beb910338a16430ed3989c8508483604051610e2e929190612f42565b60405180910390a25050610e4061264b565b50565b600160009054906101000a900473ffffffffffffffffffffffffffffffffffffffff1673ffffffffffffffffffffffffffffffffffffffff163373ffffffffffffffffffffffffffffffffffffffff161480610ee85750600260003373ffffffffffffffffffffffffffffffffffffffff1673ffffffffffffffffffffffffffffffffffffffff16815260200190815260200160002060009054906101000a900460ff165b610f27576040517f08c379a0000000000000000000000000000000000000000000000000000000008152600401610f1e90612f22565b60405180910390fd5b610f2f612605565b60006007600084815260200190815260200160002090506006548160050154610f589190612d6d565b4211610f99576040517f08c379a0000000000000000000000000000000000000000000000000000000008152600401610f9090612fb7565b60405180910390fd5b8060060160009054906101000a900460ff1615610feb576040517f08c379a0000000000000000000000000000000000000000000000000000000008152600401610fe290613023565b60405180910390fd5b8060060160019054906101000a900460ff161561103d576040517f08c379a00000000000000000000000000000000000000000000000000000000081526004016110349061308f565b60405180910390fd5b8060060160029054906101000a900460ff161561108f576040517f08c379a0000000000000000000000000000000000000000000000000000000008152600401611086906130fb565b60405180910390fd5b8060060160039054906101000a900460ff16156110e1576040517f08c379a00000000000000000000000000000000000000000000000000000000081526004016110d890612cb2565b60405180910390fd5b60018160060160036101000a81548160ff0219169083151502179055508060010160009054906101000a900473ffffffffffffffffffffffffffffffffffffffff1673ffffffffffffffffffffffffffffffffffffffff166108fc82600201549081150290604051600060405180830381858888f1935050505015801561116c573d6000803e3d6000fd5b508060010160009054906101000a900473ffffffffffffffffffffffffffffffffffffffff1673ffffffffffffffffffffffffffffffffffffffff167f21d71db5be59bb9fa133895586b7404307dd33fb93b16db09dc6f1d9d7d231b08483600201546040516111dd929190612f42565b60405180910390a26000816003015411156113d1576000816003015490506000826003018190555082156112ef578160000160009054906101000a900473ffffffffffffffffffffffffffffffffffffffff1673ffffffffffffffffffffffffffffffffffffffff166108fc829081150290604051600060405180830381858888f19350505050158015611275573d6000803e3d6000fd5b508160000160009054906101000a900473ffffffffffffffffffffffffffffffffffffffff1673ffffffffffffffffffffffffffffffffffffffff167f984943a1674ba9f99b1bf6f36a72bf142dcb0c5beb910338a16430ed3989c85085836040516112e2929190612f42565b60405180910390a26113cf565b8160010160009054906101000a900473ffffffffffffffffffffffffffffffffffffffff1673ffffffffffffffffffffffffffffffffffffffff166108fc829081150290604051600060405180830381858888f19350505050158015611359573d6000803e3d6000fd5b508160010160009054906101000a900473ffffffffffffffffffffffffffffffffffffffff1673ffffffffffffffffffffffffffffffffffffffff167f92239b9290291b938a8cf6d9ddd73fd11f7e869cf1d99dd5c9433be9f0a5549e85836040516113c6929190612f42565b60405180910390a25b505b506113da61264b565b5050565b60065481565b600160009054906101000a900473ffffffffffffffffffffffffffffffffffffffff1673ffffffffffffffffffffffffffffffffffffffff163373ffffffffffffffffffffffffffffffffffffffff1614806114895750600260003373ffffffffffffffffffffffffffffffffffffffff1673ffffffffffffffffffffffffffffffffffffffff16815260200190815260200160002060009054906101000a900460ff165b6114c8576040517f08c379a00000000000000000000000000000000000000000000000000000000081526004016114bf90612f22565b60405180910390fd5b6114d0612605565b60006007600085815260200190815260200160002090508060060160019054906101000a900460ff16611538576040517f08c379a000000000000000000000000000000000000000000000000000000000815260040161152f90613167565b60405180910390fd5b8060060160029054906101000a900460ff161561158a576040517f08c379a0000000000000000000000000000000000000000000000000000000008152600401611581906131d3565b60405180910390fd5b60018160060160026101000a81548160ff02191690831515021790555082156116f1578060000160009054906101000a900473ffffffffffffffffffffffffffffffffffffffff1673ffffffffffffffffffffffffffffffffffffffff16847f89bcf3a41d321edba706c6216205fd3f31b748f783b763d8b18453a346d819d560405160405180910390a38060010160009054906101000a900473ffffffffffffffffffffffffffffffffffffffff1673ffffffffffffffffffffffffffffffffffffffff16847fa617330ae3e30fc0ba5ec47ecebd339531023ab22bb10ceb50af01763b0c4a1e60405160405180910390a38060000160009054906101000a900473ffffffffffffffffffffffffffffffffffffffff1673ffffffffffffffffffffffffffffffffffffffff166108fc82600201549081150290604051600060405180830381858888f193505050501580156116eb573d6000803e3d6000fd5b50611831565b8060000160009054906101000a900473ffffffffffffffffffffffffffffffffffffffff1673ffffffffffffffffffffffffffffffffffffffff16847ffc4af89a16a3ce9b01bee46b476443189b66ec21f89325e13948d4d7c145a73c60405160405180910390a38060010160009054906101000a900473ffffffffffffffffffffffffffffffffffffffff1673ffffffffffffffffffffffffffffffffffffffff16847f5491ffa325a5d6f5ada080332d0c576a99cdbfd8320023a660b641c0f8ba99ae60405160405180910390a38060010160009054906101000a900473ffffffffffffffffffffffffffffffffffffffff1673ffffffffffffffffffffffffffffffffffffffff166108fc82600201549081150290604051600060405180830381858888f1935050505015801561182f573d6000803e3d6000fd5b505b811561192b57600081600301549050600082600301819055508160000160009054906101000a900473ffffffffffffffffffffffffffffffffffffffff1673ffffffffffffffffffffffffffffffffffffffff166108fc829081150290604051600060405180830381858888f193505050501580156118b4573d6000803e3d6000fd5b508160000160009054906101000a900473ffffffffffffffffffffffffffffffffffffffff1673ffffffffffffffffffffffffffffffffffffffff167f984943a1674ba9f99b1bf6f36a72bf142dcb0c5beb910338a16430ed3989c8508683604051611921929190612f42565b60405180910390a2505b7f5a87909bff68caaaaf0b3fd9c74eeccc928832f879315e5c6fb7a73612f26c0c848460405161195c9291906131f3565b60405180910390a15061196d61264b565b505050565b60006007600083815260200190815260200160002090508060000160009054906101000a900473ffffffffffffffffffffffffffffffffffffffff1673ffffffffffffffffffffffffffffffffffffffff163373ffffffffffffffffffffffffffffffffffffffff161480611a3657508060010160009054906101000a900473ffffffffffffffffffffffffffffffffffffffff1673ffffffffffffffffffffffffffffffffffffffff163373ffffffffffffffffffffffffffffffffffffffff16145b611a75576040517f08c379a0000000000000000000000000000000000000000000000000000000008152600401611a6c9061328e565b60405180910390fd5b6006548160050154611a879190612d6d565b421115611ac9576040517f08c379a0000000000000000000000000000000000000000000000000000000008152600401611ac0906132fa565b60405180910390fd5b8060060160019054906101000a900460ff1615611b1b576040517f08c379a0000000000000000000000000000000000000000000000000000000008152600401611b1290613366565b60405180910390fd5b60018160060160016101000a81548160ff0219169083151502179055507f04901f83201c8724eadf084436db8aa391820bae6d11f9f78a17edb6f2eef3cf82604051611b6791906126cc565b60405180910390a18060000160009054906101000a900473ffffffffffffffffffffffffffffffffffffffff1673ffffffffffffffffffffffffffffffffffffffff163373ffffffffffffffffffffffffffffffffffffffff1603611c0f573373ffffffffffffffffffffffffffffffffffffffff16827f9d2a39566d3f1c29bb1a74ce4a87059c03eba6e504bb03de09a38c06bd3c923060405160405180910390a3611c54565b3373ffffffffffffffffffffffffffffffffffffffff16827f0ca6cdef74b66ab409e9cb99dffb0e39a1dff5e17240b7ee0d0184524b8e5fe960405160405180910390a35b5050565b600160009054906101000a900473ffffffffffffffffffffffffffffffffffffffff1673ffffffffffffffffffffffffffffffffffffffff163373ffffffffffffffffffffffffffffffffffffffff1614611ce8576040517f08c379a0000000000000000000000000000000000000000000000000000000008152600401611cdf90612a70565b60405180910390fd5b6064818385611cf79190612d6d565b611d019190612d6d565b14611d41576040517f08c379a0000000000000000000000000000000000000000000000000000000008152600401611d38906133d2565b60405180910390fd5b8260038190555081600481905550806005819055507f4ea41a1a0288eec0ee06e5b2516ff8c82c05e21a866ba0ee13c7669a55529718838383604051611d89939291906133f2565b60405180910390a1505050565b600160009054906101000a900473ffffffffffffffffffffffffffffffffffffffff1673ffffffffffffffffffffffffffffffffffffffff163373ffffffffffffffffffffffffffffffffffffffff1614611e26576040517f08c379a0000000000000000000000000000000000000000000000000000000008152600401611e1d90612a70565b60405180910390fd5b600073ffffffffffffffffffffffffffffffffffffffff168173ffffffffffffffffffffffffffffffffffffffff1603611e95576040517f08c379a0000000000000000000000000000000000000000000000000000000008152600401611e8c90612e24565b60405180910390fd5b6000600260008373ffffffffffffffffffffffffffffffffffffffff1673ffffffffffffffffffffffffffffffffffffffff16815260200190815260200160002060006101000a81548160ff0219169083151502179055508073ffffffffffffffffffffffffffffffffffffffff167f9f43a01c0d4ff5aff09b3b9b472df707ceefd3f948f8942f10fa1562a8921304604051611f3190612e90565b60405180910390a250565b611f44612605565b60003411611f87576040517f08c379a0000000000000000000000000000000000000000000000000000000008152600401611f7e90613475565b60405180910390fd5b600073ffffffffffffffffffffffffffffffffffffffff168373ffffffffffffffffffffffffffffffffffffffff1603611ff6576040517f08c379a0000000000000000000000000000000000000000000000000000000008152600401611fed90612e24565b60405180910390fd5b818111612038576040517f08c379a000000000000000000000000000000000000000000000000000000000815260040161202f90613507565b60405180910390fd5b600060646003543461204a9190613527565b6120549190613598565b905060006064600554346120689190613527565b6120729190613598565b905060006064600454346120869190613527565b6120909190613598565b9050600160009054906101000a900473ffffffffffffffffffffffffffffffffffffffff1673ffffffffffffffffffffffffffffffffffffffff166108fc849081150290604051600060405180830381858888f193505050501580156120fa573d6000803e3d6000fd5b506008600081548092919061210e906135c9565b91905055506040518061014001604052803373ffffffffffffffffffffffffffffffffffffffff1681526020018773ffffffffffffffffffffffffffffffffffffffff1681526020018381526020018281526020018681526020018581526020016000151581526020016000151581526020016000151581526020016000151581525060076000600854815260200190815260200160002060008201518160000160006101000a81548173ffffffffffffffffffffffffffffffffffffffff021916908373ffffffffffffffffffffffffffffffffffffffff16021790555060208201518160010160006101000a81548173ffffffffffffffffffffffffffffffffffffffff021916908373ffffffffffffffffffffffffffffffffffffffff16021790555060408201518160020155606082015181600301556080820151816004015560a0820151816005015560c08201518160060160006101000a81548160ff02191690831515021790555060e08201518160060160016101000a81548160ff0219169083151502179055506101008201518160060160026101000a81548160ff0219169083151502179055506101208201518160060160036101000a81548160ff0219169083151502179055509050508573ffffffffffffffffffffffffffffffffffffffff163373ffffffffffffffffffffffffffffffffffffffff167f66190151d9e83fadeef87aee26c776f11da43a61bf116913d49541d1b4b94aca6008548585604051612344939291906133f2565b60405180910390a350505061235761264b565b505050565b60085481565b60035481565b600160009054906101000a900473ffffffffffffffffffffffffffffffffffffffff1673ffffffffffffffffffffffffffffffffffffffff163373ffffffffffffffffffffffffffffffffffffffff16148061240d5750600260003373ffffffffffffffffffffffffffffffffffffffff1673ffffffffffffffffffffffffffffffffffffffff16815260200190815260200160002060009054906101000a900460ff165b61244c576040517f08c379a000000000000000000000000000000000000000000000000000000000815260040161244390612f22565b60405180910390fd5b612454612605565b600060076000848152602001908152602001600020905080600301548211156124b2576040517f08c379a00000000000000000000000000000000000000000000000000000000081526004016124a99061365d565b60405180910390fd5b818160030160008282546124c6919061367d565b925050819055508060010160009054906101000a900473ffffffffffffffffffffffffffffffffffffffff1673ffffffffffffffffffffffffffffffffffffffff166108fc839081150290604051600060405180830381858888f19350505050158015612537573d6000803e3d6000fd5b508060010160009054906101000a900473ffffffffffffffffffffffffffffffffffffffff1673ffffffffffffffffffffffffffffffffffffffff167f92239b9290291b938a8cf6d9ddd73fd11f7e869cf1d99dd5c9433be9f0a5549e84846040516125a4929190612f42565b60405180910390a2506125b561264b565b5050565b60055481565b600160009054906101000a900473ffffffffffffffffffffffffffffffffffffffff1681565b60026020528060005260406000206000915054906101000a900460ff1681565b600260005403612641576040517f3ee5aeb500000000000000000000000000000000000000000000000000000000815260040160405180910390fd5b6002600081905550565b6001600081905550565b600080fd5b6000819050919050565b61266d8161265a565b811461267857600080fd5b50565b60008135905061268a81612664565b92915050565b6000602082840312156126a6576126a5612655565b5b60006126b48482850161267b565b91505092915050565b6126c68161265a565b82525050565b60006020820190506126e160008301846126bd565b92915050565b600073ffffffffffffffffffffffffffffffffffffffff82169050919050565b6000612712826126e7565b9050919050565b61272281612707565b82525050565b60008115159050919050565b61273d81612728565b82525050565b600061014082019050612759600083018d612719565b612766602083018c612719565b612773604083018b6126bd565b612780606083018a6126bd565b61278d60808301896126bd565b61279a60a08301886126bd565b6127a760c0830187612734565b6127b460e0830186612734565b6127c2610100830185612734565b6127d0610120830184612734565b9b9a5050505050505050505050565b6127e881612707565b81146127f357600080fd5b50565b600081359050612805816127df565b92915050565b60006020828403121561282157612820612655565b5b600061282f848285016127f6565b91505092915050565b61284181612728565b811461284c57600080fd5b50565b60008135905061285e81612838565b92915050565b6000806040838503121561287b5761287a612655565b5b60006128898582860161267b565b925050602061289a8582860161284f565b9150509250929050565b6000806000606084860312156128bd576128bc612655565b5b60006128cb8682870161267b565b93505060206128dc8682870161284f565b92505060406128ed8682870161284f565b9150509250925092565b6000806000606084860312156129105761290f612655565b5b600061291e8682870161267b565b935050602061292f8682870161267b565b92505060406129408682870161267b565b9150509250925092565b60008060006060848603121561296357612962612655565b5b6000612971868287016127f6565b93505060206129828682870161267b565b92505060406129938682870161267b565b9150509250925092565b600080604083850312156129b4576129b3612655565b5b60006129c28582860161267b565b92505060206129d38582860161267b565b9150509250929050565b60006020820190506129f26000830184612719565b92915050565b6000602082019050612a0d6000830184612734565b92915050565b600082825260208201905092915050565b7f4e6f7420617574686f72697a65643a2041646d696e206f6e6c79000000000000600082015250565b6000612a5a601a83612a13565b9150612a6582612a24565b602082019050919050565b60006020820190508181036000830152612a8981612a4d565b9050919050565b7f4469737075746520706572696f64206d7573742062652067726561746572207460008201527f68616e2030000000000000000000000000000000000000000000000000000000602082015250565b6000612aec602583612a13565b9150612af782612a90565b604082019050919050565b60006020820190508181036000830152612b1b81612adf565b9050919050565b7f426f6f6b696e6720616c72656164792063616e63656c6c656400000000000000600082015250565b6000612b58601983612a13565b9150612b6382612b22565b602082019050919050565b60006020820190508181036000830152612b8781612b4b565b9050919050565b7f426f6f6b696e6720706572696f6420616c726561647920737461727465640000600082015250565b6000612bc4601e83612a13565b9150612bcf82612b8e565b602082019050919050565b60006020820190508181036000830152612bf381612bb7565b9050919050565b7f43616e6e6f742063616e63656c2061207265736f6c7665642064697370757465600082015250565b6000612c30602083612a13565b9150612c3b82612bfa565b602082019050919050565b60006020820190508181036000830152612c5f81612c23565b9050919050565b7f5061796d656e7420616c72656164792072656c65617365640000000000000000600082015250565b6000612c9c601883612a13565b9150612ca782612c66565b602082019050919050565b60006020820190508181036000830152612ccb81612c8f565b9050919050565b7f4e6f7420617574686f72697a656420746f2063616e63656c0000000000000000600082015250565b6000612d08601883612a13565b9150612d1382612cd2565b602082019050919050565b60006020820190508181036000830152612d3781612cfb565b9050919050565b7f4e487b7100000000000000000000000000000000000000000000000000000000600052601160045260246000fd5b6000612d788261265a565b9150612d838361265a565b9250828201905080821115612d9b57612d9a612d3e565b5b92915050565b6000606082019050612db660008301866126bd565b612dc36020830185612719565b612dd060408301846126bd565b949350505050565b7f5a65726f2061646472657373206e6f7420616c6c6f7765640000000000000000600082015250565b6000612e0e601883612a13565b9150612e1982612dd8565b602082019050919050565b60006020820190508181036000830152612e3d81612e01565b9050919050565b7f4d616e6167657200000000000000000000000000000000000000000000000000600082015250565b6000612e7a600783612a13565b9150612e8582612e44565b602082019050919050565b60006020820190508181036000830152612ea981612e6d565b9050919050565b7f4e6f7420617574686f72697a65643a2041646d696e206f72204d616e6167657260008201527f206f6e6c79000000000000000000000000000000000000000000000000000000602082015250565b6000612f0c602583612a13565b9150612f1782612eb0565b604082019050919050565b60006020820190508181036000830152612f3b81612eff565b9050919050565b6000604082019050612f5760008301856126bd565b612f6460208301846126bd565b9392505050565b7f4469737075746520706572696f64206e6f7420656e6465640000000000000000600082015250565b6000612fa1601883612a13565b9150612fac82612f6b565b602082019050919050565b60006020820190508181036000830152612fd081612f94565b9050919050565b7f426f6f6b696e672063616e63656c6c6564000000000000000000000000000000600082015250565b600061300d601183612a13565b915061301882612fd7565b602082019050919050565b6000602082019050818103600083015261303c81613000565b9050919050565b7f4469737075746520726169736564000000000000000000000000000000000000600082015250565b6000613079600e83612a13565b915061308482613043565b602082019050919050565b600060208201905081810360008301526130a88161306c565b9050919050565b7f416c72656164792072656c656173656400000000000000000000000000000000600082015250565b60006130e5601083612a13565b91506130f0826130af565b602082019050919050565b60006020820190508181036000830152613114816130d8565b9050919050565b7f4e6f206469737075746520726169736564000000000000000000000000000000600082015250565b6000613151601183612a13565b915061315c8261311b565b602082019050919050565b6000602082019050818103600083015261318081613144565b9050919050565b7f416c7265616479207265736f6c76656400000000000000000000000000000000600082015250565b60006131bd601083612a13565b91506131c882613187565b602082019050919050565b600060208201905081810360008301526131ec816131b0565b9050919050565b600060408201905061320860008301856126bd565b6132156020830184612734565b9392505050565b7f4f6e6c792072656e746572206f7220686f73742063616e20726169736520612060008201527f6469737075746500000000000000000000000000000000000000000000000000602082015250565b6000613278602783612a13565b91506132838261321c565b604082019050919050565b600060208201905081810360008301526132a78161326b565b9050919050565b7f4469737075746520706572696f6420656e646564000000000000000000000000600082015250565b60006132e4601483612a13565b91506132ef826132ae565b602082019050919050565b60006020820190508181036000830152613313816132d7565b9050919050565b7f416c726561647920646973707574656400000000000000000000000000000000600082015250565b6000613350601083612a13565b915061335b8261331a565b602082019050919050565b6000602082019050818103600083015261337f81613343565b9050919050565b7f50657263656e7461676573206d7573742073756d20746f203130300000000000600082015250565b60006133bc601b83612a13565b91506133c782613386565b602082019050919050565b600060208201905081810360008301526133eb816133af565b9050919050565b600060608201905061340760008301866126bd565b61341460208301856126bd565b61342160408301846126bd565b949350505050565b7f5061796d656e74206d7573742062652067726561746572207468616e20300000600082015250565b600061345f601e83612a13565b915061346a82613429565b602082019050919050565b6000602082019050818103600083015261348e81613452565b9050919050565b7f456e642074696d65206d7573742062652061667465722073746172742074696d60008201527f6500000000000000000000000000000000000000000000000000000000000000602082015250565b60006134f1602183612a13565b91506134fc82613495565b604082019050919050565b60006020820190508181036000830152613520816134e4565b9050919050565b60006135328261265a565b915061353d8361265a565b925082820261354b8161265a565b9150828204841483151761356257613561612d3e565b5b5092915050565b7f4e487b7100000000000000000000000000000000000000000000000000000000600052601260045260246000fd5b60006135a38261265a565b91506135ae8361265a565b9250826135be576135bd613569565b5b828204905092915050565b60006135d48261265a565b91507fffffffffffffffffffffffffffffffffffffffffffffffffffffffffffffffff820361360657613605612d3e565b5b600182019050919050565b7f43616e6e6f7420636c61696d206d6f7265207468616e206465706f7369740000600082015250565b6000613647601e83612a13565b915061365282613611565b602082019050919050565b600060208201905081810360008301526136768161363a565b9050919050565b60006136888261265a565b91506136938361265a565b92508282039050818111156136ab576136aa612d3e565b5b9291505056fea264697066735822122041e6a1c94722c54626a9d815f4b76ac66857a64492e8c07517b10ea18fae193264736f6c63430008180033",
  "linkReferences": {},
  "deployedLinkReferences": {}
}