{
  "_format": "hh-sol-artifact-1",
  "contractName": "RentalPayments",
  "sourceName": "contracts/RentalPayments.sol",
  "abi": [
    {
      "inputs": [],
      "stateMutability": "nonpayable",
      "type": "constructor"
    },
    {
      "anonymous": false,
      "inputs": [
        {
          "indexed": false,
          "internalType": "uint256",
          "name": "bookingId",
          "type": "uint256"
        }
      ],
      "name": "DisputeRaised",
      "type": "event"
    },
    {
      "anonymous": false,
      "inputs": [
        {
          "indexed": false,
          "internalType": "uint256",
          "name": "bookingId",
          "type": "uint256"
        },
        {
          "indexed": false,
          "internalType": "bool",
          "name": "favorRenter",
          "type": "bool"
        }
      ],
      "name": "DisputeResolved",
      "type": "event"
    },
    {
      "anonymous": false,
      "inputs": [
        {
          "indexed": false,
          "internalType": "uint256",
          "name": "bookingId",
          "type": "uint256"
        },
        {
          "indexed": true,
          "internalType": "address",
          "name": "renter",
          "type": "address"
        },
        {
          "indexed": false,
          "internalType": "uint256",
          "name": "amount",
          "type": "uint256"
        }
      ],
      "name": "PaymentInitiated",
      "type": "event"
    },
    {
      "anonymous": false,
      "inputs": [
        {
          "indexed": false,
          "internalType": "uint256",
          "name": "bookingId",
          "type": "uint256"
        },
        {
          "indexed": true,
          "internalType": "address",
          "name": "owner",
          "type": "address"
        },
        {
          "indexed": false,
          "internalType": "uint256",
          "name": "amount",
          "type": "uint256"
        }
      ],
      "name": "PaymentReleased",
      "type": "event"
    },
    {
      "anonymous": false,
      "inputs": [
        {
          "indexed": true,
          "internalType": "address",
          "name": "account",
          "type": "address"
        },
        {
          "indexed": false,
          "internalType": "string",
          "name": "role",
          "type": "string"
        }
      ],
      "name": "RoleGranted",
      "type": "event"
    },
    {
      "anonymous": false,
      "inputs": [
        {
          "indexed": true,
          "internalType": "address",
          "name": "account",
          "type": "address"
        },
        {
          "indexed": false,
          "internalType": "string",
          "name": "role",
          "type": "string"
        }
      ],
      "name": "RoleRevoked",
      "type": "event"
    },
    {
      "anonymous": false,
      "inputs": [
        {
          "indexed": true,
          "internalType": "address",
          "name": "host",
          "type": "address"
        },
        {
          "indexed": false,
          "internalType": "uint256",
          "name": "newDepositAmount",
          "type": "uint256"
        }
      ],
      "name": "SecurityDepositUpdated",
      "type": "event"
    },
    {
      "inputs": [],
      "name": "bookingCounter",
      "outputs": [
        {
          "internalType": "uint256",
          "name": "",
          "type": "uint256"
        }
      ],
      "stateMutability": "view",
      "type": "function"
    },
    {
      "inputs": [
        {
          "internalType": "uint256",
          "name": "",
          "type": "uint256"
        }
      ],
      "name": "bookings",
      "outputs": [
        {
          "internalType": "address",
          "name": "renter",
          "type": "address"
        },
        {
          "internalType": "address",
          "name": "owner",
          "type": "address"
        },
        {
          "internalType": "uint256",
          "name": "amount",
          "type": "uint256"
        },
        {
          "internalType": "uint256",
          "name": "startTime",
          "type": "uint256"
        },
        {
          "internalType": "uint256",
          "name": "endTime",
          "type": "uint256"
        },
        {
          "internalType": "bool",
          "name": "isDisputeRaised",
          "type": "bool"
        },
        {
          "internalType": "bool",
          "name": "isResolved",
          "type": "bool"
        }
      ],
      "stateMutability": "view",
      "type": "function"
    },
    {
      "inputs": [
        {
          "internalType": "address",
          "name": "host",
          "type": "address"
        }
      ],
      "name": "checkSecurityDeposit",
      "outputs": [
        {
          "internalType": "uint256",
          "name": "",
          "type": "uint256"
        }
      ],
      "stateMutability": "view",
      "type": "function"
    },
    {
      "inputs": [
        {
          "internalType": "address",
          "name": "host",
          "type": "address"
        },
        {
          "internalType": "uint256",
          "name": "amount",
          "type": "uint256"
        }
      ],
      "name": "deductSecurityDeposit",
      "outputs": [],
      "stateMutability": "nonpayable",
      "type": "function"
    },
    {
      "inputs": [],
      "name": "depositSecurity",
      "outputs": [],
      "stateMutability": "payable",
      "type": "function"
    },
    {
      "inputs": [],
      "name": "getAllRentalPayments",
      "outputs": [
        {
          "components": [
            {
              "internalType": "address",
              "name": "renter",
              "type": "address"
            },
            {
              "internalType": "address",
              "name": "owner",
              "type": "address"
            },
            {
              "internalType": "uint256",
              "name": "amount",
              "type": "uint256"
            },
            {
              "internalType": "uint256",
              "name": "startTime",
              "type": "uint256"
            },
            {
              "internalType": "uint256",
              "name": "endTime",
              "type": "uint256"
            },
            {
              "internalType": "bool",
              "name": "isDisputeRaised",
              "type": "bool"
            },
            {
              "internalType": "bool",
              "name": "isResolved",
              "type": "bool"
            }
          ],
          "internalType": "struct RentalPayments.Booking[]",
          "name": "",
          "type": "tuple[]"
        }
      ],
      "stateMutability": "view",
      "type": "function"
    },
    {
      "inputs": [
        {
          "internalType": "address",
          "name": "account",
          "type": "address"
        }
      ],
      "name": "grantHostRole",
      "outputs": [],
      "stateMutability": "nonpayable",
      "type": "function"
    },
    {
      "inputs": [
        {
          "internalType": "address",
          "name": "account",
          "type": "address"
        }
      ],
      "name": "grantManagerRole",
      "outputs": [],
      "stateMutability": "nonpayable",
      "type": "function"
    },
    {
      "inputs": [
        {
          "internalType": "address",
          "name": "account",
          "type": "address"
        }
      ],
      "name": "grantRenterRole",
      "outputs": [],
      "stateMutability": "nonpayable",
      "type": "function"
    },
    {
      "inputs": [
        {
          "internalType": "address",
          "name": "host",
          "type": "address"
        }
      ],
      "name": "hasActiveBookings",
      "outputs": [
        {
          "internalType": "bool",
          "name": "",
          "type": "bool"
        }
      ],
      "stateMutability": "view",
      "type": "function"
    },
    {
      "inputs": [
        {
          "internalType": "address",
          "name": "",
          "type": "address"
        }
      ],
      "name": "hosts",
      "outputs": [
        {
          "internalType": "bool",
          "name": "",
          "type": "bool"
        }
      ],
      "stateMutability": "view",
      "type": "function"
    },
    {
      "inputs": [
        {
          "internalType": "address",
          "name": "owner",
          "type": "address"
        },
        {
          "internalType": "uint256",
          "name": "startTime",
          "type": "uint256"
        },
        {
          "internalType": "uint256",
          "name": "endTime",
          "type": "uint256"
        }
      ],
      "name": "initiatePayment",
      "outputs": [],
      "stateMutability": "payable",
      "type": "function"
    },
    {
      "inputs": [
        {
          "internalType": "address",
          "name": "",
          "type": "address"
        }
      ],
      "name": "managers",
      "outputs": [
        {
          "internalType": "bool",
          "name": "",
          "type": "bool"
        }
      ],
      "stateMutability": "view",
      "type": "function"
    },
    {
      "inputs": [],
      "name": "mobiFiAdmin",
      "outputs": [
        {
          "internalType": "address",
          "name": "",
          "type": "address"
        }
      ],
      "stateMutability": "view",
      "type": "function"
    },
    {
      "inputs": [
        {
          "internalType": "uint256",
          "name": "bookingId",
          "type": "uint256"
        }
      ],
      "name": "raiseDispute",
      "outputs": [],
      "stateMutability": "nonpayable",
      "type": "function"
    },
    {
      "inputs": [
        {
          "internalType": "uint256",
          "name": "bookingId",
          "type": "uint256"
        }
      ],
      "name": "releasePayment",
      "outputs": [],
      "stateMutability": "nonpayable",
      "type": "function"
    },
    {
      "inputs": [
        {
          "internalType": "address",
          "name": "",
          "type": "address"
        }
      ],
      "name": "renters",
      "outputs": [
        {
          "internalType": "bool",
          "name": "",
          "type": "bool"
        }
      ],
      "stateMutability": "view",
      "type": "function"
    },
    {
      "inputs": [
        {
          "internalType": "uint256",
          "name": "bookingId",
          "type": "uint256"
        },
        {
          "internalType": "bool",
          "name": "favorRenter",
          "type": "bool"
        }
      ],
      "name": "resolveDispute",
      "outputs": [],
      "stateMutability": "nonpayable",
      "type": "function"
    },
    {
      "inputs": [
        {
          "internalType": "address",
          "name": "account",
          "type": "address"
        }
      ],
      "name": "revokeHostRole",
      "outputs": [],
      "stateMutability": "nonpayable",
      "type": "function"
    },
    {
      "inputs": [
        {
          "internalType": "address",
          "name": "account",
          "type": "address"
        }
      ],
      "name": "revokeManagerRole",
      "outputs": [],
      "stateMutability": "nonpayable",
      "type": "function"
    },
    {
      "inputs": [
        {
          "internalType": "address",
          "name": "account",
          "type": "address"
        }
      ],
      "name": "revokeRenterRole",
      "outputs": [],
      "stateMutability": "nonpayable",
      "type": "function"
    },
    {
      "inputs": [
        {
          "internalType": "address",
          "name": "",
          "type": "address"
        }
      ],
      "name": "securityDeposits",
      "outputs": [
        {
          "internalType": "uint256",
          "name": "",
          "type": "uint256"
        }
      ],
      "stateMutability": "view",
      "type": "function"
    },
    {
      "inputs": [
        {
          "internalType": "uint256",
          "name": "amount",
          "type": "uint256"
        }
      ],
      "name": "withdrawSecurity",
      "outputs": [],
      "stateMutability": "nonpayable",
      "type": "function"
    }
  ],
  "bytecode": "0x608060405234801561001057600080fd5b50336000806101000a81548173ffffffffffffffffffffffffffffffffffffffff021916908373ffffffffffffffffffffffffffffffffffffffff1602179055506131c5806100606000396000f3fe6080604052600436106101405760003560e01c806388685cd9116100b6578063cd856c741161006f578063cd856c7414610439578063d287ac4214610455578063f20cb1a914610480578063fbabc95c146104a9578063fdff9b4d146104e6578063ffc1113b1461052357610140565b806388685cd91461034c5780639d14b3f214610375578063a5c1674e1461037f578063b9ced5fe146103a8578063bb2272a9146103e5578063be4dc94f1461041057610140565b806335d73ed51161010857806335d73ed51461022c578063392c350514610255578063644a1370146102805780636d574491146102bd5780637dea6474146102e65780638545e0b61461032357610140565b80630d4207a9146101455780631dab301e1461016e57806326e885e3146101b15780632e4150d4146101da57806334b25ee214610203575b600080fd5b34801561015157600080fd5b5061016c6004803603810190610167919061232f565b610560565b005b34801561017a57600080fd5b5061019560048036038101906101909190612392565b6106e9565b6040516101a897969594939291906123f8565b60405180910390f35b3480156101bd57600080fd5b506101d860048036038101906101d3919061232f565b610785565b005b3480156101e657600080fd5b5061020160048036038101906101fc9190612392565b6108b9565b005b34801561020f57600080fd5b5061022a60048036038101906102259190612493565b610ab1565b005b34801561023857600080fd5b50610253600480360381019061024e919061232f565b610d92565b005b34801561026157600080fd5b5061026a610f1b565b60405161027791906124d3565b60405180910390f35b34801561028c57600080fd5b506102a760048036038101906102a2919061232f565b610f3f565b6040516102b491906124ee565b60405180910390f35b3480156102c957600080fd5b506102e460048036038101906102df919061232f565b610f5f565b005b3480156102f257600080fd5b5061030d6004803603810190610308919061232f565b6110e8565b60405161031a9190612509565b60405180910390f35b34801561032f57600080fd5b5061034a60048036038101906103459190612524565b611100565b005b34801561035857600080fd5b50610373600480360381019061036e9190612392565b611392565b005b61037d61168b565b005b34801561038b57600080fd5b506103a660048036038101906103a19190612392565b6117b3565b005b3480156103b457600080fd5b506103cf60048036038101906103ca919061232f565b6119a1565b6040516103dc91906124ee565b60405180910390f35b3480156103f157600080fd5b506103fa6119c1565b60405161040791906126ce565b60405180910390f35b34801561041c57600080fd5b506104376004803603810190610432919061232f565b611b90565b005b610453600480360381019061044e91906126f0565b611cc5565b005b34801561046157600080fd5b5061046a611f76565b6040516104779190612509565b60405180910390f35b34801561048c57600080fd5b506104a760048036038101906104a2919061232f565b611f7c565b005b3480156104b557600080fd5b506104d060048036038101906104cb919061232f565b612105565b6040516104dd91906124ee565b60405180910390f35b3480156104f257600080fd5b5061050d6004803603810190610508919061232f565b6121f6565b60405161051a91906124ee565b60405180910390f35b34801561052f57600080fd5b5061054a6004803603810190610545919061232f565b612216565b6040516105579190612509565b60405180910390f35b60008054906101000a900473ffffffffffffffffffffffffffffffffffffffff1673ffffffffffffffffffffffffffffffffffffffff163373ffffffffffffffffffffffffffffffffffffffff1614806106035750600160003373ffffffffffffffffffffffffffffffffffffffff1673ffffffffffffffffffffffffffffffffffffffff16815260200190815260200160002060009054906101000a900460ff165b610642576040517f08c379a0000000000000000000000000000000000000000000000000000000008152600401610639906127c6565b60405180910390fd5b6000600360008373ffffffffffffffffffffffffffffffffffffffff1673ffffffffffffffffffffffffffffffffffffffff16815260200190815260200160002060006101000a81548160ff0219169083151502179055508073ffffffffffffffffffffffffffffffffffffffff167f9f43a01c0d4ff5aff09b3b9b472df707ceefd3f948f8942f10fa1562a89213046040516106de90612832565b60405180910390a250565b60056020528060005260406000206000915090508060000160009054906101000a900473ffffffffffffffffffffffffffffffffffffffff16908060010160009054906101000a900473ffffffffffffffffffffffffffffffffffffffff16908060020154908060030154908060040154908060050160009054906101000a900460ff16908060050160019054906101000a900460ff16905087565b60008054906101000a900473ffffffffffffffffffffffffffffffffffffffff1673ffffffffffffffffffffffffffffffffffffffff163373ffffffffffffffffffffffffffffffffffffffff1614610813576040517f08c379a000000000000000000000000000000000000000000000000000000000815260040161080a9061289e565b60405180910390fd5b60018060008373ffffffffffffffffffffffffffffffffffffffff1673ffffffffffffffffffffffffffffffffffffffff16815260200190815260200160002060006101000a81548160ff0219169083151502179055508073ffffffffffffffffffffffffffffffffffffffff167fb710f7d3e79cb091613cfea70444ea824ad23f2b1297bdea427bc6f097e346a86040516108ae9061290a565b60405180910390a250565b80600460003373ffffffffffffffffffffffffffffffffffffffff1673ffffffffffffffffffffffffffffffffffffffff16815260200190815260200160002054101561093b576040517f08c379a000000000000000000000000000000000000000000000000000000000815260040161093290612976565b60405180910390fd5b61094433612105565b15610984576040517f08c379a000000000000000000000000000000000000000000000000000000000815260040161097b90612a08565b60405180910390fd5b80600460003373ffffffffffffffffffffffffffffffffffffffff1673ffffffffffffffffffffffffffffffffffffffff16815260200190815260200160002060008282546109d39190612a57565b925050819055503373ffffffffffffffffffffffffffffffffffffffff166108fc829081150290604051600060405180830381858888f19350505050158015610a20573d6000803e3d6000fd5b503373ffffffffffffffffffffffffffffffffffffffff167f9d7738c023477a5b86ae35a624ebf37f2d711eac3e8bfc9822c80e5d510fdbc6600460003373ffffffffffffffffffffffffffffffffffffffff1673ffffffffffffffffffffffffffffffffffffffff16815260200190815260200160002054604051610aa69190612509565b60405180910390a250565b60008054906101000a900473ffffffffffffffffffffffffffffffffffffffff1673ffffffffffffffffffffffffffffffffffffffff163373ffffffffffffffffffffffffffffffffffffffff161480610b545750600160003373ffffffffffffffffffffffffffffffffffffffff1673ffffffffffffffffffffffffffffffffffffffff16815260200190815260200160002060009054906101000a900460ff165b610b93576040517f08c379a0000000000000000000000000000000000000000000000000000000008152600401610b8a906127c6565b60405180910390fd5b60006005600084815260200190815260200160002090508060050160009054906101000a900460ff16610bfb576040517f08c379a0000000000000000000000000000000000000000000000000000000008152600401610bf290612ad7565b60405180910390fd5b8060050160019054906101000a900460ff1615610c4d576040517f08c379a0000000000000000000000000000000000000000000000000000000008152600401610c4490612b43565b60405180910390fd5b60018160050160016101000a81548160ff0219169083151502179055508115610ce4578060000160009054906101000a900473ffffffffffffffffffffffffffffffffffffffff1673ffffffffffffffffffffffffffffffffffffffff166108fc82600201549081150290604051600060405180830381858888f19350505050158015610cde573d6000803e3d6000fd5b50610d54565b8060010160009054906101000a900473ffffffffffffffffffffffffffffffffffffffff1673ffffffffffffffffffffffffffffffffffffffff166108fc82600201549081150290604051600060405180830381858888f19350505050158015610d52573d6000803e3d6000fd5b505b7f5a87909bff68caaaaf0b3fd9c74eeccc928832f879315e5c6fb7a73612f26c0c8383604051610d85929190612b63565b60405180910390a1505050565b60008054906101000a900473ffffffffffffffffffffffffffffffffffffffff1673ffffffffffffffffffffffffffffffffffffffff163373ffffffffffffffffffffffffffffffffffffffff161480610e355750600160003373ffffffffffffffffffffffffffffffffffffffff1673ffffffffffffffffffffffffffffffffffffffff16815260200190815260200160002060009054906101000a900460ff165b610e74576040517f08c379a0000000000000000000000000000000000000000000000000000000008152600401610e6b906127c6565b60405180910390fd5b6001600360008373ffffffffffffffffffffffffffffffffffffffff1673ffffffffffffffffffffffffffffffffffffffff16815260200190815260200160002060006101000a81548160ff0219169083151502179055508073ffffffffffffffffffffffffffffffffffffffff167fb710f7d3e79cb091613cfea70444ea824ad23f2b1297bdea427bc6f097e346a8604051610f1090612832565b60405180910390a250565b60008054906101000a900473ffffffffffffffffffffffffffffffffffffffff1681565b60036020528060005260406000206000915054906101000a900460ff1681565b60008054906101000a900473ffffffffffffffffffffffffffffffffffffffff1673ffffffffffffffffffffffffffffffffffffffff163373ffffffffffffffffffffffffffffffffffffffff1614806110025750600160003373ffffffffffffffffffffffffffffffffffffffff1673ffffffffffffffffffffffffffffffffffffffff16815260200190815260200160002060009054906101000a900460ff165b611041576040517f08c379a0000000000000000000000000000000000000000000000000000000008152600401611038906127c6565b60405180910390fd5b6000600260008373ffffffffffffffffffffffffffffffffffffffff1673ffffffffffffffffffffffffffffffffffffffff16815260200190815260200160002060006101000a81548160ff0219169083151502179055508073ffffffffffffffffffffffffffffffffffffffff167f9f43a01c0d4ff5aff09b3b9b472df707ceefd3f948f8942f10fa1562a89213046040516110dd90612bd8565b60405180910390a250565b60046020528060005260406000206000915090505481565b60008054906101000a900473ffffffffffffffffffffffffffffffffffffffff1673ffffffffffffffffffffffffffffffffffffffff163373ffffffffffffffffffffffffffffffffffffffff1614806111a35750600160003373ffffffffffffffffffffffffffffffffffffffff1673ffffffffffffffffffffffffffffffffffffffff16815260200190815260200160002060009054906101000a900460ff165b6111e2576040517f08c379a00000000000000000000000000000000000000000000000000000000081526004016111d9906127c6565b60405180910390fd5b80600460008473ffffffffffffffffffffffffffffffffffffffff1673ffffffffffffffffffffffffffffffffffffffff168152602001908152602001600020541015611264576040517f08c379a000000000000000000000000000000000000000000000000000000000815260040161125b90612976565b60405180910390fd5b80600460008473ffffffffffffffffffffffffffffffffffffffff1673ffffffffffffffffffffffffffffffffffffffff16815260200190815260200160002060008282546112b39190612a57565b925050819055503373ffffffffffffffffffffffffffffffffffffffff166108fc829081150290604051600060405180830381858888f19350505050158015611300573d6000803e3d6000fd5b508173ffffffffffffffffffffffffffffffffffffffff167f9d7738c023477a5b86ae35a624ebf37f2d711eac3e8bfc9822c80e5d510fdbc6600460008573ffffffffffffffffffffffffffffffffffffffff1673ffffffffffffffffffffffffffffffffffffffff168152602001908152602001600020546040516113869190612509565b60405180910390a25050565b60008054906101000a900473ffffffffffffffffffffffffffffffffffffffff1673ffffffffffffffffffffffffffffffffffffffff163373ffffffffffffffffffffffffffffffffffffffff1614806114355750600160003373ffffffffffffffffffffffffffffffffffffffff1673ffffffffffffffffffffffffffffffffffffffff16815260200190815260200160002060009054906101000a900460ff165b611474576040517f08c379a000000000000000000000000000000000000000000000000000000000815260040161146b906127c6565b60405180910390fd5b600060056000838152602001908152602001600020905062093a80816004015461149e9190612bf8565b42116114df576040517f08c379a00000000000000000000000000000000000000000000000000000000081526004016114d690612c78565b60405180910390fd5b8060050160009054906101000a900460ff1615611531576040517f08c379a000000000000000000000000000000000000000000000000000000000815260040161152890612ce4565b60405180910390fd5b8060050160019054906101000a900460ff1615611583576040517f08c379a000000000000000000000000000000000000000000000000000000000815260040161157a90612d50565b60405180910390fd5b60018160050160016101000a81548160ff0219169083151502179055508060010160009054906101000a900473ffffffffffffffffffffffffffffffffffffffff1673ffffffffffffffffffffffffffffffffffffffff166108fc82600201549081150290604051600060405180830381858888f1935050505015801561160e573d6000803e3d6000fd5b508060010160009054906101000a900473ffffffffffffffffffffffffffffffffffffffff1673ffffffffffffffffffffffffffffffffffffffff167f21d71db5be59bb9fa133895586b7404307dd33fb93b16db09dc6f1d9d7d231b083836002015460405161167f929190612d70565b60405180910390a25050565b600034116116ce576040517f08c379a00000000000000000000000000000000000000000000000000000000081526004016116c590612e0b565b60405180910390fd5b34600460003373ffffffffffffffffffffffffffffffffffffffff1673ffffffffffffffffffffffffffffffffffffffff168152602001908152602001600020600082825461171d9190612bf8565b925050819055503373ffffffffffffffffffffffffffffffffffffffff167f9d7738c023477a5b86ae35a624ebf37f2d711eac3e8bfc9822c80e5d510fdbc6600460003373ffffffffffffffffffffffffffffffffffffffff1673ffffffffffffffffffffffffffffffffffffffff168152602001908152602001600020546040516117a99190612509565b60405180910390a2565b60006005600083815260200190815260200160002090508060000160009054906101000a900473ffffffffffffffffffffffffffffffffffffffff1673ffffffffffffffffffffffffffffffffffffffff163373ffffffffffffffffffffffffffffffffffffffff161461185c576040517f08c379a000000000000000000000000000000000000000000000000000000000815260040161185390612e77565b60405180910390fd5b806004015442116118a2576040517f08c379a000000000000000000000000000000000000000000000000000000000815260040161189990612ee3565b60405180910390fd5b62093a8081600401546118b59190612bf8565b4211156118f7576040517f08c379a00000000000000000000000000000000000000000000000000000000081526004016118ee90612f4f565b60405180910390fd5b8060050160009054906101000a900460ff1615611949576040517f08c379a000000000000000000000000000000000000000000000000000000000815260040161194090612fbb565b60405180910390fd5b60018160050160006101000a81548160ff0219169083151502179055507f04901f83201c8724eadf084436db8aa391820bae6d11f9f78a17edb6f2eef3cf826040516119959190612509565b60405180910390a15050565b60026020528060005260406000206000915054906101000a900460ff1681565b6060600060065467ffffffffffffffff8111156119e1576119e0612fdb565b5b604051908082528060200260200182016040528015611a1a57816020015b611a0761225f565b8152602001906001900390816119ff5790505b5090506000600190505b6006548111611b8857600560008281526020019081526020016000206040518060e00160405290816000820160009054906101000a900473ffffffffffffffffffffffffffffffffffffffff1673ffffffffffffffffffffffffffffffffffffffff1673ffffffffffffffffffffffffffffffffffffffff1681526020016001820160009054906101000a900473ffffffffffffffffffffffffffffffffffffffff1673ffffffffffffffffffffffffffffffffffffffff1673ffffffffffffffffffffffffffffffffffffffff1681526020016002820154815260200160038201548152602001600482015481526020016005820160009054906101000a900460ff161515151581526020016005820160019054906101000a900460ff16151515158152505082600183611b599190612a57565b81518110611b6a57611b6961300a565b5b60200260200101819052508080611b8090613039565b915050611a24565b508091505090565b60008054906101000a900473ffffffffffffffffffffffffffffffffffffffff1673ffffffffffffffffffffffffffffffffffffffff163373ffffffffffffffffffffffffffffffffffffffff1614611c1e576040517f08c379a0000000000000000000000000000000000000000000000000000000008152600401611c159061289e565b60405180910390fd5b6000600160008373ffffffffffffffffffffffffffffffffffffffff1673ffffffffffffffffffffffffffffffffffffffff16815260200190815260200160002060006101000a81548160ff0219169083151502179055508073ffffffffffffffffffffffffffffffffffffffff167f9f43a01c0d4ff5aff09b3b9b472df707ceefd3f948f8942f10fa1562a8921304604051611cba9061290a565b60405180910390a250565b60003411611d08576040517f08c379a0000000000000000000000000000000000000000000000000000000008152600401611cff906130cd565b60405180910390fd5b60006064600534611d1991906130ed565b611d23919061315e565b905060008134611d339190612a57565b905060008054906101000a900473ffffffffffffffffffffffffffffffffffffffff1673ffffffffffffffffffffffffffffffffffffffff166108fc839081150290604051600060405180830381858888f19350505050158015611d9b573d6000803e3d6000fd5b5060066000815480929190611daf90613039565b91905055506040518060e001604052803373ffffffffffffffffffffffffffffffffffffffff1681526020018673ffffffffffffffffffffffffffffffffffffffff1681526020018281526020018581526020018481526020016000151581526020016000151581525060056000600654815260200190815260200160002060008201518160000160006101000a81548173ffffffffffffffffffffffffffffffffffffffff021916908373ffffffffffffffffffffffffffffffffffffffff16021790555060208201518160010160006101000a81548173ffffffffffffffffffffffffffffffffffffffff021916908373ffffffffffffffffffffffffffffffffffffffff16021790555060408201518160020155606082015181600301556080820151816004015560a08201518160050160006101000a81548160ff02191690831515021790555060c08201518160050160016101000a81548160ff0219169083151502179055509050503373ffffffffffffffffffffffffffffffffffffffff167f2f7fe642525d9b234e73785ebf60e0f91cf7c96ef78c0ec4fcfe755a398d93b160065483604051611f67929190612d70565b60405180910390a25050505050565b60065481565b60008054906101000a900473ffffffffffffffffffffffffffffffffffffffff1673ffffffffffffffffffffffffffffffffffffffff163373ffffffffffffffffffffffffffffffffffffffff16148061201f5750600160003373ffffffffffffffffffffffffffffffffffffffff1673ffffffffffffffffffffffffffffffffffffffff16815260200190815260200160002060009054906101000a900460ff165b61205e576040517f08c379a0000000000000000000000000000000000000000000000000000000008152600401612055906127c6565b60405180910390fd5b6001600260008373ffffffffffffffffffffffffffffffffffffffff1673ffffffffffffffffffffffffffffffffffffffff16815260200190815260200160002060006101000a81548160ff0219169083151502179055508073ffffffffffffffffffffffffffffffffffffffff167fb710f7d3e79cb091613cfea70444ea824ad23f2b1297bdea427bc6f097e346a86040516120fa90612bd8565b60405180910390a250565b600080600190505b60065481116121eb578273ffffffffffffffffffffffffffffffffffffffff166005600083815260200190815260200160002060010160009054906101000a900473ffffffffffffffffffffffffffffffffffffffff1673ffffffffffffffffffffffffffffffffffffffff1614801561219c5750600560008281526020019081526020016000206004015442105b80156121c957506005600082815260200190815260200160002060050160019054906101000a900460ff16155b156121d85760019150506121f1565b80806121e390613039565b91505061210d565b50600090505b919050565b60016020528060005260406000206000915054906101000a900460ff1681565b6000600460008373ffffffffffffffffffffffffffffffffffffffff1673ffffffffffffffffffffffffffffffffffffffff168152602001908152602001600020549050919050565b6040518060e00160405280600073ffffffffffffffffffffffffffffffffffffffff168152602001600073ffffffffffffffffffffffffffffffffffffffff1681526020016000815260200160008152602001600081526020016000151581526020016000151581525090565b600080fd5b600073ffffffffffffffffffffffffffffffffffffffff82169050919050565b60006122fc826122d1565b9050919050565b61230c816122f1565b811461231757600080fd5b50565b60008135905061232981612303565b92915050565b600060208284031215612345576123446122cc565b5b60006123538482850161231a565b91505092915050565b6000819050919050565b61236f8161235c565b811461237a57600080fd5b50565b60008135905061238c81612366565b92915050565b6000602082840312156123a8576123a76122cc565b5b60006123b68482850161237d565b91505092915050565b6123c8816122f1565b82525050565b6123d78161235c565b82525050565b60008115159050919050565b6123f2816123dd565b82525050565b600060e08201905061240d600083018a6123bf565b61241a60208301896123bf565b61242760408301886123ce565b61243460608301876123ce565b61244160808301866123ce565b61244e60a08301856123e9565b61245b60c08301846123e9565b98975050505050505050565b612470816123dd565b811461247b57600080fd5b50565b60008135905061248d81612467565b92915050565b600080604083850312156124aa576124a96122cc565b5b60006124b88582860161237d565b92505060206124c98582860161247e565b9150509250929050565b60006020820190506124e860008301846123bf565b92915050565b600060208201905061250360008301846123e9565b92915050565b600060208201905061251e60008301846123ce565b92915050565b6000806040838503121561253b5761253a6122cc565b5b60006125498582860161231a565b925050602061255a8582860161237d565b9150509250929050565b600081519050919050565b600082825260208201905092915050565b6000819050602082019050919050565b612599816122f1565b82525050565b6125a88161235c565b82525050565b6125b7816123dd565b82525050565b60e0820160008201516125d36000850182612590565b5060208201516125e66020850182612590565b5060408201516125f9604085018261259f565b50606082015161260c606085018261259f565b50608082015161261f608085018261259f565b5060a082015161263260a08501826125ae565b5060c082015161264560c08501826125ae565b50505050565b600061265783836125bd565b60e08301905092915050565b6000602082019050919050565b600061267b82612564565b612685818561256f565b935061269083612580565b8060005b838110156126c15781516126a8888261264b565b97506126b383612663565b925050600181019050612694565b5085935050505092915050565b600060208201905081810360008301526126e88184612670565b905092915050565b600080600060608486031215612709576127086122cc565b5b60006127178682870161231a565b93505060206127288682870161237d565b92505060406127398682870161237d565b9150509250925092565b600082825260208201905092915050565b7f4e6f7420617574686f72697a65643a2041646d696e206f72204d616e6167657260008201527f206f6e6c79000000000000000000000000000000000000000000000000000000602082015250565b60006127b0602583612743565b91506127bb82612754565b604082019050919050565b600060208201905081810360008301526127df816127a3565b9050919050565b7f52656e7465720000000000000000000000000000000000000000000000000000600082015250565b600061281c600683612743565b9150612827826127e6565b602082019050919050565b6000602082019050818103600083015261284b8161280f565b9050919050565b7f4e6f7420617574686f72697a65643a2041646d696e206f6e6c79000000000000600082015250565b6000612888601a83612743565b915061289382612852565b602082019050919050565b600060208201905081810360008301526128b78161287b565b9050919050565b7f4d616e6167657200000000000000000000000000000000000000000000000000600082015250565b60006128f4600783612743565b91506128ff826128be565b602082019050919050565b60006020820190508181036000830152612923816128e7565b9050919050565b7f496e73756666696369656e74206465706f736974000000000000000000000000600082015250565b6000612960601483612743565b915061296b8261292a565b602082019050919050565b6000602082019050818103600083015261298f81612953565b9050919050565b7f43616e6e6f7420776974686472617720776974682061637469766520626f6f6b60008201527f696e677300000000000000000000000000000000000000000000000000000000602082015250565b60006129f2602483612743565b91506129fd82612996565b604082019050919050565b60006020820190508181036000830152612a21816129e5565b9050919050565b7f4e487b7100000000000000000000000000000000000000000000000000000000600052601160045260246000fd5b6000612a628261235c565b9150612a6d8361235c565b9250828203905081811115612a8557612a84612a28565b5b92915050565b7f4e6f206469737075746520726169736564000000000000000000000000000000600082015250565b6000612ac1601183612743565b9150612acc82612a8b565b602082019050919050565b60006020820190508181036000830152612af081612ab4565b9050919050565b7f4469737075746520616c7265616479207265736f6c7665640000000000000000600082015250565b6000612b2d601883612743565b9150612b3882612af7565b602082019050919050565b60006020820190508181036000830152612b5c81612b20565b9050919050565b6000604082019050612b7860008301856123ce565b612b8560208301846123e9565b9392505050565b7f486f737400000000000000000000000000000000000000000000000000000000600082015250565b6000612bc2600483612743565b9150612bcd82612b8c565b602082019050919050565b60006020820190508181036000830152612bf181612bb5565b9050919050565b6000612c038261235c565b9150612c0e8361235c565b9250828201905080821115612c2657612c25612a28565b5b92915050565b7f4469737075746520706572696f64206e6f7420656e6465640000000000000000600082015250565b6000612c62601883612743565b9150612c6d82612c2c565b602082019050919050565b60006020820190508181036000830152612c9181612c55565b9050919050565b7f4469737075746520726169736564000000000000000000000000000000000000600082015250565b6000612cce600e83612743565b9150612cd982612c98565b602082019050919050565b60006020820190508181036000830152612cfd81612cc1565b9050919050565b7f5061796d656e7420616c72656164792072656c65617365640000000000000000600082015250565b6000612d3a601883612743565b9150612d4582612d04565b602082019050919050565b60006020820190508181036000830152612d6981612d2d565b9050919050565b6000604082019050612d8560008301856123ce565b612d9260208301846123ce565b9392505050565b7f4465706f736974206d7573742062652067726561746572207468616e207a657260008201527f6f00000000000000000000000000000000000000000000000000000000000000602082015250565b6000612df5602183612743565b9150612e0082612d99565b604082019050919050565b60006020820190508181036000830152612e2481612de8565b9050919050565b7f4f6e6c792072656e7465722063616e2072616973652061206469737075746500600082015250565b6000612e61601f83612743565b9150612e6c82612e2b565b602082019050919050565b60006020820190508181036000830152612e9081612e54565b9050919050565b7f426f6f6b696e6720706572696f64206e6f7420656e6465640000000000000000600082015250565b6000612ecd601883612743565b9150612ed882612e97565b602082019050919050565b60006020820190508181036000830152612efc81612ec0565b9050919050565b7f4469737075746520706572696f642068617320656e6465640000000000000000600082015250565b6000612f39601883612743565b9150612f4482612f03565b602082019050919050565b60006020820190508181036000830152612f6881612f2c565b9050919050565b7f4469737075746520616c72656164792072616973656400000000000000000000600082015250565b6000612fa5601683612743565b9150612fb082612f6f565b602082019050919050565b60006020820190508181036000830152612fd481612f98565b9050919050565b7f4e487b7100000000000000000000000000000000000000000000000000000000600052604160045260246000fd5b7f4e487b7100000000000000000000000000000000000000000000000000000000600052603260045260246000fd5b60006130448261235c565b91507fffffffffffffffffffffffffffffffffffffffffffffffffffffffffffffffff820361307657613075612a28565b5b600182019050919050565b7f5061796d656e74206d7573742062652067726561746572207468616e20300000600082015250565b60006130b7601e83612743565b91506130c282613081565b602082019050919050565b600060208201905081810360008301526130e6816130aa565b9050919050565b60006130f88261235c565b91506131038361235c565b92508282026131118161235c565b9150828204841483151761312857613127612a28565b5b5092915050565b7f4e487b7100000000000000000000000000000000000000000000000000000000600052601260045260246000fd5b60006131698261235c565b91506131748361235c565b9250826131845761318361312f565b5b82820490509291505056fea2646970667358221220761d277c23b979f3276a0bf5ec77f56afef3201259692124985654630431134a64736f6c63430008180033",
  "linkReferences": {},
  "deployedLinkReferences": {}
}