{
  "_format": "hh-sol-artifact-1",
  "contractName": "RentalPayments",
  "sourceName": "contracts/RentalPayments.sol",
  "abi": [
    {
      "inputs": [],
      "stateMutability": "nonpayable",
      "type": "constructor"
    },
    {
      "inputs": [],
      "name": "ReentrancyGuardReentrantCall",
      "type": "error"
    },
    {
      "anonymous": false,
      "inputs": [
        {
          "indexed": false,
          "internalType": "uint256",
          "name": "bookingId",
          "type": "uint256"
        }
      ],
      "name": "DisputeRaised",
      "type": "event"
    },
    {
      "anonymous": false,
      "inputs": [
        {
          "indexed": false,
          "internalType": "uint256",
          "name": "bookingId",
          "type": "uint256"
        },
        {
          "indexed": false,
          "internalType": "bool",
          "name": "favorRenter",
          "type": "bool"
        }
      ],
      "name": "DisputeResolved",
      "type": "event"
    },
    {
      "anonymous": false,
      "inputs": [
        {
          "indexed": false,
          "internalType": "uint256",
          "name": "bookingId",
          "type": "uint256"
        },
        {
          "indexed": true,
          "internalType": "address",
          "name": "owner",
          "type": "address"
        },
        {
          "indexed": false,
          "internalType": "uint256",
          "name": "amount",
          "type": "uint256"
        }
      ],
      "name": "GuestDepositClaimed",
      "type": "event"
    },
    {
      "anonymous": false,
      "inputs": [
        {
          "indexed": false,
          "internalType": "uint256",
          "name": "bookingId",
          "type": "uint256"
        },
        {
          "indexed": true,
          "internalType": "address",
          "name": "renter",
          "type": "address"
        },
        {
          "indexed": false,
          "internalType": "uint256",
          "name": "amount",
          "type": "uint256"
        }
      ],
      "name": "GuestDepositRefunded",
      "type": "event"
    },
    {
      "anonymous": false,
      "inputs": [
        {
          "indexed": true,
          "internalType": "address",
          "name": "host",
          "type": "address"
        },
        {
          "indexed": false,
          "internalType": "uint256",
          "name": "newStakeAmount",
          "type": "uint256"
        }
      ],
      "name": "HostStakeUpdated",
      "type": "event"
    },
    {
      "anonymous": false,
      "inputs": [
        {
          "indexed": false,
          "internalType": "uint256",
          "name": "bookingId",
          "type": "uint256"
        },
        {
          "indexed": true,
          "internalType": "address",
          "name": "renter",
          "type": "address"
        },
        {
          "indexed": false,
          "internalType": "uint256",
          "name": "amount",
          "type": "uint256"
        },
        {
          "indexed": false,
          "internalType": "uint256",
          "name": "guestDeposit",
          "type": "uint256"
        }
      ],
      "name": "PaymentInitiated",
      "type": "event"
    },
    {
      "anonymous": false,
      "inputs": [
        {
          "indexed": false,
          "internalType": "uint256",
          "name": "bookingId",
          "type": "uint256"
        },
        {
          "indexed": true,
          "internalType": "address",
          "name": "owner",
          "type": "address"
        },
        {
          "indexed": false,
          "internalType": "uint256",
          "name": "amount",
          "type": "uint256"
        }
      ],
      "name": "PaymentReleased",
      "type": "event"
    },
    {
      "anonymous": false,
      "inputs": [
        {
          "indexed": true,
          "internalType": "address",
          "name": "account",
          "type": "address"
        },
        {
          "indexed": false,
          "internalType": "string",
          "name": "role",
          "type": "string"
        }
      ],
      "name": "RoleGranted",
      "type": "event"
    },
    {
      "anonymous": false,
      "inputs": [
        {
          "indexed": true,
          "internalType": "address",
          "name": "account",
          "type": "address"
        },
        {
          "indexed": false,
          "internalType": "string",
          "name": "role",
          "type": "string"
        }
      ],
      "name": "RoleRevoked",
      "type": "event"
    },
    {
      "inputs": [],
      "name": "admin",
      "outputs": [
        {
          "internalType": "address",
          "name": "",
          "type": "address"
        }
      ],
      "stateMutability": "view",
      "type": "function"
    },
    {
      "inputs": [],
      "name": "bookingCounter",
      "outputs": [
        {
          "internalType": "uint256",
          "name": "",
          "type": "uint256"
        }
      ],
      "stateMutability": "view",
      "type": "function"
    },
    {
      "inputs": [
        {
          "internalType": "uint256",
          "name": "",
          "type": "uint256"
        }
      ],
      "name": "bookings",
      "outputs": [
        {
          "internalType": "address",
          "name": "renter",
          "type": "address"
        },
        {
          "internalType": "address",
          "name": "owner",
          "type": "address"
        },
        {
          "internalType": "uint256",
          "name": "amount",
          "type": "uint256"
        },
        {
          "internalType": "uint256",
          "name": "guestDeposit",
          "type": "uint256"
        },
        {
          "internalType": "uint256",
          "name": "startTime",
          "type": "uint256"
        },
        {
          "internalType": "uint256",
          "name": "endTime",
          "type": "uint256"
        },
        {
          "internalType": "bool",
          "name": "isDisputeRaised",
          "type": "bool"
        },
        {
          "internalType": "bool",
          "name": "isResolved",
          "type": "bool"
        },
        {
          "internalType": "bool",
          "name": "guestDepositClaimed",
          "type": "bool"
        }
      ],
      "stateMutability": "view",
      "type": "function"
    },
    {
      "inputs": [
        {
          "internalType": "address",
          "name": "host",
          "type": "address"
        }
      ],
      "name": "checkHostStake",
      "outputs": [
        {
          "internalType": "uint256",
          "name": "",
          "type": "uint256"
        }
      ],
      "stateMutability": "view",
      "type": "function"
    },
    {
      "inputs": [
        {
          "internalType": "uint256",
          "name": "bookingId",
          "type": "uint256"
        },
        {
          "internalType": "uint256",
          "name": "amount",
          "type": "uint256"
        }
      ],
      "name": "claimGuestDeposit",
      "outputs": [],
      "stateMutability": "nonpayable",
      "type": "function"
    },
    {
      "inputs": [
        {
          "internalType": "address",
          "name": "host",
          "type": "address"
        },
        {
          "internalType": "uint256",
          "name": "amount",
          "type": "uint256"
        }
      ],
      "name": "deductHostStake",
      "outputs": [],
      "stateMutability": "nonpayable",
      "type": "function"
    },
    {
      "inputs": [],
      "name": "depositHostStake",
      "outputs": [],
      "stateMutability": "payable",
      "type": "function"
    },
    {
      "inputs": [],
      "name": "getAllRentalPayments",
      "outputs": [
        {
          "components": [
            {
              "internalType": "address",
              "name": "renter",
              "type": "address"
            },
            {
              "internalType": "address",
              "name": "owner",
              "type": "address"
            },
            {
              "internalType": "uint256",
              "name": "amount",
              "type": "uint256"
            },
            {
              "internalType": "uint256",
              "name": "guestDeposit",
              "type": "uint256"
            },
            {
              "internalType": "uint256",
              "name": "startTime",
              "type": "uint256"
            },
            {
              "internalType": "uint256",
              "name": "endTime",
              "type": "uint256"
            },
            {
              "internalType": "bool",
              "name": "isDisputeRaised",
              "type": "bool"
            },
            {
              "internalType": "bool",
              "name": "isResolved",
              "type": "bool"
            },
            {
              "internalType": "bool",
              "name": "guestDepositClaimed",
              "type": "bool"
            }
          ],
          "internalType": "struct RentalPayments.Booking[]",
          "name": "",
          "type": "tuple[]"
        }
      ],
      "stateMutability": "view",
      "type": "function"
    },
    {
      "inputs": [
        {
          "internalType": "address",
          "name": "account",
          "type": "address"
        }
      ],
      "name": "grantManagerRole",
      "outputs": [],
      "stateMutability": "nonpayable",
      "type": "function"
    },
    {
      "inputs": [
        {
          "internalType": "address",
          "name": "host",
          "type": "address"
        }
      ],
      "name": "hasActiveBookings",
      "outputs": [
        {
          "internalType": "bool",
          "name": "",
          "type": "bool"
        }
      ],
      "stateMutability": "view",
      "type": "function"
    },
    {
      "inputs": [
        {
          "internalType": "address",
          "name": "",
          "type": "address"
        }
      ],
      "name": "hostStakes",
      "outputs": [
        {
          "internalType": "uint256",
          "name": "",
          "type": "uint256"
        }
      ],
      "stateMutability": "view",
      "type": "function"
    },
    {
      "inputs": [
        {
          "internalType": "address",
          "name": "",
          "type": "address"
        }
      ],
      "name": "hosts",
      "outputs": [
        {
          "internalType": "bool",
          "name": "",
          "type": "bool"
        }
      ],
      "stateMutability": "view",
      "type": "function"
    },
    {
      "inputs": [
        {
          "internalType": "address",
          "name": "owner",
          "type": "address"
        },
        {
          "internalType": "uint256",
          "name": "startTime",
          "type": "uint256"
        },
        {
          "internalType": "uint256",
          "name": "endTime",
          "type": "uint256"
        }
      ],
      "name": "initiatePayment",
      "outputs": [],
      "stateMutability": "payable",
      "type": "function"
    },
    {
      "inputs": [
        {
          "internalType": "address",
          "name": "",
          "type": "address"
        }
      ],
      "name": "managers",
      "outputs": [
        {
          "internalType": "bool",
          "name": "",
          "type": "bool"
        }
      ],
      "stateMutability": "view",
      "type": "function"
    },
    {
      "inputs": [
        {
          "internalType": "uint256",
          "name": "bookingId",
          "type": "uint256"
        }
      ],
      "name": "raiseDispute",
      "outputs": [],
      "stateMutability": "nonpayable",
      "type": "function"
    },
    {
      "inputs": [
        {
          "internalType": "uint256",
          "name": "bookingId",
          "type": "uint256"
        }
      ],
      "name": "refundGuestDeposit",
      "outputs": [],
      "stateMutability": "nonpayable",
      "type": "function"
    },
    {
      "inputs": [
        {
          "internalType": "uint256",
          "name": "bookingId",
          "type": "uint256"
        }
      ],
      "name": "releasePayment",
      "outputs": [],
      "stateMutability": "nonpayable",
      "type": "function"
    },
    {
      "inputs": [
        {
          "internalType": "address",
          "name": "",
          "type": "address"
        }
      ],
      "name": "renters",
      "outputs": [
        {
          "internalType": "bool",
          "name": "",
          "type": "bool"
        }
      ],
      "stateMutability": "view",
      "type": "function"
    },
    {
      "inputs": [
        {
          "internalType": "uint256",
          "name": "bookingId",
          "type": "uint256"
        },
        {
          "internalType": "bool",
          "name": "favorRenter",
          "type": "bool"
        }
      ],
      "name": "resolveDispute",
      "outputs": [],
      "stateMutability": "nonpayable",
      "type": "function"
    },
    {
      "inputs": [
        {
          "internalType": "address",
          "name": "account",
          "type": "address"
        }
      ],
      "name": "revokeManagerRole",
      "outputs": [],
      "stateMutability": "nonpayable",
      "type": "function"
    },
    {
      "inputs": [
        {
          "internalType": "uint256",
          "name": "amount",
          "type": "uint256"
        }
      ],
      "name": "withdrawHostStake",
      "outputs": [],
      "stateMutability": "nonpayable",
      "type": "function"
    }
  ],
  "bytecode": "0x608060405234801561001057600080fd5b50600160008190555033600160006101000a81548173ffffffffffffffffffffffffffffffffffffffff021916908373ffffffffffffffffffffffffffffffffffffffff16021790555061326c806100696000396000f3fe60806040526004361061012a5760003560e01c8063a8562a98116100ab578063cdff978b1161006f578063cdff978b146103f7578063d287ac4214610401578063db65ae881461042c578063f851a44014610455578063fbabc95c14610480578063fdff9b4d146104bd5761012a565b8063a8562a9814610321578063b9ced5fe1461034a578063bb2272a914610387578063be4dc94f146103b2578063cd856c74146103db5761012a565b8063644a1370116100f2578063644a13701461022c5780636d3049cc1461026957806385283dcf146102a657806388685cd9146102cf578063a5c1674e146102f85761012a565b80631dab301e1461012f57806326e885e3146101745780632e33b6251461019d57806334b25ee2146101c65780635fbe1919146101ef575b600080fd5b34801561013b57600080fd5b5061015660048036038101906101519190612315565b6104fa565b60405161016b999897969594939291906123ad565b60405180910390f35b34801561018057600080fd5b5061019b60048036038101906101969190612466565b6105af565b005b3480156101a957600080fd5b506101c460048036038101906101bf9190612315565b6106e6565b005b3480156101d257600080fd5b506101ed60048036038101906101e891906124bf565b610957565b005b3480156101fb57600080fd5b5061021660048036038101906102119190612466565b610c4a565b60405161022391906124ff565b60405180910390f35b34801561023857600080fd5b50610253600480360381019061024e9190612466565b610c62565b604051610260919061251a565b60405180910390f35b34801561027557600080fd5b50610290600480360381019061028b9190612466565b610c82565b60405161029d91906124ff565b60405180910390f35b3480156102b257600080fd5b506102cd60048036038101906102c89190612315565b610ccb565b005b3480156102db57600080fd5b506102f660048036038101906102f19190612315565b610ed3565b005b34801561030457600080fd5b5061031f600480360381019061031a9190612315565b6111de565b005b34801561032d57600080fd5b5061034860048036038101906103439190612535565b6113cc565b005b34801561035657600080fd5b50610371600480360381019061036c9190612466565b611670565b60405161037e919061251a565b60405180910390f35b34801561039357600080fd5b5061039c611690565b6040516103a99190612709565b60405180910390f35b3480156103be57600080fd5b506103d960048036038101906103d49190612466565b611885565b005b6103f560048036038101906103f0919061272b565b6119bc565b005b6103ff611ce7565b005b34801561040d57600080fd5b50610416611e0f565b60405161042391906124ff565b60405180910390f35b34801561043857600080fd5b50610453600480360381019061044e919061277e565b611e15565b005b34801561046157600080fd5b5061046a6120d5565b60405161047791906127be565b60405180910390f35b34801561048c57600080fd5b506104a760048036038101906104a29190612466565b6120fb565b6040516104b4919061251a565b60405180910390f35b3480156104c957600080fd5b506104e460048036038101906104df9190612466565b6121ec565b6040516104f1919061251a565b60405180910390f35b60066020528060005260406000206000915090508060000160009054906101000a900473ffffffffffffffffffffffffffffffffffffffff16908060010160009054906101000a900473ffffffffffffffffffffffffffffffffffffffff16908060020154908060030154908060040154908060050154908060060160009054906101000a900460ff16908060060160019054906101000a900460ff16908060060160029054906101000a900460ff16905089565b600160009054906101000a900473ffffffffffffffffffffffffffffffffffffffff1673ffffffffffffffffffffffffffffffffffffffff163373ffffffffffffffffffffffffffffffffffffffff161461063f576040517f08c379a000000000000000000000000000000000000000000000000000000000815260040161063690612836565b60405180910390fd5b6001600260008373ffffffffffffffffffffffffffffffffffffffff1673ffffffffffffffffffffffffffffffffffffffff16815260200190815260200160002060006101000a81548160ff0219169083151502179055508073ffffffffffffffffffffffffffffffffffffffff167fb710f7d3e79cb091613cfea70444ea824ad23f2b1297bdea427bc6f097e346a86040516106db906128a2565b60405180910390a250565b600160009054906101000a900473ffffffffffffffffffffffffffffffffffffffff1673ffffffffffffffffffffffffffffffffffffffff163373ffffffffffffffffffffffffffffffffffffffff16148061078b5750600260003373ffffffffffffffffffffffffffffffffffffffff1673ffffffffffffffffffffffffffffffffffffffff16815260200190815260200160002060009054906101000a900460ff165b6107ca576040517f08c379a00000000000000000000000000000000000000000000000000000000081526004016107c190612934565b60405180910390fd5b6107d261220c565b60006006600083815260200190815260200160002090508060060160029054906101000a900460ff161561083b576040517f08c379a0000000000000000000000000000000000000000000000000000000008152600401610832906129a0565b60405180910390fd5b6000816003015490506000826003018190555060018260060160026101000a81548160ff0219169083151502179055508160000160009054906101000a900473ffffffffffffffffffffffffffffffffffffffff1673ffffffffffffffffffffffffffffffffffffffff166108fc829081150290604051600060405180830381858888f193505050501580156108d5573d6000803e3d6000fd5b508160000160009054906101000a900473ffffffffffffffffffffffffffffffffffffffff1673ffffffffffffffffffffffffffffffffffffffff167f984943a1674ba9f99b1bf6f36a72bf142dcb0c5beb910338a16430ed3989c85084836040516109429291906129c0565b60405180910390a25050610954612252565b50565b600160009054906101000a900473ffffffffffffffffffffffffffffffffffffffff1673ffffffffffffffffffffffffffffffffffffffff163373ffffffffffffffffffffffffffffffffffffffff1614806109fc5750600260003373ffffffffffffffffffffffffffffffffffffffff1673ffffffffffffffffffffffffffffffffffffffff16815260200190815260200160002060009054906101000a900460ff165b610a3b576040517f08c379a0000000000000000000000000000000000000000000000000000000008152600401610a3290612934565b60405180910390fd5b610a4361220c565b60006006600084815260200190815260200160002090508060060160009054906101000a900460ff16610aab576040517f08c379a0000000000000000000000000000000000000000000000000000000008152600401610aa290612a35565b60405180910390fd5b8060060160019054906101000a900460ff1615610afd576040517f08c379a0000000000000000000000000000000000000000000000000000000008152600401610af490612aa1565b60405180910390fd5b60018160060160016101000a81548160ff0219169083151502179055508115610b94578060000160009054906101000a900473ffffffffffffffffffffffffffffffffffffffff1673ffffffffffffffffffffffffffffffffffffffff166108fc82600201549081150290604051600060405180830381858888f19350505050158015610b8e573d6000803e3d6000fd5b50610c04565b8060010160009054906101000a900473ffffffffffffffffffffffffffffffffffffffff1673ffffffffffffffffffffffffffffffffffffffff166108fc82600201549081150290604051600060405180830381858888f19350505050158015610c02573d6000803e3d6000fd5b505b7f5a87909bff68caaaaf0b3fd9c74eeccc928832f879315e5c6fb7a73612f26c0c8383604051610c35929190612ac1565b60405180910390a150610c46612252565b5050565b60056020528060005260406000206000915090505481565b60046020528060005260406000206000915054906101000a900460ff1681565b6000600560008373ffffffffffffffffffffffffffffffffffffffff1673ffffffffffffffffffffffffffffffffffffffff168152602001908152602001600020549050919050565b610cd361220c565b80600560003373ffffffffffffffffffffffffffffffffffffffff1673ffffffffffffffffffffffffffffffffffffffff168152602001908152602001600020541015610d55576040517f08c379a0000000000000000000000000000000000000000000000000000000008152600401610d4c90612b36565b60405180910390fd5b610d5e336120fb565b15610d9e576040517f08c379a0000000000000000000000000000000000000000000000000000000008152600401610d9590612bc8565b60405180910390fd5b80600560003373ffffffffffffffffffffffffffffffffffffffff1673ffffffffffffffffffffffffffffffffffffffff1681526020019081526020016000206000828254610ded9190612c17565b925050819055503373ffffffffffffffffffffffffffffffffffffffff166108fc829081150290604051600060405180830381858888f19350505050158015610e3a573d6000803e3d6000fd5b503373ffffffffffffffffffffffffffffffffffffffff167f39f149989df7459e67e6b6c4b3555f74903401b120bca9fa08d57650720cfc5c600560003373ffffffffffffffffffffffffffffffffffffffff1673ffffffffffffffffffffffffffffffffffffffff16815260200190815260200160002054604051610ec091906124ff565b60405180910390a2610ed0612252565b50565b600160009054906101000a900473ffffffffffffffffffffffffffffffffffffffff1673ffffffffffffffffffffffffffffffffffffffff163373ffffffffffffffffffffffffffffffffffffffff161480610f785750600260003373ffffffffffffffffffffffffffffffffffffffff1673ffffffffffffffffffffffffffffffffffffffff16815260200190815260200160002060009054906101000a900460ff165b610fb7576040517f08c379a0000000000000000000000000000000000000000000000000000000008152600401610fae90612934565b60405180910390fd5b610fbf61220c565b600060066000838152602001908152602001600020905062093a808160050154610fe99190612c4b565b421161102a576040517f08c379a000000000000000000000000000000000000000000000000000000000815260040161102190612ccb565b60405180910390fd5b8060060160009054906101000a900460ff161561107c576040517f08c379a000000000000000000000000000000000000000000000000000000000815260040161107390612d37565b60405180910390fd5b8060060160019054906101000a900460ff16156110ce576040517f08c379a00000000000000000000000000000000000000000000000000000000081526004016110c590612da3565b60405180910390fd5b60018160060160016101000a81548160ff0219169083151502179055508060010160009054906101000a900473ffffffffffffffffffffffffffffffffffffffff1673ffffffffffffffffffffffffffffffffffffffff166108fc82600201549081150290604051600060405180830381858888f19350505050158015611159573d6000803e3d6000fd5b508060010160009054906101000a900473ffffffffffffffffffffffffffffffffffffffff1673ffffffffffffffffffffffffffffffffffffffff167f21d71db5be59bb9fa133895586b7404307dd33fb93b16db09dc6f1d9d7d231b08383600201546040516111ca9291906129c0565b60405180910390a2506111db612252565b50565b60006006600083815260200190815260200160002090508060000160009054906101000a900473ffffffffffffffffffffffffffffffffffffffff1673ffffffffffffffffffffffffffffffffffffffff163373ffffffffffffffffffffffffffffffffffffffff1614611287576040517f08c379a000000000000000000000000000000000000000000000000000000000815260040161127e90612e0f565b60405180910390fd5b806005015442116112cd576040517f08c379a00000000000000000000000000000000000000000000000000000000081526004016112c490612e7b565b60405180910390fd5b62093a8081600501546112e09190612c4b565b421115611322576040517f08c379a000000000000000000000000000000000000000000000000000000000815260040161131990612ee7565b60405180910390fd5b8060060160009054906101000a900460ff1615611374576040517f08c379a000000000000000000000000000000000000000000000000000000000815260040161136b90612f53565b60405180910390fd5b60018160060160006101000a81548160ff0219169083151502179055507f04901f83201c8724eadf084436db8aa391820bae6d11f9f78a17edb6f2eef3cf826040516113c091906124ff565b60405180910390a15050565b600160009054906101000a900473ffffffffffffffffffffffffffffffffffffffff1673ffffffffffffffffffffffffffffffffffffffff163373ffffffffffffffffffffffffffffffffffffffff1614806114715750600260003373ffffffffffffffffffffffffffffffffffffffff1673ffffffffffffffffffffffffffffffffffffffff16815260200190815260200160002060009054906101000a900460ff165b6114b0576040517f08c379a00000000000000000000000000000000000000000000000000000000081526004016114a790612934565b60405180910390fd5b6114b861220c565b80600560008473ffffffffffffffffffffffffffffffffffffffff1673ffffffffffffffffffffffffffffffffffffffff16815260200190815260200160002054101561153a576040517f08c379a000000000000000000000000000000000000000000000000000000000815260040161153190612b36565b60405180910390fd5b80600560008473ffffffffffffffffffffffffffffffffffffffff1673ffffffffffffffffffffffffffffffffffffffff16815260200190815260200160002060008282546115899190612c17565b925050819055503373ffffffffffffffffffffffffffffffffffffffff166108fc829081150290604051600060405180830381858888f193505050501580156115d6573d6000803e3d6000fd5b508173ffffffffffffffffffffffffffffffffffffffff167f39f149989df7459e67e6b6c4b3555f74903401b120bca9fa08d57650720cfc5c600560008573ffffffffffffffffffffffffffffffffffffffff1673ffffffffffffffffffffffffffffffffffffffff1681526020019081526020016000205460405161165c91906124ff565b60405180910390a261166c612252565b5050565b60036020528060005260406000206000915054906101000a900460ff1681565b6060600060075467ffffffffffffffff8111156116b0576116af612f73565b5b6040519080825280602002602001820160405280156116e957816020015b6116d661225c565b8152602001906001900390816116ce5790505b5090506000600190505b600754811161187d5760066000828152602001908152602001600020604051806101200160405290816000820160009054906101000a900473ffffffffffffffffffffffffffffffffffffffff1673ffffffffffffffffffffffffffffffffffffffff1673ffffffffffffffffffffffffffffffffffffffff1681526020016001820160009054906101000a900473ffffffffffffffffffffffffffffffffffffffff1673ffffffffffffffffffffffffffffffffffffffff1673ffffffffffffffffffffffffffffffffffffffff168152602001600282015481526020016003820154815260200160048201548152602001600582015481526020016006820160009054906101000a900460ff161515151581526020016006820160019054906101000a900460ff161515151581526020016006820160029054906101000a900460ff1615151515815250508260018361184e9190612c17565b8151811061185f5761185e612fa2565b5b6020026020010181905250808061187590612fd1565b9150506116f3565b508091505090565b600160009054906101000a900473ffffffffffffffffffffffffffffffffffffffff1673ffffffffffffffffffffffffffffffffffffffff163373ffffffffffffffffffffffffffffffffffffffff1614611915576040517f08c379a000000000000000000000000000000000000000000000000000000000815260040161190c90612836565b60405180910390fd5b6000600260008373ffffffffffffffffffffffffffffffffffffffff1673ffffffffffffffffffffffffffffffffffffffff16815260200190815260200160002060006101000a81548160ff0219169083151502179055508073ffffffffffffffffffffffffffffffffffffffff167f9f43a01c0d4ff5aff09b3b9b472df707ceefd3f948f8942f10fa1562a89213046040516119b1906128a2565b60405180910390a250565b6119c461220c565b60003411611a07576040517f08c379a00000000000000000000000000000000000000000000000000000000081526004016119fe90613065565b60405180910390fd5b60006064600534611a189190613085565b611a2291906130f6565b905060006064605a34611a359190613085565b611a3f91906130f6565b905060006064600534611a529190613085565b611a5c91906130f6565b9050600160009054906101000a900473ffffffffffffffffffffffffffffffffffffffff1673ffffffffffffffffffffffffffffffffffffffff166108fc849081150290604051600060405180830381858888f19350505050158015611ac6573d6000803e3d6000fd5b5060076000815480929190611ada90612fd1565b91905055506040518061012001604052803373ffffffffffffffffffffffffffffffffffffffff1681526020018773ffffffffffffffffffffffffffffffffffffffff1681526020018381526020018281526020018681526020018581526020016000151581526020016000151581526020016000151581525060066000600754815260200190815260200160002060008201518160000160006101000a81548173ffffffffffffffffffffffffffffffffffffffff021916908373ffffffffffffffffffffffffffffffffffffffff16021790555060208201518160010160006101000a81548173ffffffffffffffffffffffffffffffffffffffff021916908373ffffffffffffffffffffffffffffffffffffffff16021790555060408201518160020155606082015181600301556080820151816004015560a0820151816005015560c08201518160060160006101000a81548160ff02191690831515021790555060e08201518160060160016101000a81548160ff0219169083151502179055506101008201518160060160026101000a81548160ff0219169083151502179055509050503373ffffffffffffffffffffffffffffffffffffffff167f3a9074b40264639fb0c24983df758fcf677f76a06a50e0a1c763326a04e07c236007548484604051611ccf93929190613127565b60405180910390a2505050611ce2612252565b505050565b60003411611d2a576040517f08c379a0000000000000000000000000000000000000000000000000000000008152600401611d21906131aa565b60405180910390fd5b34600560003373ffffffffffffffffffffffffffffffffffffffff1673ffffffffffffffffffffffffffffffffffffffff1681526020019081526020016000206000828254611d799190612c4b565b925050819055503373ffffffffffffffffffffffffffffffffffffffff167f39f149989df7459e67e6b6c4b3555f74903401b120bca9fa08d57650720cfc5c600560003373ffffffffffffffffffffffffffffffffffffffff1673ffffffffffffffffffffffffffffffffffffffff16815260200190815260200160002054604051611e0591906124ff565b60405180910390a2565b60075481565b600160009054906101000a900473ffffffffffffffffffffffffffffffffffffffff1673ffffffffffffffffffffffffffffffffffffffff163373ffffffffffffffffffffffffffffffffffffffff161480611eba5750600260003373ffffffffffffffffffffffffffffffffffffffff1673ffffffffffffffffffffffffffffffffffffffff16815260200190815260200160002060009054906101000a900460ff165b611ef9576040517f08c379a0000000000000000000000000000000000000000000000000000000008152600401611ef090612934565b60405180910390fd5b611f0161220c565b60006006600084815260200190815260200160002090508060060160029054906101000a900460ff1615611f6a576040517f08c379a0000000000000000000000000000000000000000000000000000000008152600401611f61906129a0565b60405180910390fd5b8060030154821115611fb1576040517f08c379a0000000000000000000000000000000000000000000000000000000008152600401611fa890613216565b60405180910390fd5b81816003016000828254611fc59190612c17565b9250508190555060018160060160026101000a81548160ff0219169083151502179055508060010160009054906101000a900473ffffffffffffffffffffffffffffffffffffffff1673ffffffffffffffffffffffffffffffffffffffff166108fc839081150290604051600060405180830381858888f19350505050158015612053573d6000803e3d6000fd5b508060010160009054906101000a900473ffffffffffffffffffffffffffffffffffffffff1673ffffffffffffffffffffffffffffffffffffffff167f92239b9290291b938a8cf6d9ddd73fd11f7e869cf1d99dd5c9433be9f0a5549e84846040516120c09291906129c0565b60405180910390a2506120d1612252565b5050565b600160009054906101000a900473ffffffffffffffffffffffffffffffffffffffff1681565b600080600190505b60075481116121e1578273ffffffffffffffffffffffffffffffffffffffff166006600083815260200190815260200160002060010160009054906101000a900473ffffffffffffffffffffffffffffffffffffffff1673ffffffffffffffffffffffffffffffffffffffff161480156121925750600660008281526020019081526020016000206005015442105b80156121bf57506006600082815260200190815260200160002060060160019054906101000a900460ff16155b156121ce5760019150506121e7565b80806121d990612fd1565b915050612103565b50600090505b919050565b60026020528060005260406000206000915054906101000a900460ff1681565b600260005403612248576040517f3ee5aeb500000000000000000000000000000000000000000000000000000000815260040160405180910390fd5b6002600081905550565b6001600081905550565b604051806101200160405280600073ffffffffffffffffffffffffffffffffffffffff168152602001600073ffffffffffffffffffffffffffffffffffffffff168152602001600081526020016000815260200160008152602001600081526020016000151581526020016000151581526020016000151581525090565b600080fd5b6000819050919050565b6122f2816122df565b81146122fd57600080fd5b50565b60008135905061230f816122e9565b92915050565b60006020828403121561232b5761232a6122da565b5b600061233984828501612300565b91505092915050565b600073ffffffffffffffffffffffffffffffffffffffff82169050919050565b600061236d82612342565b9050919050565b61237d81612362565b82525050565b61238c816122df565b82525050565b60008115159050919050565b6123a781612392565b82525050565b6000610120820190506123c3600083018c612374565b6123d0602083018b612374565b6123dd604083018a612383565b6123ea6060830189612383565b6123f76080830188612383565b61240460a0830187612383565b61241160c083018661239e565b61241e60e083018561239e565b61242c61010083018461239e565b9a9950505050505050505050565b61244381612362565b811461244e57600080fd5b50565b6000813590506124608161243a565b92915050565b60006020828403121561247c5761247b6122da565b5b600061248a84828501612451565b91505092915050565b61249c81612392565b81146124a757600080fd5b50565b6000813590506124b981612493565b92915050565b600080604083850312156124d6576124d56122da565b5b60006124e485828601612300565b92505060206124f5858286016124aa565b9150509250929050565b60006020820190506125146000830184612383565b92915050565b600060208201905061252f600083018461239e565b92915050565b6000806040838503121561254c5761254b6122da565b5b600061255a85828601612451565b925050602061256b85828601612300565b9150509250929050565b600081519050919050565b600082825260208201905092915050565b6000819050602082019050919050565b6125aa81612362565b82525050565b6125b9816122df565b82525050565b6125c881612392565b82525050565b610120820160008201516125e560008501826125a1565b5060208201516125f860208501826125a1565b50604082015161260b60408501826125b0565b50606082015161261e60608501826125b0565b50608082015161263160808501826125b0565b5060a082015161264460a08501826125b0565b5060c082015161265760c08501826125bf565b5060e082015161266a60e08501826125bf565b5061010082015161267f6101008501826125bf565b50505050565b600061269183836125ce565b6101208301905092915050565b6000602082019050919050565b60006126b682612575565b6126c08185612580565b93506126cb83612591565b8060005b838110156126fc5781516126e38882612685565b97506126ee8361269e565b9250506001810190506126cf565b5085935050505092915050565b6000602082019050818103600083015261272381846126ab565b905092915050565b600080600060608486031215612744576127436122da565b5b600061275286828701612451565b935050602061276386828701612300565b925050604061277486828701612300565b9150509250925092565b60008060408385031215612795576127946122da565b5b60006127a385828601612300565b92505060206127b485828601612300565b9150509250929050565b60006020820190506127d36000830184612374565b92915050565b600082825260208201905092915050565b7f4e6f7420617574686f72697a65643a2041646d696e206f6e6c79000000000000600082015250565b6000612820601a836127d9565b915061282b826127ea565b602082019050919050565b6000602082019050818103600083015261284f81612813565b9050919050565b7f4d616e6167657200000000000000000000000000000000000000000000000000600082015250565b600061288c6007836127d9565b915061289782612856565b602082019050919050565b600060208201905081810360008301526128bb8161287f565b9050919050565b7f4e6f7420617574686f72697a65643a2041646d696e206f72204d616e6167657260008201527f206f6e6c79000000000000000000000000000000000000000000000000000000602082015250565b600061291e6025836127d9565b9150612929826128c2565b604082019050919050565b6000602082019050818103600083015261294d81612911565b9050919050565b7f4465706f73697420616c72656164792068616e646c6564000000000000000000600082015250565b600061298a6017836127d9565b915061299582612954565b602082019050919050565b600060208201905081810360008301526129b98161297d565b9050919050565b60006040820190506129d56000830185612383565b6129e26020830184612383565b9392505050565b7f4e6f206469737075746520726169736564000000000000000000000000000000600082015250565b6000612a1f6011836127d9565b9150612a2a826129e9565b602082019050919050565b60006020820190508181036000830152612a4e81612a12565b9050919050565b7f416c7265616479207265736f6c76656400000000000000000000000000000000600082015250565b6000612a8b6010836127d9565b9150612a9682612a55565b602082019050919050565b60006020820190508181036000830152612aba81612a7e565b9050919050565b6000604082019050612ad66000830185612383565b612ae3602083018461239e565b9392505050565b7f496e73756666696369656e74207374616b650000000000000000000000000000600082015250565b6000612b206012836127d9565b9150612b2b82612aea565b602082019050919050565b60006020820190508181036000830152612b4f81612b13565b9050919050565b7f43616e6e6f7420776974686472617720776974682061637469766520626f6f6b60008201527f696e677300000000000000000000000000000000000000000000000000000000602082015250565b6000612bb26024836127d9565b9150612bbd82612b56565b604082019050919050565b60006020820190508181036000830152612be181612ba5565b9050919050565b7f4e487b7100000000000000000000000000000000000000000000000000000000600052601160045260246000fd5b6000612c22826122df565b9150612c2d836122df565b9250828203905081811115612c4557612c44612be8565b5b92915050565b6000612c56826122df565b9150612c61836122df565b9250828201905080821115612c7957612c78612be8565b5b92915050565b7f4469737075746520706572696f64206e6f7420656e6465640000000000000000600082015250565b6000612cb56018836127d9565b9150612cc082612c7f565b602082019050919050565b60006020820190508181036000830152612ce481612ca8565b9050919050565b7f4469737075746520726169736564000000000000000000000000000000000000600082015250565b6000612d21600e836127d9565b9150612d2c82612ceb565b602082019050919050565b60006020820190508181036000830152612d5081612d14565b9050919050565b7f416c72656164792072656c656173656400000000000000000000000000000000600082015250565b6000612d8d6010836127d9565b9150612d9882612d57565b602082019050919050565b60006020820190508181036000830152612dbc81612d80565b9050919050565b7f4f6e6c792072656e7465722063616e2072616973652061206469737075746500600082015250565b6000612df9601f836127d9565b9150612e0482612dc3565b602082019050919050565b60006020820190508181036000830152612e2881612dec565b9050919050565b7f426f6f6b696e67206e6f7420656e646564000000000000000000000000000000600082015250565b6000612e656011836127d9565b9150612e7082612e2f565b602082019050919050565b60006020820190508181036000830152612e9481612e58565b9050919050565b7f4469737075746520706572696f6420656e646564000000000000000000000000600082015250565b6000612ed16014836127d9565b9150612edc82612e9b565b602082019050919050565b60006020820190508181036000830152612f0081612ec4565b9050919050565b7f416c726561647920646973707574656400000000000000000000000000000000600082015250565b6000612f3d6010836127d9565b9150612f4882612f07565b602082019050919050565b60006020820190508181036000830152612f6c81612f30565b9050919050565b7f4e487b7100000000000000000000000000000000000000000000000000000000600052604160045260246000fd5b7f4e487b7100000000000000000000000000000000000000000000000000000000600052603260045260246000fd5b6000612fdc826122df565b91507fffffffffffffffffffffffffffffffffffffffffffffffffffffffffffffffff820361300e5761300d612be8565b5b600182019050919050565b7f5061796d656e74206d7573742062652067726561746572207468616e20300000600082015250565b600061304f601e836127d9565b915061305a82613019565b602082019050919050565b6000602082019050818103600083015261307e81613042565b9050919050565b6000613090826122df565b915061309b836122df565b92508282026130a9816122df565b915082820484148315176130c0576130bf612be8565b5b5092915050565b7f4e487b7100000000000000000000000000000000000000000000000000000000600052601260045260246000fd5b6000613101826122df565b915061310c836122df565b92508261311c5761311b6130c7565b5b828204905092915050565b600060608201905061313c6000830186612383565b6131496020830185612383565b6131566040830184612383565b949350505050565b7f5374616b65206d7573742062652067726561746572207468616e207a65726f00600082015250565b6000613194601f836127d9565b915061319f8261315e565b602082019050919050565b600060208201905081810360008301526131c381613187565b9050919050565b7f43616e6e6f7420636c61696d206d6f7265207468616e206465706f7369740000600082015250565b6000613200601e836127d9565b915061320b826131ca565b602082019050919050565b6000602082019050818103600083015261322f816131f3565b905091905056fea2646970667358221220078b914b8ddcd276eca2ff0f4d1cecd4f29697c9048e6cf86e54dd2b7db8c6dc64736f6c63430008180033",
  "linkReferences": {},
  "deployedLinkReferences": {}
}