{
  "_format": "hh-sol-artifact-1",
  "contractName": "RentalPayments",
  "sourceName": "contracts/RentalPayments.sol",
  "abi": [
    {
      "inputs": [],
      "stateMutability": "nonpayable",
      "type": "constructor"
    },
    {
      "inputs": [],
      "name": "ReentrancyGuardReentrantCall",
      "type": "error"
    },
    {
      "anonymous": false,
      "inputs": [
        {
          "indexed": false,
          "internalType": "uint256",
          "name": "newDisputePeriod",
          "type": "uint256"
        }
      ],
      "name": "DisputePeriodUpdated",
      "type": "event"
    },
    {
      "anonymous": false,
      "inputs": [
        {
          "indexed": false,
          "internalType": "uint256",
          "name": "bookingId",
          "type": "uint256"
        }
      ],
      "name": "DisputeRaised",
      "type": "event"
    },
    {
      "anonymous": false,
      "inputs": [
        {
          "indexed": true,
          "internalType": "uint256",
          "name": "bookingId",
          "type": "uint256"
        },
        {
          "indexed": true,
          "internalType": "address",
          "name": "guest",
          "type": "address"
        }
      ],
      "name": "DisputeRaisedByGuest",
      "type": "event"
    },
    {
      "anonymous": false,
      "inputs": [
        {
          "indexed": true,
          "internalType": "uint256",
          "name": "bookingId",
          "type": "uint256"
        },
        {
          "indexed": true,
          "internalType": "address",
          "name": "host",
          "type": "address"
        }
      ],
      "name": "DisputeRaisedByHost",
      "type": "event"
    },
    {
      "anonymous": false,
      "inputs": [
        {
          "indexed": false,
          "internalType": "uint256",
          "name": "bookingId",
          "type": "uint256"
        },
        {
          "indexed": false,
          "internalType": "bool",
          "name": "favorRenter",
          "type": "bool"
        }
      ],
      "name": "DisputeResolved",
      "type": "event"
    },
    {
      "anonymous": false,
      "inputs": [
        {
          "indexed": false,
          "internalType": "uint256",
          "name": "commission",
          "type": "uint256"
        },
        {
          "indexed": false,
          "internalType": "uint256",
          "name": "deposit",
          "type": "uint256"
        },
        {
          "indexed": false,
          "internalType": "uint256",
          "name": "hostPayment",
          "type": "uint256"
        }
      ],
      "name": "FeeStructureUpdated",
      "type": "event"
    },
    {
      "anonymous": false,
      "inputs": [
        {
          "indexed": false,
          "internalType": "uint256",
          "name": "bookingId",
          "type": "uint256"
        },
        {
          "indexed": true,
          "internalType": "address",
          "name": "owner",
          "type": "address"
        },
        {
          "indexed": false,
          "internalType": "uint256",
          "name": "amount",
          "type": "uint256"
        }
      ],
      "name": "GuestDepositClaimed",
      "type": "event"
    },
    {
      "anonymous": false,
      "inputs": [
        {
          "indexed": false,
          "internalType": "uint256",
          "name": "bookingId",
          "type": "uint256"
        },
        {
          "indexed": true,
          "internalType": "address",
          "name": "renter",
          "type": "address"
        },
        {
          "indexed": false,
          "internalType": "uint256",
          "name": "amount",
          "type": "uint256"
        }
      ],
      "name": "GuestDepositRefunded",
      "type": "event"
    },
    {
      "anonymous": false,
      "inputs": [
        {
          "indexed": true,
          "internalType": "uint256",
          "name": "bookingId",
          "type": "uint256"
        },
        {
          "indexed": true,
          "internalType": "address",
          "name": "guest",
          "type": "address"
        }
      ],
      "name": "GuestDisputeLost",
      "type": "event"
    },
    {
      "anonymous": false,
      "inputs": [
        {
          "indexed": true,
          "internalType": "uint256",
          "name": "bookingId",
          "type": "uint256"
        },
        {
          "indexed": true,
          "internalType": "address",
          "name": "guest",
          "type": "address"
        }
      ],
      "name": "GuestDisputeWon",
      "type": "event"
    },
    {
      "anonymous": false,
      "inputs": [
        {
          "indexed": true,
          "internalType": "uint256",
          "name": "bookingId",
          "type": "uint256"
        },
        {
          "indexed": true,
          "internalType": "address",
          "name": "host",
          "type": "address"
        }
      ],
      "name": "HostDisputeLost",
      "type": "event"
    },
    {
      "anonymous": false,
      "inputs": [
        {
          "indexed": true,
          "internalType": "uint256",
          "name": "bookingId",
          "type": "uint256"
        },
        {
          "indexed": true,
          "internalType": "address",
          "name": "host",
          "type": "address"
        }
      ],
      "name": "HostDisputeWon",
      "type": "event"
    },
    {
      "anonymous": false,
      "inputs": [
        {
          "indexed": false,
          "internalType": "uint256",
          "name": "bookingId",
          "type": "uint256"
        },
        {
          "indexed": true,
          "internalType": "address",
          "name": "renter",
          "type": "address"
        },
        {
          "indexed": true,
          "internalType": "address",
          "name": "owner",
          "type": "address"
        },
        {
          "indexed": false,
          "internalType": "uint256",
          "name": "amount",
          "type": "uint256"
        },
        {
          "indexed": false,
          "internalType": "uint256",
          "name": "guestDeposit",
          "type": "uint256"
        }
      ],
      "name": "PaymentInitiated",
      "type": "event"
    },
    {
      "anonymous": false,
      "inputs": [
        {
          "indexed": false,
          "internalType": "uint256",
          "name": "bookingId",
          "type": "uint256"
        },
        {
          "indexed": true,
          "internalType": "address",
          "name": "owner",
          "type": "address"
        },
        {
          "indexed": false,
          "internalType": "uint256",
          "name": "amount",
          "type": "uint256"
        }
      ],
      "name": "PaymentReleased",
      "type": "event"
    },
    {
      "anonymous": false,
      "inputs": [
        {
          "indexed": true,
          "internalType": "address",
          "name": "account",
          "type": "address"
        },
        {
          "indexed": false,
          "internalType": "string",
          "name": "role",
          "type": "string"
        }
      ],
      "name": "RoleGranted",
      "type": "event"
    },
    {
      "anonymous": false,
      "inputs": [
        {
          "indexed": true,
          "internalType": "address",
          "name": "account",
          "type": "address"
        },
        {
          "indexed": false,
          "internalType": "string",
          "name": "role",
          "type": "string"
        }
      ],
      "name": "RoleRevoked",
      "type": "event"
    },
    {
      "inputs": [],
      "name": "admin",
      "outputs": [
        {
          "internalType": "address",
          "name": "",
          "type": "address"
        }
      ],
      "stateMutability": "view",
      "type": "function"
    },
    {
      "inputs": [],
      "name": "bookingCounter",
      "outputs": [
        {
          "internalType": "uint256",
          "name": "",
          "type": "uint256"
        }
      ],
      "stateMutability": "view",
      "type": "function"
    },
    {
      "inputs": [
        {
          "internalType": "uint256",
          "name": "",
          "type": "uint256"
        }
      ],
      "name": "bookings",
      "outputs": [
        {
          "internalType": "address",
          "name": "renter",
          "type": "address"
        },
        {
          "internalType": "address",
          "name": "owner",
          "type": "address"
        },
        {
          "internalType": "uint256",
          "name": "amount",
          "type": "uint256"
        },
        {
          "internalType": "uint256",
          "name": "guestDeposit",
          "type": "uint256"
        },
        {
          "internalType": "uint256",
          "name": "startTime",
          "type": "uint256"
        },
        {
          "internalType": "uint256",
          "name": "endTime",
          "type": "uint256"
        },
        {
          "internalType": "bool",
          "name": "isDisputeRaised",
          "type": "bool"
        },
        {
          "internalType": "bool",
          "name": "isResolved",
          "type": "bool"
        },
        {
          "internalType": "bool",
          "name": "isPaymentReleased",
          "type": "bool"
        }
      ],
      "stateMutability": "view",
      "type": "function"
    },
    {
      "inputs": [
        {
          "internalType": "uint256",
          "name": "bookingId",
          "type": "uint256"
        },
        {
          "internalType": "uint256",
          "name": "amount",
          "type": "uint256"
        }
      ],
      "name": "claimGuestDeposit",
      "outputs": [],
      "stateMutability": "nonpayable",
      "type": "function"
    },
    {
      "inputs": [],
      "name": "commissionPercentage",
      "outputs": [
        {
          "internalType": "uint256",
          "name": "",
          "type": "uint256"
        }
      ],
      "stateMutability": "view",
      "type": "function"
    },
    {
      "inputs": [],
      "name": "depositPercentage",
      "outputs": [
        {
          "internalType": "uint256",
          "name": "",
          "type": "uint256"
        }
      ],
      "stateMutability": "view",
      "type": "function"
    },
    {
      "inputs": [],
      "name": "disputePeriod",
      "outputs": [
        {
          "internalType": "uint256",
          "name": "",
          "type": "uint256"
        }
      ],
      "stateMutability": "view",
      "type": "function"
    },
    {
      "inputs": [
        {
          "internalType": "address",
          "name": "account",
          "type": "address"
        }
      ],
      "name": "grantManagerRole",
      "outputs": [],
      "stateMutability": "nonpayable",
      "type": "function"
    },
    {
      "inputs": [],
      "name": "hostPaymentPercentage",
      "outputs": [
        {
          "internalType": "uint256",
          "name": "",
          "type": "uint256"
        }
      ],
      "stateMutability": "view",
      "type": "function"
    },
    {
      "inputs": [
        {
          "internalType": "address",
          "name": "owner",
          "type": "address"
        },
        {
          "internalType": "uint256",
          "name": "startTime",
          "type": "uint256"
        },
        {
          "internalType": "uint256",
          "name": "endTime",
          "type": "uint256"
        }
      ],
      "name": "initiatePayment",
      "outputs": [],
      "stateMutability": "payable",
      "type": "function"
    },
    {
      "inputs": [
        {
          "internalType": "address",
          "name": "",
          "type": "address"
        }
      ],
      "name": "managers",
      "outputs": [
        {
          "internalType": "bool",
          "name": "",
          "type": "bool"
        }
      ],
      "stateMutability": "view",
      "type": "function"
    },
    {
      "inputs": [
        {
          "internalType": "uint256",
          "name": "bookingId",
          "type": "uint256"
        }
      ],
      "name": "raiseDispute",
      "outputs": [],
      "stateMutability": "nonpayable",
      "type": "function"
    },
    {
      "inputs": [
        {
          "internalType": "uint256",
          "name": "bookingId",
          "type": "uint256"
        }
      ],
      "name": "refundGuestDeposit",
      "outputs": [],
      "stateMutability": "nonpayable",
      "type": "function"
    },
    {
      "inputs": [
        {
          "internalType": "uint256",
          "name": "bookingId",
          "type": "uint256"
        },
        {
          "internalType": "bool",
          "name": "refundDeposit",
          "type": "bool"
        }
      ],
      "name": "releasePayment",
      "outputs": [],
      "stateMutability": "nonpayable",
      "type": "function"
    },
    {
      "inputs": [
        {
          "internalType": "uint256",
          "name": "bookingId",
          "type": "uint256"
        },
        {
          "internalType": "bool",
          "name": "favorRenter",
          "type": "bool"
        },
        {
          "internalType": "bool",
          "name": "refundDeposit",
          "type": "bool"
        }
      ],
      "name": "resolveDispute",
      "outputs": [],
      "stateMutability": "nonpayable",
      "type": "function"
    },
    {
      "inputs": [
        {
          "internalType": "address",
          "name": "account",
          "type": "address"
        }
      ],
      "name": "revokeManagerRole",
      "outputs": [],
      "stateMutability": "nonpayable",
      "type": "function"
    },
    {
      "inputs": [
        {
          "internalType": "uint256",
          "name": "_disputePeriod",
          "type": "uint256"
        }
      ],
      "name": "updateDisputePeriod",
      "outputs": [],
      "stateMutability": "nonpayable",
      "type": "function"
    },
    {
      "inputs": [
        {
          "internalType": "uint256",
          "name": "_commissionPercentage",
          "type": "uint256"
        },
        {
          "internalType": "uint256",
          "name": "_depositPercentage",
          "type": "uint256"
        },
        {
          "internalType": "uint256",
          "name": "_hostPaymentPercentage",
          "type": "uint256"
        }
      ],
      "name": "updateFeeStructure",
      "outputs": [],
      "stateMutability": "nonpayable",
      "type": "function"
    }
  ],
  "bytecode": "0x608060405260056003556005600455605a60055562093a8060065534801561002657600080fd5b50600160008190555033600160006101000a81548173ffffffffffffffffffffffffffffffffffffffff021916908373ffffffffffffffffffffffffffffffffffffffff16021790555061300e8061007f6000396000f3fe6080604052600436106101095760003560e01c8063b2a592e811610095578063d575fe6411610064578063d575fe6414610338578063db65ae8814610363578063e4ae4d2e1461038c578063f851a440146103b7578063fdff9b4d146103e257610109565b8063b2a592e81461029f578063be4dc94f146102c8578063cd856c74146102f1578063d287ac421461030d57610109565b80632e33b625116100dc5780632e33b625146101d057806351b4d5e8146101f95780635bf31d4d14610222578063827db85f1461024d578063a5c1674e1461027657610109565b806306e652dd1461010e5780630c3562ba146101375780631dab301e1461016257806326e885e3146101a7575b600080fd5b34801561011a57600080fd5b50610135600480360381019061013091906121ad565b61041f565b005b34801561014357600080fd5b5061014c610533565b60405161015991906121e9565b60405180910390f35b34801561016e57600080fd5b50610189600480360381019061018491906121ad565b610539565b60405161019e99989796959493929190612260565b60405180910390f35b3480156101b357600080fd5b506101ce60048036038101906101c99190612319565b6105ee565b005b3480156101dc57600080fd5b506101f760048036038101906101f291906121ad565b610794565b005b34801561020557600080fd5b50610220600480360381019061021b9190612372565b610996565b005b34801561022e57600080fd5b50610237610edf565b60405161024491906121e9565b60405180910390f35b34801561025957600080fd5b50610274600480360381019061026f91906123b2565b610ee5565b005b34801561028257600080fd5b5061029d600480360381019061029891906121ad565b611473565b005b3480156102ab57600080fd5b506102c660048036038101906102c19190612405565b61179f565b005b3480156102d457600080fd5b506102ef60048036038101906102ea9190612319565b6118dd565b005b61030b60048036038101906103069190612458565b611a83565b005b34801561031957600080fd5b50610322611e79565b60405161032f91906121e9565b60405180910390f35b34801561034457600080fd5b5061034d611e7f565b60405161035a91906121e9565b60405180910390f35b34801561036f57600080fd5b5061038a600480360381019061038591906124ab565b611e85565b005b34801561039857600080fd5b506103a16120d6565b6040516103ae91906121e9565b60405180910390f35b3480156103c357600080fd5b506103cc6120dc565b6040516103d991906124eb565b60405180910390f35b3480156103ee57600080fd5b5061040960048036038101906104049190612319565b612102565b6040516104169190612506565b60405180910390f35b600160009054906101000a900473ffffffffffffffffffffffffffffffffffffffff1673ffffffffffffffffffffffffffffffffffffffff163373ffffffffffffffffffffffffffffffffffffffff16146104af576040517f08c379a00000000000000000000000000000000000000000000000000000000081526004016104a69061257e565b60405180910390fd5b600081116104f2576040517f08c379a00000000000000000000000000000000000000000000000000000000081526004016104e990612610565b60405180910390fd5b806006819055507fa07016194ad6cf69ce63d15e6172d7d8bff3221f58442571a1f4b14b202ee6f98160405161052891906121e9565b60405180910390a150565b60045481565b60076020528060005260406000206000915090508060000160009054906101000a900473ffffffffffffffffffffffffffffffffffffffff16908060010160009054906101000a900473ffffffffffffffffffffffffffffffffffffffff16908060020154908060030154908060040154908060050154908060060160009054906101000a900460ff16908060060160019054906101000a900460ff16908060060160029054906101000a900460ff16905089565b600160009054906101000a900473ffffffffffffffffffffffffffffffffffffffff1673ffffffffffffffffffffffffffffffffffffffff163373ffffffffffffffffffffffffffffffffffffffff161461067e576040517f08c379a00000000000000000000000000000000000000000000000000000000081526004016106759061257e565b60405180910390fd5b600073ffffffffffffffffffffffffffffffffffffffff168173ffffffffffffffffffffffffffffffffffffffff16036106ed576040517f08c379a00000000000000000000000000000000000000000000000000000000081526004016106e49061267c565b60405180910390fd5b6001600260008373ffffffffffffffffffffffffffffffffffffffff1673ffffffffffffffffffffffffffffffffffffffff16815260200190815260200160002060006101000a81548160ff0219169083151502179055508073ffffffffffffffffffffffffffffffffffffffff167fb710f7d3e79cb091613cfea70444ea824ad23f2b1297bdea427bc6f097e346a8604051610789906126e8565b60405180910390a250565b600160009054906101000a900473ffffffffffffffffffffffffffffffffffffffff1673ffffffffffffffffffffffffffffffffffffffff163373ffffffffffffffffffffffffffffffffffffffff1614806108395750600260003373ffffffffffffffffffffffffffffffffffffffff1673ffffffffffffffffffffffffffffffffffffffff16815260200190815260200160002060009054906101000a900460ff165b610878576040517f08c379a000000000000000000000000000000000000000000000000000000000815260040161086f9061277a565b60405180910390fd5b610880612122565b6000600760008381526020019081526020016000209050600081600301549050600082600301819055508160000160009054906101000a900473ffffffffffffffffffffffffffffffffffffffff1673ffffffffffffffffffffffffffffffffffffffff166108fc829081150290604051600060405180830381858888f19350505050158015610914573d6000803e3d6000fd5b508160000160009054906101000a900473ffffffffffffffffffffffffffffffffffffffff1673ffffffffffffffffffffffffffffffffffffffff167f984943a1674ba9f99b1bf6f36a72bf142dcb0c5beb910338a16430ed3989c850848360405161098192919061279a565b60405180910390a25050610993612168565b50565b600160009054906101000a900473ffffffffffffffffffffffffffffffffffffffff1673ffffffffffffffffffffffffffffffffffffffff163373ffffffffffffffffffffffffffffffffffffffff161480610a3b5750600260003373ffffffffffffffffffffffffffffffffffffffff1673ffffffffffffffffffffffffffffffffffffffff16815260200190815260200160002060009054906101000a900460ff165b610a7a576040517f08c379a0000000000000000000000000000000000000000000000000000000008152600401610a719061277a565b60405180910390fd5b610a82612122565b60006007600084815260200190815260200160002090506006548160050154610aab91906127f2565b4211610aec576040517f08c379a0000000000000000000000000000000000000000000000000000000008152600401610ae390612872565b60405180910390fd5b8060060160009054906101000a900460ff1615610b3e576040517f08c379a0000000000000000000000000000000000000000000000000000000008152600401610b35906128de565b60405180910390fd5b8060060160019054906101000a900460ff1615610b90576040517f08c379a0000000000000000000000000000000000000000000000000000000008152600401610b879061294a565b60405180910390fd5b8060060160029054906101000a900460ff1615610be2576040517f08c379a0000000000000000000000000000000000000000000000000000000008152600401610bd9906129b6565b60405180910390fd5b60018160060160026101000a81548160ff0219169083151502179055508060010160009054906101000a900473ffffffffffffffffffffffffffffffffffffffff1673ffffffffffffffffffffffffffffffffffffffff166108fc82600201549081150290604051600060405180830381858888f19350505050158015610c6d573d6000803e3d6000fd5b508060010160009054906101000a900473ffffffffffffffffffffffffffffffffffffffff1673ffffffffffffffffffffffffffffffffffffffff167f21d71db5be59bb9fa133895586b7404307dd33fb93b16db09dc6f1d9d7d231b0848360020154604051610cde92919061279a565b60405180910390a2600081600301541115610ed257600081600301549050600082600301819055508215610df0578160000160009054906101000a900473ffffffffffffffffffffffffffffffffffffffff1673ffffffffffffffffffffffffffffffffffffffff166108fc829081150290604051600060405180830381858888f19350505050158015610d76573d6000803e3d6000fd5b508160000160009054906101000a900473ffffffffffffffffffffffffffffffffffffffff1673ffffffffffffffffffffffffffffffffffffffff167f984943a1674ba9f99b1bf6f36a72bf142dcb0c5beb910338a16430ed3989c8508583604051610de392919061279a565b60405180910390a2610ed0565b8160010160009054906101000a900473ffffffffffffffffffffffffffffffffffffffff1673ffffffffffffffffffffffffffffffffffffffff166108fc829081150290604051600060405180830381858888f19350505050158015610e5a573d6000803e3d6000fd5b508160010160009054906101000a900473ffffffffffffffffffffffffffffffffffffffff1673ffffffffffffffffffffffffffffffffffffffff167f92239b9290291b938a8cf6d9ddd73fd11f7e869cf1d99dd5c9433be9f0a5549e8583604051610ec792919061279a565b60405180910390a25b505b50610edb612168565b5050565b60065481565b600160009054906101000a900473ffffffffffffffffffffffffffffffffffffffff1673ffffffffffffffffffffffffffffffffffffffff163373ffffffffffffffffffffffffffffffffffffffff161480610f8a5750600260003373ffffffffffffffffffffffffffffffffffffffff1673ffffffffffffffffffffffffffffffffffffffff16815260200190815260200160002060009054906101000a900460ff165b610fc9576040517f08c379a0000000000000000000000000000000000000000000000000000000008152600401610fc09061277a565b60405180910390fd5b610fd1612122565b60006007600085815260200190815260200160002090508060060160009054906101000a900460ff16611039576040517f08c379a000000000000000000000000000000000000000000000000000000000815260040161103090612a22565b60405180910390fd5b8060060160019054906101000a900460ff161561108b576040517f08c379a000000000000000000000000000000000000000000000000000000000815260040161108290612a8e565b60405180910390fd5b60018160060160016101000a81548160ff02191690831515021790555082156111f2578060000160009054906101000a900473ffffffffffffffffffffffffffffffffffffffff1673ffffffffffffffffffffffffffffffffffffffff16847f89bcf3a41d321edba706c6216205fd3f31b748f783b763d8b18453a346d819d560405160405180910390a38060010160009054906101000a900473ffffffffffffffffffffffffffffffffffffffff1673ffffffffffffffffffffffffffffffffffffffff16847fa617330ae3e30fc0ba5ec47ecebd339531023ab22bb10ceb50af01763b0c4a1e60405160405180910390a38060000160009054906101000a900473ffffffffffffffffffffffffffffffffffffffff1673ffffffffffffffffffffffffffffffffffffffff166108fc82600201549081150290604051600060405180830381858888f193505050501580156111ec573d6000803e3d6000fd5b50611332565b8060000160009054906101000a900473ffffffffffffffffffffffffffffffffffffffff1673ffffffffffffffffffffffffffffffffffffffff16847ffc4af89a16a3ce9b01bee46b476443189b66ec21f89325e13948d4d7c145a73c60405160405180910390a38060010160009054906101000a900473ffffffffffffffffffffffffffffffffffffffff1673ffffffffffffffffffffffffffffffffffffffff16847f5491ffa325a5d6f5ada080332d0c576a99cdbfd8320023a660b641c0f8ba99ae60405160405180910390a38060010160009054906101000a900473ffffffffffffffffffffffffffffffffffffffff1673ffffffffffffffffffffffffffffffffffffffff166108fc82600201549081150290604051600060405180830381858888f19350505050158015611330573d6000803e3d6000fd5b505b811561142c57600081600301549050600082600301819055508160000160009054906101000a900473ffffffffffffffffffffffffffffffffffffffff1673ffffffffffffffffffffffffffffffffffffffff166108fc829081150290604051600060405180830381858888f193505050501580156113b5573d6000803e3d6000fd5b508160000160009054906101000a900473ffffffffffffffffffffffffffffffffffffffff1673ffffffffffffffffffffffffffffffffffffffff167f984943a1674ba9f99b1bf6f36a72bf142dcb0c5beb910338a16430ed3989c850868360405161142292919061279a565b60405180910390a2505b7f5a87909bff68caaaaf0b3fd9c74eeccc928832f879315e5c6fb7a73612f26c0c848460405161145d929190612aae565b60405180910390a15061146e612168565b505050565b60006007600083815260200190815260200160002090508060000160009054906101000a900473ffffffffffffffffffffffffffffffffffffffff1673ffffffffffffffffffffffffffffffffffffffff163373ffffffffffffffffffffffffffffffffffffffff16148061153757508060010160009054906101000a900473ffffffffffffffffffffffffffffffffffffffff1673ffffffffffffffffffffffffffffffffffffffff163373ffffffffffffffffffffffffffffffffffffffff16145b611576576040517f08c379a000000000000000000000000000000000000000000000000000000000815260040161156d90612b49565b60405180910390fd5b806005015442116115bc576040517f08c379a00000000000000000000000000000000000000000000000000000000081526004016115b390612bb5565b60405180910390fd5b60065481600501546115ce91906127f2565b421115611610576040517f08c379a000000000000000000000000000000000000000000000000000000000815260040161160790612c21565b60405180910390fd5b8060060160009054906101000a900460ff1615611662576040517f08c379a000000000000000000000000000000000000000000000000000000000815260040161165990612c8d565b60405180910390fd5b60018160060160006101000a81548160ff0219169083151502179055507f04901f83201c8724eadf084436db8aa391820bae6d11f9f78a17edb6f2eef3cf826040516116ae91906121e9565b60405180910390a18060000160009054906101000a900473ffffffffffffffffffffffffffffffffffffffff1673ffffffffffffffffffffffffffffffffffffffff163373ffffffffffffffffffffffffffffffffffffffff1603611756573373ffffffffffffffffffffffffffffffffffffffff16827f9d2a39566d3f1c29bb1a74ce4a87059c03eba6e504bb03de09a38c06bd3c923060405160405180910390a361179b565b3373ffffffffffffffffffffffffffffffffffffffff16827f0ca6cdef74b66ab409e9cb99dffb0e39a1dff5e17240b7ee0d0184524b8e5fe960405160405180910390a35b5050565b600160009054906101000a900473ffffffffffffffffffffffffffffffffffffffff1673ffffffffffffffffffffffffffffffffffffffff163373ffffffffffffffffffffffffffffffffffffffff161461182f576040517f08c379a00000000000000000000000000000000000000000000000000000000081526004016118269061257e565b60405180910390fd5b606481838561183e91906127f2565b61184891906127f2565b14611888576040517f08c379a000000000000000000000000000000000000000000000000000000000815260040161187f90612cf9565b60405180910390fd5b8260038190555081600481905550806005819055507f4ea41a1a0288eec0ee06e5b2516ff8c82c05e21a866ba0ee13c7669a555297188383836040516118d093929190612d19565b60405180910390a1505050565b600160009054906101000a900473ffffffffffffffffffffffffffffffffffffffff1673ffffffffffffffffffffffffffffffffffffffff163373ffffffffffffffffffffffffffffffffffffffff161461196d576040517f08c379a00000000000000000000000000000000000000000000000000000000081526004016119649061257e565b60405180910390fd5b600073ffffffffffffffffffffffffffffffffffffffff168173ffffffffffffffffffffffffffffffffffffffff16036119dc576040517f08c379a00000000000000000000000000000000000000000000000000000000081526004016119d39061267c565b60405180910390fd5b6000600260008373ffffffffffffffffffffffffffffffffffffffff1673ffffffffffffffffffffffffffffffffffffffff16815260200190815260200160002060006101000a81548160ff0219169083151502179055508073ffffffffffffffffffffffffffffffffffffffff167f9f43a01c0d4ff5aff09b3b9b472df707ceefd3f948f8942f10fa1562a8921304604051611a78906126e8565b60405180910390a250565b611a8b612122565b60003411611ace576040517f08c379a0000000000000000000000000000000000000000000000000000000008152600401611ac590612d9c565b60405180910390fd5b600073ffffffffffffffffffffffffffffffffffffffff168373ffffffffffffffffffffffffffffffffffffffff1603611b3d576040517f08c379a0000000000000000000000000000000000000000000000000000000008152600401611b349061267c565b60405180910390fd5b818111611b7f576040517f08c379a0000000000000000000000000000000000000000000000000000000008152600401611b7690612e2e565b60405180910390fd5b6000606460035434611b919190612e4e565b611b9b9190612ebf565b90506000606460055434611baf9190612e4e565b611bb99190612ebf565b90506000606460045434611bcd9190612e4e565b611bd79190612ebf565b9050600160009054906101000a900473ffffffffffffffffffffffffffffffffffffffff1673ffffffffffffffffffffffffffffffffffffffff166108fc849081150290604051600060405180830381858888f19350505050158015611c41573d6000803e3d6000fd5b5060086000815480929190611c5590612ef0565b91905055506040518061012001604052803373ffffffffffffffffffffffffffffffffffffffff1681526020018773ffffffffffffffffffffffffffffffffffffffff1681526020018381526020018281526020018681526020018581526020016000151581526020016000151581526020016000151581525060076000600854815260200190815260200160002060008201518160000160006101000a81548173ffffffffffffffffffffffffffffffffffffffff021916908373ffffffffffffffffffffffffffffffffffffffff16021790555060208201518160010160006101000a81548173ffffffffffffffffffffffffffffffffffffffff021916908373ffffffffffffffffffffffffffffffffffffffff16021790555060408201518160020155606082015181600301556080820151816004015560a0820151816005015560c08201518160060160006101000a81548160ff02191690831515021790555060e08201518160060160016101000a81548160ff0219169083151502179055506101008201518160060160026101000a81548160ff0219169083151502179055509050508573ffffffffffffffffffffffffffffffffffffffff163373ffffffffffffffffffffffffffffffffffffffff167f66190151d9e83fadeef87aee26c776f11da43a61bf116913d49541d1b4b94aca6008548585604051611e6193929190612d19565b60405180910390a3505050611e74612168565b505050565b60085481565b60035481565b600160009054906101000a900473ffffffffffffffffffffffffffffffffffffffff1673ffffffffffffffffffffffffffffffffffffffff163373ffffffffffffffffffffffffffffffffffffffff161480611f2a5750600260003373ffffffffffffffffffffffffffffffffffffffff1673ffffffffffffffffffffffffffffffffffffffff16815260200190815260200160002060009054906101000a900460ff165b611f69576040517f08c379a0000000000000000000000000000000000000000000000000000000008152600401611f609061277a565b60405180910390fd5b611f71612122565b60006007600084815260200190815260200160002090508060030154821115611fcf576040517f08c379a0000000000000000000000000000000000000000000000000000000008152600401611fc690612f84565b60405180910390fd5b81816003016000828254611fe39190612fa4565b925050819055508060010160009054906101000a900473ffffffffffffffffffffffffffffffffffffffff1673ffffffffffffffffffffffffffffffffffffffff166108fc839081150290604051600060405180830381858888f19350505050158015612054573d6000803e3d6000fd5b508060010160009054906101000a900473ffffffffffffffffffffffffffffffffffffffff1673ffffffffffffffffffffffffffffffffffffffff167f92239b9290291b938a8cf6d9ddd73fd11f7e869cf1d99dd5c9433be9f0a5549e84846040516120c192919061279a565b60405180910390a2506120d2612168565b5050565b60055481565b600160009054906101000a900473ffffffffffffffffffffffffffffffffffffffff1681565b60026020528060005260406000206000915054906101000a900460ff1681565b60026000540361215e576040517f3ee5aeb500000000000000000000000000000000000000000000000000000000815260040160405180910390fd5b6002600081905550565b6001600081905550565b600080fd5b6000819050919050565b61218a81612177565b811461219557600080fd5b50565b6000813590506121a781612181565b92915050565b6000602082840312156121c3576121c2612172565b5b60006121d184828501612198565b91505092915050565b6121e381612177565b82525050565b60006020820190506121fe60008301846121da565b92915050565b600073ffffffffffffffffffffffffffffffffffffffff82169050919050565b600061222f82612204565b9050919050565b61223f81612224565b82525050565b60008115159050919050565b61225a81612245565b82525050565b600061012082019050612276600083018c612236565b612283602083018b612236565b612290604083018a6121da565b61229d60608301896121da565b6122aa60808301886121da565b6122b760a08301876121da565b6122c460c0830186612251565b6122d160e0830185612251565b6122df610100830184612251565b9a9950505050505050505050565b6122f681612224565b811461230157600080fd5b50565b600081359050612313816122ed565b92915050565b60006020828403121561232f5761232e612172565b5b600061233d84828501612304565b91505092915050565b61234f81612245565b811461235a57600080fd5b50565b60008135905061236c81612346565b92915050565b6000806040838503121561238957612388612172565b5b600061239785828601612198565b92505060206123a88582860161235d565b9150509250929050565b6000806000606084860312156123cb576123ca612172565b5b60006123d986828701612198565b93505060206123ea8682870161235d565b92505060406123fb8682870161235d565b9150509250925092565b60008060006060848603121561241e5761241d612172565b5b600061242c86828701612198565b935050602061243d86828701612198565b925050604061244e86828701612198565b9150509250925092565b60008060006060848603121561247157612470612172565b5b600061247f86828701612304565b935050602061249086828701612198565b92505060406124a186828701612198565b9150509250925092565b600080604083850312156124c2576124c1612172565b5b60006124d085828601612198565b92505060206124e185828601612198565b9150509250929050565b60006020820190506125006000830184612236565b92915050565b600060208201905061251b6000830184612251565b92915050565b600082825260208201905092915050565b7f4e6f7420617574686f72697a65643a2041646d696e206f6e6c79000000000000600082015250565b6000612568601a83612521565b915061257382612532565b602082019050919050565b600060208201905081810360008301526125978161255b565b9050919050565b7f4469737075746520706572696f64206d7573742062652067726561746572207460008201527f68616e2030000000000000000000000000000000000000000000000000000000602082015250565b60006125fa602583612521565b91506126058261259e565b604082019050919050565b60006020820190508181036000830152612629816125ed565b9050919050565b7f5a65726f2061646472657373206e6f7420616c6c6f7765640000000000000000600082015250565b6000612666601883612521565b915061267182612630565b602082019050919050565b6000602082019050818103600083015261269581612659565b9050919050565b7f4d616e6167657200000000000000000000000000000000000000000000000000600082015250565b60006126d2600783612521565b91506126dd8261269c565b602082019050919050565b60006020820190508181036000830152612701816126c5565b9050919050565b7f4e6f7420617574686f72697a65643a2041646d696e206f72204d616e6167657260008201527f206f6e6c79000000000000000000000000000000000000000000000000000000602082015250565b6000612764602583612521565b915061276f82612708565b604082019050919050565b6000602082019050818103600083015261279381612757565b9050919050565b60006040820190506127af60008301856121da565b6127bc60208301846121da565b9392505050565b7f4e487b7100000000000000000000000000000000000000000000000000000000600052601160045260246000fd5b60006127fd82612177565b915061280883612177565b92508282019050808211156128205761281f6127c3565b5b92915050565b7f4469737075746520706572696f64206e6f7420656e6465640000000000000000600082015250565b600061285c601883612521565b915061286782612826565b602082019050919050565b6000602082019050818103600083015261288b8161284f565b9050919050565b7f4469737075746520726169736564000000000000000000000000000000000000600082015250565b60006128c8600e83612521565b91506128d382612892565b602082019050919050565b600060208201905081810360008301526128f7816128bb565b9050919050565b7f416c72656164792072656c656173656400000000000000000000000000000000600082015250565b6000612934601083612521565b915061293f826128fe565b602082019050919050565b6000602082019050818103600083015261296381612927565b9050919050565b7f5061796d656e7420616c72656164792072656c65617365640000000000000000600082015250565b60006129a0601883612521565b91506129ab8261296a565b602082019050919050565b600060208201905081810360008301526129cf81612993565b9050919050565b7f4e6f206469737075746520726169736564000000000000000000000000000000600082015250565b6000612a0c601183612521565b9150612a17826129d6565b602082019050919050565b60006020820190508181036000830152612a3b816129ff565b9050919050565b7f416c7265616479207265736f6c76656400000000000000000000000000000000600082015250565b6000612a78601083612521565b9150612a8382612a42565b602082019050919050565b60006020820190508181036000830152612aa781612a6b565b9050919050565b6000604082019050612ac360008301856121da565b612ad06020830184612251565b9392505050565b7f4f6e6c792072656e746572206f7220686f73742063616e20726169736520612060008201527f6469737075746500000000000000000000000000000000000000000000000000602082015250565b6000612b33602783612521565b9150612b3e82612ad7565b604082019050919050565b60006020820190508181036000830152612b6281612b26565b9050919050565b7f426f6f6b696e67206e6f7420656e646564000000000000000000000000000000600082015250565b6000612b9f601183612521565b9150612baa82612b69565b602082019050919050565b60006020820190508181036000830152612bce81612b92565b9050919050565b7f4469737075746520706572696f6420656e646564000000000000000000000000600082015250565b6000612c0b601483612521565b9150612c1682612bd5565b602082019050919050565b60006020820190508181036000830152612c3a81612bfe565b9050919050565b7f416c726561647920646973707574656400000000000000000000000000000000600082015250565b6000612c77601083612521565b9150612c8282612c41565b602082019050919050565b60006020820190508181036000830152612ca681612c6a565b9050919050565b7f50657263656e7461676573206d7573742073756d20746f203130300000000000600082015250565b6000612ce3601b83612521565b9150612cee82612cad565b602082019050919050565b60006020820190508181036000830152612d1281612cd6565b9050919050565b6000606082019050612d2e60008301866121da565b612d3b60208301856121da565b612d4860408301846121da565b949350505050565b7f5061796d656e74206d7573742062652067726561746572207468616e20300000600082015250565b6000612d86601e83612521565b9150612d9182612d50565b602082019050919050565b60006020820190508181036000830152612db581612d79565b9050919050565b7f456e642074696d65206d7573742062652061667465722073746172742074696d60008201527f6500000000000000000000000000000000000000000000000000000000000000602082015250565b6000612e18602183612521565b9150612e2382612dbc565b604082019050919050565b60006020820190508181036000830152612e4781612e0b565b9050919050565b6000612e5982612177565b9150612e6483612177565b9250828202612e7281612177565b91508282048414831517612e8957612e886127c3565b5b5092915050565b7f4e487b7100000000000000000000000000000000000000000000000000000000600052601260045260246000fd5b6000612eca82612177565b9150612ed583612177565b925082612ee557612ee4612e90565b5b828204905092915050565b6000612efb82612177565b91507fffffffffffffffffffffffffffffffffffffffffffffffffffffffffffffffff8203612f2d57612f2c6127c3565b5b600182019050919050565b7f43616e6e6f7420636c61696d206d6f7265207468616e206465706f7369740000600082015250565b6000612f6e601e83612521565b9150612f7982612f38565b602082019050919050565b60006020820190508181036000830152612f9d81612f61565b9050919050565b6000612faf82612177565b9150612fba83612177565b9250828203905081811115612fd257612fd16127c3565b5b9291505056fea2646970667358221220d62d19ab5831410241f1e7124b98c142b4f2c79bacd8a9e96d5d6d2d79a0039764736f6c63430008180033",
  "linkReferences": {},
  "deployedLinkReferences": {}
}